{
	"data": {
		"bytecode": {
			"linkReferences": {},
			"object": "61010060405234801562000011575f80fd5b5060405162003c6838038062003c68833981016040819052620000349162000f6c565b858585846001600160a01b0381166200006657604051631e4fbdf760e01b81525f600482015260240160405180910390fd5b620000718162000119565b506003620000808482620010a2565b5060046200008f8382620010a2565b5060128160ff161015620000b6576040516398790fd560e01b815260040160405180910390fd5b60ff81166080819052620000cc90600a62001277565b60a0524660c052620000dd62000168565b60e05250620000f29150829050600162000203565b6200010d8160a051856200010791906200128e565b62000278565b505050505050620013df565b5f80546001600160a01b038381166001600160a01b0319831681178455604051919092169283917f8be0079c531659141344cd1fd0a4f28419497f9722a3daafe3b4186f6b6457e09190a35050565b5f7f8b73c3c69bb8fe3d512ecc4cf759cc79239f7b179b0ffacaa9a75d522b39400f60036040516200019b9190620012a8565b6040805191829003822060208301939093528101919091527fc89efdaa54c0f20c7adf612882df0950f5a951637e0307cdcb4c672f298b8bc660608201524660808201523060a082015260c00160405160208183030381529060405280519060200120905090565b6001600160a01b0382166200022b5760405163a41e3d3f60e01b815260040160405180910390fd5b801562000243576200023d82620002e7565b6200024e565b6200024e826200031e565b6001600160a01b03919091165f908152600d60205260409020805460ff1916911515919091179055565b6001600160a01b038216620002a057604051634e46966960e11b815260040160405180910390fd5b600160ff1b81600554620002b5919062001322565b1115620002d55760405163303b682f60e01b815260040160405180910390fd5b620002e25f8383620003a2565b505050565b6001600160a01b0381165f908152600c6020526040812054905b81811015620002e257620003158362000661565b60010162000301565b60a0515f9062000342836001600160a01b03165f9081526007602052604090205490565b6200034e919062001338565b90505f62000370836001600160a01b03165f908152600c602052604090205490565b90505f5b62000380828462001358565b8110156200039c57620003938462000712565b60010162000374565b50505050565b6001600160a01b038381165f90815260076020526040808220549285168252812054909190620003d486868662000806565b5f620003e087620008b4565b90505f620003ee87620008b4565b9050818015620003fb5750805b6200065357811562000474575f60a0518462000418919062001338565b60a0516001600160a01b038a165f908152600760205260409020546200043f919062001338565b6200044b919062001358565b90505f5b818110156200046c57620004638962000712565b6001016200044f565b505062000653565b8015620004df5760a0516001600160a01b0389165f908152600760205260408120549091620004a39162001338565b60a051620004b2908762001338565b620004be919062001358565b90505f5b818110156200046c57620004d68a62000661565b600101620004c2565b5f60a05187620004f0919062001338565b90505f5b818110156200059d576001600160a01b038a165f908152600c6020526040812054620005239060019062001358565b6001600160a01b038c165f908152600c6020526040812080549293509091839081106200055457620005546200136e565b5f91825260209091206010820401546200058391600f166002026101000a900461ffff16600160ff1b62001322565b9050620005928c8c83620008e9565b5050600101620004f4565b5060a0518190620005c28b6001600160a01b03165f9081526007602052604090205490565b620005ce919062001338565b60a051620005dd908862001338565b620005e9919062001358565b1115620005fb57620005fb8962000661565b8060a051856200060c919062001338565b60a0516001600160a01b038b165f9081526007602052604090205462000633919062001338565b6200063f919062001358565b11156200065157620006518862000712565b505b506001979650505050505050565b6001600160a01b0381166200068957604051636edaef2f60e11b815260040160405180910390fd5b6001600160a01b0381165f908152600c602052604081208054620006b09060019062001358565b81548110620006c357620006c36200136e565b5f9182526020909120601082040154620006f291600f166002026101000a900461ffff16600160ff1b62001322565b905062000701825f83620008e9565b6200070e60018262000b4b565b5050565b6001600160a01b0381166200073a57604051634e46966960e11b815260040160405180910390fd5b5f62000747600162000c3d565b620007745762000758600162000c84565b6200076c9061ffff16600160ff1b62001322565b9050620007c2565b60065f8154620007849062001382565b90915550600654600101620007ac5760405163303b682f60e01b815260040160405180910390fd5b600654620007bf90600160ff1b62001322565b90505b5f818152600b60205260409020546001600160a01b03168015620007f95760405163119b4fd360e11b815260040160405180910390fd5b620002e2818484620008e9565b6001600160a01b03831662000834578060055f82825462000828919062001322565b90915550620008639050565b6001600160a01b0383165f90815260076020526040812080548392906200085d90849062001358565b90915550505b6001600160a01b038083165f81815260076020526040908190208054850190555190918516905f8051602062003c4883398151915290620008a79085815260200190565b60405180910390a3505050565b5f6001600160a01b0382161580620008e357506001600160a01b0382165f908152600d602052604090205460ff165b92915050565b6001600160a01b0383161562000a5e575f81815260096020908152604080832080546001600160a01b03191690556001600160a01b0386168352600c909152812080546200093a9060019062001358565b815481106200094d576200094d6200136e565b5f91825260209091206010820401546200097c91600f166002026101000a900461ffff16600160ff1b62001322565b905081811462000a09575f828152600b602052604081205460a01c6001600160a01b0386165f908152600c602052604090208054919250839183908110620009c857620009c86200136e565b905f5260205f2090601091828204019190066002026101000a81548161ffff021916908361ffff16021790555062000a07828262000d9560201b60201c565b505b6001600160a01b0384165f908152600c6020526040902080548062000a325762000a326200139d565b5f8281526020902060105f1990920191820401805461ffff6002600f8516026101000a02191690559055505b6001600160a01b0382161562000b08575f818152600b6020526040902080546001600160a01b0319166001600160a01b0384160190556001600160a01b0382165f818152600c60209081526040822080546001808201835582855292842060108204018054600f9092166002026101000a61ffff818102199093169288160291909117905592909152905462000b0291839162000afc919062001358565b62000d95565b62000b17565b5f818152600b60205260408120555b80826001600160a01b0316846001600160a01b03165f8051602062003c4883398151915260405160405180910390a4505050565b81546001600160401b0380821691680100000000000000009004165f81900362000b7b57505f1901600f62000b7f565b5f19015b83546001600160401b03838116600160801b9092041614801562000bb6575083546001600160401b03828116600160c01b90920416145b1562000bd557604051638acb5f2760e01b815260040160405180910390fd5b6001600160401b0382165f90815260018501602052604090205462000bfc90828562000dfb565b6001600160401b039283165f81815260018701602052604090209190915584546001600160801b031916176801000000000000000091909216021790915550565b80545f90600160c01b81046001600160401b039081166801000000000000000090920416148015620008e3575050546001600160401b03808216600160801b909204161490565b80545f906001600160401b03600160801b8204811691600160c01b8104821691168214801562000ccc575083546001600160401b038281166801000000000000000090920416145b1562000ceb576040516375e52f4f60e01b815260040160405180910390fd5b806001600160401b03165f0362000d0857505f1901600f62000d0c565b5f19015b6001600160401b0382165f90815260018501602052604090205462000d32818362000e41565b935062000d4181835f62000dfb565b6001600160401b039384165f81815260018801602052604090209190915585546001600160801b0316600160801b9091026001600160c01b031617600160c01b929093169190910291909117909255919050565b5f828152600b60205260409020546001600160601b0382111562000dcc57604051633f2cd0e360e21b815260040160405180910390fd5b5f928352600b60205260409092206001600160a01b039290921660a09190911b6001600160a01b031916019055565b5f62000e09836010620013b1565b6001600160401b03168261ffff16901b62000e2a8462000e6f60201b60201c565b19851662000e39919062001322565b949350505050565b5f62000e4f826010620013b1565b6001600160401b031662000e638362000e6f565b8416901c905092915050565b5f62000e7d826010620013b1565b6001600160401b031661ffff901b9050919050565b634e487b7160e01b5f52604160045260245ffd5b5f82601f83011262000eb6575f80fd5b81516001600160401b038082111562000ed35762000ed362000e92565b604051601f8301601f19908116603f0116810190828211818310171562000efe5762000efe62000e92565b8160405283815260209250868385880101111562000f1a575f80fd5b5f91505b8382101562000f3d578582018301518183018401529082019062000f1e565b5f93810190920192909252949350505050565b80516001600160a01b038116811462000f67575f80fd5b919050565b5f805f805f8060c0878903121562000f82575f80fd5b86516001600160401b038082111562000f99575f80fd5b62000fa78a838b0162000ea6565b9750602089015191508082111562000fbd575f80fd5b5062000fcc89828a0162000ea6565b955050604087015160ff8116811462000fe3575f80fd5b6060880151909450925062000ffb6080880162000f50565b91506200100b60a0880162000f50565b90509295509295509295565b600181811c908216806200102c57607f821691505b6020821081036200104b57634e487b7160e01b5f52602260045260245ffd5b50919050565b601f821115620002e2575f81815260208120601f850160051c81016020861015620010795750805b601f850160051c820191505b818110156200109a5782815560010162001085565b505050505050565b81516001600160401b03811115620010be57620010be62000e92565b620010d681620010cf845462001017565b8462001051565b602080601f8311600181146200110c575f8415620010f45750858301515b5f19600386901b1c1916600185901b1785556200109a565b5f85815260208120601f198616915b828110156200113c578886015182559484019460019091019084016200111b565b50858210156200115a57878501515f19600388901b60f8161c191681555b5050505050600190811b01905550565b634e487b7160e01b5f52601160045260245ffd5b600181815b80851115620011be57815f1904821115620011a257620011a26200116a565b80851615620011b057918102915b93841c939080029062001183565b509250929050565b5f82620011d657506001620008e3565b81620011e457505f620008e3565b8160018114620011fd5760028114620012085762001228565b6001915050620008e3565b60ff8411156200121c576200121c6200116a565b50506001821b620008e3565b5060208310610133831016604e8410600b84101617156200124d575081810a620008e3565b6200125983836200117e565b805f19048211156200126f576200126f6200116a565b029392505050565b5f6200128760ff841683620011c6565b9392505050565b8082028115828204841417620008e357620008e36200116a565b5f808354620012b78162001017565b60018281168015620012d25760018114620012e85762001316565b60ff198416875282151583028701945062001316565b875f526020805f205f5b858110156200130d5781548a820152908401908201620012f2565b50505082870194505b50929695505050505050565b80820180821115620008e357620008e36200116a565b5f826200135357634e487b7160e01b5f52601260045260245ffd5b500490565b81810381811115620008e357620008e36200116a565b634e487b7160e01b5f52603260045260245ffd5b5f600182016200139657620013966200116a565b5060010190565b634e487b7160e01b5f52603160045260245ffd5b6001600160401b03818116838216028082169190828114620013d757620013d76200116a565b505092915050565b60805160a05160c05160e0516127e8620014605f395f61079101525f61076101525f818161044e015281816110140152818161142f01528181611472015281816114e90152818161151301528181611565015281816116300152818161167c015281816116c0015281816116e70152611bf601525f61034501526127e85ff3fe608060405234801561000f575f80fd5b506004361061023f575f3560e01c80638a696e5011610135578063c6e672b9116100b4578063dd63769911610079578063dd6376991461056f578063dfabc03314610582578063e985e9c514610595578063f2fde38b146105c2578063f780bc1a146105d5575f80fd5b8063c6e672b9146104f9578063c87b56dd1461050c578063d505accf1461051f578063d96ca0b914610532578063dd62ed3e14610545575f80fd5b8063a9059cbb116100fa578063a9059cbb14610483578063b1ab931714610496578063b3f9ea34146104b6578063b88d4fde146104de578063c5ab3ba6146104f1575f80fd5b80638a696e501461041e5780638da5cb5b1461043157806395d89b4114610441578063976a843514610449578063a22cb46514610470575f80fd5b80633644e515116101c15780636e8f624b116101865780636e8f624b146103c557806370a08231146103d0578063715018a6146103ef5780637ecebe00146103f757806389fb4c6614610416575f80fd5b80633644e5151461037957806342842e0e146103815780634d966072146103965780634f02c420146103a95780636352211e146103b2575f80fd5b806309674eb01161020757806309674eb01461030957806309f0ef651461031157806318160ddd1461032457806323b872dd1461032d578063313ce56714610340575f80fd5b806301ffc9a71461024357806302519da31461026b57806306fdde03146102a1578063081812fc146102b6578063095ea7b3146102f6575b5f80fd5b6102566102513660046121fa565b6105e8565b60405190151581526020015b60405180910390f35b61029361027936600461222b565b6001600160a01b03165f9081526007602052604090205490565b604051908152602001610262565b6102a961061e565b6040516102629190612291565b6102de6102c43660046122a3565b60096020525f90815260409020546001600160a01b031681565b6040516001600160a01b039091168152602001610262565b6102566103043660046122ba565b6106aa565b6102936106e2565b61025661031f36600461222b565b6106f2565b61029360055481565b61025661033b3660046122e2565b610722565b6103677f000000000000000000000000000000000000000000000000000000000000000081565b60405160ff9091168152602001610262565b61029361075e565b61039461038f3660046122e2565b6107b3565b005b6102566103a43660046122ba565b6107d2565b61029360065481565b6102de6103c03660046122a3565b61085d565b610293600160ff1b81565b6102936103de36600461222b565b60076020525f908152604090205481565b6103946108c6565b61029361040536600461222b565b600e6020525f908152604090205481565b600554610293565b61039461042c36600461232a565b6108d9565b5f546001600160a01b03166102de565b6102a96108e6565b6102937f000000000000000000000000000000000000000000000000000000000000000081565b61039461047e366004612343565b6108f3565b6102566104913660046122ba565b610985565b6104a96104a436600461222b565b6109b8565b6040516102629190612374565b6102936104c436600461222b565b6001600160a01b03165f908152600c602052604090205490565b6103946104ec3660046123cb565b610aba565b600654610293565b610394610507366004612343565b610ba5565b6102a961051a3660046122a3565b610bbb565b61039461052d36600461249f565b610bec565b6102566105403660046122e2565b610e29565b61029361055336600461250c565b600860209081525f928352604080842090915290825290205481565b61039461057d3660046122e2565b610ee5565b6103946105903660046122ba565b611043565b6102566105a336600461250c565b600a60209081525f928352604080842090915290825290205460ff1681565b6103946105d036600461222b565b611105565b6104a96105e3366004612534565b611144565b5f6001600160e01b0319821663caf91ff560e01b148061061857506001600160e01b031982166301ffc9a760e01b145b92915050565b6003805461062b90612554565b80601f016020809104026020016040519081016040528092919081815260200182805461065790612554565b80156106a25780601f10610679576101008083540402835291602001916106a2565b820191905f5260205f20905b81548152906001019060200180831161068557829003601f168201915b505050505081565b5f6106b4826111f1565b156106c8576106c38383611043565b6106d9565b6106d283836107d2565b9050610618565b50600192915050565b5f6106ed6001611208565b905090565b5f6001600160a01b03821615806106185750506001600160a01b03165f908152600d602052604090205460ff1690565b5f61072c826111f1565b156107415761073c848484610ee5565b610753565b61074c848484610e29565b9050610757565b5060015b9392505050565b5f7f0000000000000000000000000000000000000000000000000000000000000000461461078e576106ed61124b565b507f000000000000000000000000000000000000000000000000000000000000000090565b6107cd83838360405180602001604052805f815250610aba565b505050565b5f6001600160a01b0383166107fa57604051635461585f60e01b815260040160405180910390fd5b335f8181526008602090815260408083206001600160a01b03881680855290835292819020869055518581529192917f8c5be1e5ebec7d5bd14f71427d1e84f3dd0314c0f7b2291e5b200ac8c7c3b925910160405180910390a350600192915050565b5f818152600b60205260409020546001600160a01b031661087d826111f1565b61089a576040516307ed98ed60e31b815260040160405180910390fd5b6001600160a01b0381166108c15760405163c5723b5160e01b815260040160405180910390fd5b919050565b6108ce6112e4565b6108d75f611310565b565b6108e3338261135f565b50565b6004805461062b90612554565b6001600160a01b03821661091a5760405163ccea9e6f60e01b815260040160405180910390fd5b335f818152600a602090815260408083206001600160a01b03871680855290835292819020805460ff191686151590811790915590519081529192917f17307eab39ab6107e8899845ad3d59bd9653f200f220920489ca2b5937696c31910160405180910390a35050565b5f6001600160a01b0383166109ad57604051634e46966960e11b815260040160405180910390fd5b6107573384846113cd565b6001600160a01b0381165f908152600c6020526040812054606091906001600160401b038111156109eb576109eb6123b7565b604051908082528060200260200182016040528015610a14578160200160208202803683370190505b5090505f5b6001600160a01b0384165f908152600c6020526040902054811015610ab3576001600160a01b0384165f908152600c60205260409020805482908110610a6157610a6161258c565b5f9182526020909120601082040154610a8e91600f166002026101000a900461ffff16600160ff1b6125b4565b828281518110610aa057610aa061258c565b6020908102919091010152600101610a19565b5092915050565b610ac3826111f1565b610ae0576040516307ed98ed60e31b815260040160405180910390fd5b610aeb848484610722565b506001600160a01b0383163b15801590610b815750604051630a85bd0160e11b808252906001600160a01b0385169063150b7a0290610b349033908990889088906004016125c7565b6020604051808303815f875af1158015610b50573d5f803e3d5ffd5b505050506040513d601f19601f82011682018060405250810190610b749190612603565b6001600160e01b03191614155b15610b9f57604051633da6393160e01b815260040160405180910390fd5b50505050565b610bad6112e4565b610bb7828261135f565b5050565b6060610bc682611757565b604051602001610bd6919061261e565b6040516020818303038152906040529050919050565b42841015610c0d576040516305787bdf60e01b815260040160405180910390fd5b610c16856111f1565b15610c34576040516303e7c1bd60e31b815260040160405180910390fd5b6001600160a01b038616610c5b57604051635461585f60e01b815260040160405180910390fd5b5f6001610c6661075e565b6001600160a01b038a81165f818152600e602090815260409182902080546001810190915582517f6e71edae12b1b97f4d1f60370fef10105fa2faae0126114a169c64845d6126c98184015280840194909452938d166060840152608083018c905260a083019390935260c08083018b90528151808403909101815260e08301909152805192019190912061190160f01b6101008301526101028201929092526101228101919091526101420160408051601f1981840301815282825280516020918201205f84529083018083525260ff871690820152606081018590526080810184905260a0016020604051602081039080840390855afa158015610d6e573d5f803e3d5ffd5b5050604051601f1901519150506001600160a01b0381161580610da35750876001600160a01b0316816001600160a01b031614155b15610dc157604051632057875960e21b815260040160405180910390fd5b6001600160a01b039081165f9081526008602090815260408083208a8516808552908352928190208990555188815291928a16917f8c5be1e5ebec7d5bd14f71427d1e84f3dd0314c0f7b2291e5b200ac8c7c3b925910160405180910390a350505050505050565b5f6001600160a01b038416610e5157604051636edaef2f60e11b815260040160405180910390fd5b6001600160a01b038316610e7857604051634e46966960e11b815260040160405180910390fd5b6001600160a01b0384165f9081526008602090815260408083203384529091529020545f198114610ed157610ead8382612662565b6001600160a01b0386165f9081526008602090815260408083203384529091529020555b610edc8585856113cd565b95945050505050565b6001600160a01b038316610f0c57604051636edaef2f60e11b815260040160405180910390fd5b6001600160a01b038216610f3357604051634e46966960e11b815260040160405180910390fd5b5f818152600b60205260409020546001600160a01b03848116911614610f6b576040516282b42960e81b815260040160405180910390fd5b336001600160a01b03841614801590610fa757506001600160a01b0383165f908152600a6020908152604080832033845290915290205460ff16155b8015610fc957505f818152600960205260409020546001600160a01b03163314155b15610fe6576040516282b42960e81b815260040160405180910390fd5b610fef826106f2565b1561100d57604051635ce7539760e01b815260040160405180910390fd5b61103883837f00000000000000000000000000000000000000000000000000000000000000006117e6565b6107cd83838361189f565b5f818152600b60205260409020546001600160a01b031633811480159061108d57506001600160a01b0381165f908152600a6020908152604080832033845290915290205460ff16155b156110aa576040516282b42960e81b815260040160405180910390fd5b5f8281526009602052604080822080546001600160a01b0319166001600160a01b0387811691821790925591518593918516917f8c5be1e5ebec7d5bd14f71427d1e84f3dd0314c0f7b2291e5b200ac8c7c3b92591a4505050565b61110d6112e4565b6001600160a01b03811661113b57604051631e4fbdf760e01b81525f60048201526024015b60405180910390fd5b6108e381611310565b60605f826001600160401b0381111561115f5761115f6123b7565b604051908082528060200260200182016040528015611188578160200160208202803683370190505b509050835b61119784866125b4565b8110156111e9576111a9600182611af6565b6111bb9061ffff16600160ff1b6125b4565b826111c68784612662565b815181106111d6576111d661258c565b602090810291909101015260010161118d565b509392505050565b5f600160ff1b821180156106185750505f19141590565b54600f196001600160401b038083166010908102600160401b850483168203600160c01b8604841601600160801b90950483169091029390930192909203011690565b5f7f8b73c3c69bb8fe3d512ecc4cf759cc79239f7b179b0ffacaa9a75d522b39400f600360405161127c9190612675565b6040805191829003822060208301939093528101919091527fc89efdaa54c0f20c7adf612882df0950f5a951637e0307cdcb4c672f298b8bc660608201524660808201523060a082015260c00160405160208183030381529060405280519060200120905090565b5f546001600160a01b031633146108d75760405163118cdaa760e01b8152336004820152602401611132565b5f80546001600160a01b038381166001600160a01b0319831681178455604051919092169283917f8be0079c531659141344cd1fd0a4f28419497f9722a3daafe3b4186f6b6457e09190a35050565b6001600160a01b0382166113865760405163a41e3d3f60e01b815260040160405180910390fd5b801561139a5761139582611ba5565b6113a3565b6113a382611bd8565b6001600160a01b03919091165f908152600d60205260409020805460ff1916911515919091179055565b6001600160a01b038381165f908152600760205260408082205492851682528120549091906113fd8686866117e6565b5f611407876106f2565b90505f611413876106f2565b905081801561141f5750805b6117495781156114c5575f6114547f000000000000000000000000000000000000000000000000000000000000000085612725565b6001600160a01b0389165f90815260076020526040902054611497907f000000000000000000000000000000000000000000000000000000000000000090612725565b6114a19190612662565b90505f5b818110156114be576114b689611c62565b6001016114a5565b5050611749565b801561155f576001600160a01b0388165f9081526007602052604081205461150e907f000000000000000000000000000000000000000000000000000000000000000090612725565b6115387f000000000000000000000000000000000000000000000000000000000000000087612725565b6115429190612662565b90505f5b818110156114be576115578a611d45565b600101611546565b5f61158a7f000000000000000000000000000000000000000000000000000000000000000088612725565b90505f5b8181101561162c576001600160a01b038a165f908152600c60205260408120546115ba90600190612662565b6001600160a01b038c165f908152600c6020526040812080549293509091839081106115e8576115e861258c565b5f918252602090912060108204015461161591600f166002026101000a900461ffff16600160ff1b6125b4565b90506116228c8c8361189f565b505060010161158e565b50807f000000000000000000000000000000000000000000000000000000000000000061166d8b6001600160a01b03165f9081526007602052604090205490565b6116779190612725565b6116a17f000000000000000000000000000000000000000000000000000000000000000088612725565b6116ab9190612662565b11156116ba576116ba89611d45565b806116e57f000000000000000000000000000000000000000000000000000000000000000086612725565b7f00000000000000000000000000000000000000000000000000000000000000006117248b6001600160a01b03165f9081526007602052604090205490565b61172e9190612725565b6117389190612662565b11156117475761174788611c62565b505b506001979650505050505050565b60605f61176383611de6565b60010190505f816001600160401b03811115611781576117816123b7565b6040519080825280601f01601f1916602001820160405280156117ab576020820181803683370190505b5090508181016020015b5f19016f181899199a1a9b1b9c1cb0b131b232b360811b600a86061a8153600a85049450846117b557509392505050565b6001600160a01b038316611810578060055f82825461180591906125b4565b9091555061183d9050565b6001600160a01b0383165f9081526007602052604081208054839290611837908490612662565b90915550505b6001600160a01b038083165f81815260076020526040908190208054850190555190918516907fddf252ad1be2c89b69c2b068fc378daa952ba7f163c4a11628f55a4df523b3ef906118929085815260200190565b60405180910390a3505050565b6001600160a01b038316156119fd575f81815260096020908152604080832080546001600160a01b03191690556001600160a01b0386168352600c909152812080546118ed90600190612662565b815481106118fd576118fd61258c565b5f918252602090912060108204015461192a91600f166002026101000a900461ffff16600160ff1b6125b4565b90508181146119ab575f828152600b602052604081205460a01c6001600160a01b0386165f908152600c6020526040902080549192508391839081106119725761197261258c565b905f5260205f2090601091828204019190066002026101000a81548161ffff021916908361ffff1602179055506119a98282611ebd565b505b6001600160a01b0384165f908152600c602052604090208054806119d1576119d1612744565b5f8281526020902060105f1990920191820401805461ffff6002600f8516026101000a02191690559055505b6001600160a01b03821615611aa1575f818152600b6020526040902080546001600160a01b0319166001600160a01b0384160190556001600160a01b0382165f818152600c60209081526040822080546001808201835582855292842060108204018054600f9092166002026101000a61ffff8181021990931692881602919091179055929091529054611a9c918391611a979190612662565b611ebd565b611ab0565b5f818152600b60205260408120555b80826001600160a01b0316846001600160a01b03167fddf252ad1be2c89b69c2b068fc378daa952ba7f163c4a11628f55a4df523b3ef60405160405180910390a4505050565b5f611b0083611208565b611b0b906010612758565b8210611b2a5760405163580821e760e01b815260040160405180910390fd5b610757600184015f601085046010808789546001600160401b03600160401b909104811692909106919091011681611b6457611b64612711565b88549190046001600160401b03808316919091019290920182168352602083019390935260409091015f205491601091600160401b90910416850106611f27565b6001600160a01b0381165f908152600c6020526040812054905b818110156107cd57611bd083611d45565b600101611bbf565b6001600160a01b0381165f90815260076020526040812054611c1b907f000000000000000000000000000000000000000000000000000000000000000090612725565b90505f611c3c836001600160a01b03165f908152600c602052604090205490565b90505f5b611c4a8284612662565b811015610b9f57611c5a84611c62565b600101611c40565b6001600160a01b038116611c8957604051634e46966960e11b815260040160405180910390fd5b5f611c946001611f51565b611cbb57611ca26001611f92565b611cb49061ffff16600160ff1b6125b4565b9050611d04565b60065f8154611cc99061276f565b90915550600654600101611cf05760405163303b682f60e01b815260040160405180910390fd5b600654611d0190600160ff1b6125b4565b90505b5f818152600b60205260409020546001600160a01b03168015611d3a5760405163119b4fd360e11b815260040160405180910390fd5b6107cd81848461189f565b6001600160a01b038116611d6c57604051636edaef2f60e11b815260040160405180910390fd5b6001600160a01b0381165f908152600c602052604081208054611d9190600190612662565b81548110611da157611da161258c565b5f9182526020909120601082040154611dce91600f166002026101000a900461ffff16600160ff1b6125b4565b9050611ddb825f8361189f565b610bb760018261209f565b5f8072184f03e93ff9f4daa797ed6e38ed64bf6a1f0160401b8310611e245772184f03e93ff9f4daa797ed6e38ed64bf6a1f0160401b830492506040015b6d04ee2d6d415b85acef81000000008310611e50576d04ee2d6d415b85acef8100000000830492506020015b662386f26fc100008310611e6e57662386f26fc10000830492506010015b6305f5e1008310611e86576305f5e100830492506008015b6127108310611e9a57612710830492506004015b60648310611eac576064830492506002015b600a83106106185760010192915050565b5f828152600b60205260409020546bffffffffffffffffffffffff821115611ef857604051633f2cd0e360e21b815260040160405180910390fd5b5f928352600b60205260409092206001600160a01b039290921660a09190911b6001600160a01b031916019055565b5f611f33826010612787565b6001600160401b0316611f458361218a565b8416901c905092915050565b80545f90600160c01b81046001600160401b03908116600160401b90920416148015610618575050546001600160401b03808216600160801b909204161490565b80545f906001600160401b03600160801b8204811691600160c01b81048216911682148015611fd4575083546001600160401b03828116600160401b90920416145b15611ff2576040516375e52f4f60e01b815260040160405180910390fd5b806001600160401b03165f0361200d57505f1901600f612011565b5f19015b6001600160401b0382165f9081526001850160205260409020546120358183611f27565b935061204281835f6121ab565b6001600160401b039384165f81815260018801602052604090209190915585546fffffffffffffffffffffffffffffffff16600160801b9091026001600160c01b031617600160c01b929093169190910291909117909255919050565b81546001600160401b0380821691600160401b9004165f8190036120c857505f1901600f6120cc565b5f19015b83546001600160401b03838116600160801b90920416148015612102575083546001600160401b03828116600160c01b90920416145b1561212057604051638acb5f2760e01b815260040160405180910390fd5b6001600160401b0382165f9081526001850160205260409020546121459082856121ab565b6001600160401b039283165f81815260018701602052604090209190915584546fffffffffffffffffffffffffffffffff191617600160401b91909216021790915550565b5f612196826010612787565b6001600160401b031661ffff901b9050919050565b5f6121b7836010612787565b6001600160401b03168261ffff16901b6121d08461218a565b1985166121dd91906125b4565b949350505050565b6001600160e01b0319811681146108e3575f80fd5b5f6020828403121561220a575f80fd5b8135610757816121e5565b80356001600160a01b03811681146108c1575f80fd5b5f6020828403121561223b575f80fd5b61075782612215565b5f5b8381101561225e578181015183820152602001612246565b50505f910152565b5f815180845261227d816020860160208601612244565b601f01601f19169290920160200192915050565b602081525f6107576020830184612266565b5f602082840312156122b3575f80fd5b5035919050565b5f80604083850312156122cb575f80fd5b6122d483612215565b946020939093013593505050565b5f805f606084860312156122f4575f80fd5b6122fd84612215565b925061230b60208501612215565b9150604084013590509250925092565b803580151581146108c1575f80fd5b5f6020828403121561233a575f80fd5b6107578261231b565b5f8060408385031215612354575f80fd5b61235d83612215565b915061236b6020840161231b565b90509250929050565b602080825282518282018190525f9190848201906040850190845b818110156123ab5783518352928401929184019160010161238f565b50909695505050505050565b634e487b7160e01b5f52604160045260245ffd5b5f805f80608085870312156123de575f80fd5b6123e785612215565b93506123f560208601612215565b92506040850135915060608501356001600160401b0380821115612417575f80fd5b818701915087601f83011261242a575f80fd5b81358181111561243c5761243c6123b7565b604051601f8201601f19908116603f01168101908382118183101715612464576124646123b7565b816040528281528a602084870101111561247c575f80fd5b826020860160208301375f60208483010152809550505050505092959194509250565b5f805f805f805f60e0888a0312156124b5575f80fd5b6124be88612215565b96506124cc60208901612215565b95506040880135945060608801359350608088013560ff811681146124ef575f80fd5b9699959850939692959460a0840135945060c09093013592915050565b5f806040838503121561251d575f80fd5b61252683612215565b915061236b60208401612215565b5f8060408385031215612545575f80fd5b50508035926020909101359150565b600181811c9082168061256857607f821691505b60208210810361258657634e487b7160e01b5f52602260045260245ffd5b50919050565b634e487b7160e01b5f52603260045260245ffd5b634e487b7160e01b5f52601160045260245ffd5b80820180821115610618576106186125a0565b6001600160a01b03858116825284166020820152604081018390526080606082018190525f906125f990830184612266565b9695505050505050565b5f60208284031215612613575f80fd5b8151610757816121e5565b7f68747470733a2f2f6578616d706c652e636f6d2f746f6b656e2f00000000000081525f825161265581601a850160208701612244565b91909101601a0192915050565b81810381811115610618576106186125a0565b5f80835481600182811c91508083168061269057607f831692505b602080841082036126af57634e487b7160e01b86526022600452602486fd5b8180156126c357600181146126d857612703565b60ff1986168952841515850289019650612703565b5f8a8152602090205f5b868110156126fb5781548b8201529085019083016126e2565b505084890196505b509498975050505050505050565b634e487b7160e01b5f52601260045260245ffd5b5f8261273f57634e487b7160e01b5f52601260045260245ffd5b500490565b634e487b7160e01b5f52603160045260245ffd5b8082028115828204841417610618576106186125a0565b5f60018201612780576127806125a0565b5060010190565b6001600160401b038181168382160280821691908281146127aa576127aa6125a0565b50509291505056fea264697066735822122099089aab0cff3981c9280a854be6b7b60049f25d7d13a8691a448b7c03e6203764736f6c63430008140033ddf252ad1be2c89b69c2b068fc378daa952ba7f163c4a11628f55a4df523b3ef",
			"opcodes": "PUSH2 0x100 PUSH1 0x40 MSTORE CALLVALUE DUP1 ISZERO PUSH3 0x11 JUMPI PUSH0 DUP1 REVERT JUMPDEST POP PUSH1 0x40 MLOAD PUSH3 0x3C68 CODESIZE SUB DUP1 PUSH3 0x3C68 DUP4 CODECOPY DUP2 ADD PUSH1 0x40 DUP2 SWAP1 MSTORE PUSH3 0x34 SWAP2 PUSH3 0xF6C JUMP JUMPDEST DUP6 DUP6 DUP6 DUP5 PUSH1 0x1 PUSH1 0x1 PUSH1 0xA0 SHL SUB DUP2 AND PUSH3 0x66 JUMPI PUSH1 0x40 MLOAD PUSH4 0x1E4FBDF7 PUSH1 0xE0 SHL DUP2 MSTORE PUSH0 PUSH1 0x4 DUP3 ADD MSTORE PUSH1 0x24 ADD PUSH1 0x40 MLOAD DUP1 SWAP2 SUB SWAP1 REVERT JUMPDEST PUSH3 0x71 DUP2 PUSH3 0x119 JUMP JUMPDEST POP PUSH1 0x3 PUSH3 0x80 DUP5 DUP3 PUSH3 0x10A2 JUMP JUMPDEST POP PUSH1 0x4 PUSH3 0x8F DUP4 DUP3 PUSH3 0x10A2 JUMP JUMPDEST POP PUSH1 0x12 DUP2 PUSH1 0xFF AND LT ISZERO PUSH3 0xB6 JUMPI PUSH1 0x40 MLOAD PUSH4 0x98790FD5 PUSH1 0xE0 SHL DUP2 MSTORE PUSH1 0x4 ADD PUSH1 0x40 MLOAD DUP1 SWAP2 SUB SWAP1 REVERT JUMPDEST PUSH1 0xFF DUP2 AND PUSH1 0x80 DUP2 SWAP1 MSTORE PUSH3 0xCC SWAP1 PUSH1 0xA PUSH3 0x1277 JUMP JUMPDEST PUSH1 0xA0 MSTORE CHAINID PUSH1 0xC0 MSTORE PUSH3 0xDD PUSH3 0x168 JUMP JUMPDEST PUSH1 0xE0 MSTORE POP PUSH3 0xF2 SWAP2 POP DUP3 SWAP1 POP PUSH1 0x1 PUSH3 0x203 JUMP JUMPDEST PUSH3 0x10D DUP2 PUSH1 0xA0 MLOAD DUP6 PUSH3 0x107 SWAP2 SWAP1 PUSH3 0x128E JUMP JUMPDEST PUSH3 0x278 JUMP JUMPDEST POP POP POP POP POP POP PUSH3 0x13DF JUMP JUMPDEST PUSH0 DUP1 SLOAD PUSH1 0x1 PUSH1 0x1 PUSH1 0xA0 SHL SUB DUP4 DUP2 AND PUSH1 0x1 PUSH1 0x1 PUSH1 0xA0 SHL SUB NOT DUP4 AND DUP2 OR DUP5 SSTORE PUSH1 0x40 MLOAD SWAP2 SWAP1 SWAP3 AND SWAP3 DUP4 SWAP2 PUSH32 0x8BE0079C531659141344CD1FD0A4F28419497F9722A3DAAFE3B4186F6B6457E0 SWAP2 SWAP1 LOG3 POP POP JUMP JUMPDEST PUSH0 PUSH32 0x8B73C3C69BB8FE3D512ECC4CF759CC79239F7B179B0FFACAA9A75D522B39400F PUSH1 0x3 PUSH1 0x40 MLOAD PUSH3 0x19B SWAP2 SWAP1 PUSH3 0x12A8 JUMP JUMPDEST PUSH1 0x40 DUP1 MLOAD SWAP2 DUP3 SWAP1 SUB DUP3 KECCAK256 PUSH1 0x20 DUP4 ADD SWAP4 SWAP1 SWAP4 MSTORE DUP2 ADD SWAP2 SWAP1 SWAP2 MSTORE PUSH32 0xC89EFDAA54C0F20C7ADF612882DF0950F5A951637E0307CDCB4C672F298B8BC6 PUSH1 0x60 DUP3 ADD MSTORE CHAINID PUSH1 0x80 DUP3 ADD MSTORE ADDRESS PUSH1 0xA0 DUP3 ADD MSTORE PUSH1 0xC0 ADD PUSH1 0x40 MLOAD PUSH1 0x20 DUP2 DUP4 SUB SUB DUP2 MSTORE SWAP1 PUSH1 0x40 MSTORE DUP1 MLOAD SWAP1 PUSH1 0x20 ADD KECCAK256 SWAP1 POP SWAP1 JUMP JUMPDEST PUSH1 0x1 PUSH1 0x1 PUSH1 0xA0 SHL SUB DUP3 AND PUSH3 0x22B JUMPI PUSH1 0x40 MLOAD PUSH4 0xA41E3D3F PUSH1 0xE0 SHL DUP2 MSTORE PUSH1 0x4 ADD PUSH1 0x40 MLOAD DUP1 SWAP2 SUB SWAP1 REVERT JUMPDEST DUP1 ISZERO PUSH3 0x243 JUMPI PUSH3 0x23D DUP3 PUSH3 0x2E7 JUMP JUMPDEST PUSH3 0x24E JUMP JUMPDEST PUSH3 0x24E DUP3 PUSH3 0x31E JUMP JUMPDEST PUSH1 0x1 PUSH1 0x1 PUSH1 0xA0 SHL SUB SWAP2 SWAP1 SWAP2 AND PUSH0 SWAP1 DUP2 MSTORE PUSH1 0xD PUSH1 0x20 MSTORE PUSH1 0x40 SWAP1 KECCAK256 DUP1 SLOAD PUSH1 0xFF NOT AND SWAP2 ISZERO ISZERO SWAP2 SWAP1 SWAP2 OR SWAP1 SSTORE JUMP JUMPDEST PUSH1 0x1 PUSH1 0x1 PUSH1 0xA0 SHL SUB DUP3 AND PUSH3 0x2A0 JUMPI PUSH1 0x40 MLOAD PUSH4 0x4E469669 PUSH1 0xE1 SHL DUP2 MSTORE PUSH1 0x4 ADD PUSH1 0x40 MLOAD DUP1 SWAP2 SUB SWAP1 REVERT JUMPDEST PUSH1 0x1 PUSH1 0xFF SHL DUP2 PUSH1 0x5 SLOAD PUSH3 0x2B5 SWAP2 SWAP1 PUSH3 0x1322 JUMP JUMPDEST GT ISZERO PUSH3 0x2D5 JUMPI PUSH1 0x40 MLOAD PUSH4 0x303B682F PUSH1 0xE0 SHL DUP2 MSTORE PUSH1 0x4 ADD PUSH1 0x40 MLOAD DUP1 SWAP2 SUB SWAP1 REVERT JUMPDEST PUSH3 0x2E2 PUSH0 DUP4 DUP4 PUSH3 0x3A2 JUMP JUMPDEST POP POP POP JUMP JUMPDEST PUSH1 0x1 PUSH1 0x1 PUSH1 0xA0 SHL SUB DUP2 AND PUSH0 SWAP1 DUP2 MSTORE PUSH1 0xC PUSH1 0x20 MSTORE PUSH1 0x40 DUP2 KECCAK256 SLOAD SWAP1 JUMPDEST DUP2 DUP2 LT ISZERO PUSH3 0x2E2 JUMPI PUSH3 0x315 DUP4 PUSH3 0x661 JUMP JUMPDEST PUSH1 0x1 ADD PUSH3 0x301 JUMP JUMPDEST PUSH1 0xA0 MLOAD PUSH0 SWAP1 PUSH3 0x342 DUP4 PUSH1 0x1 PUSH1 0x1 PUSH1 0xA0 SHL SUB AND PUSH0 SWAP1 DUP2 MSTORE PUSH1 0x7 PUSH1 0x20 MSTORE PUSH1 0x40 SWAP1 KECCAK256 SLOAD SWAP1 JUMP JUMPDEST PUSH3 0x34E SWAP2 SWAP1 PUSH3 0x1338 JUMP JUMPDEST SWAP1 POP PUSH0 PUSH3 0x370 DUP4 PUSH1 0x1 PUSH1 0x1 PUSH1 0xA0 SHL SUB AND PUSH0 SWAP1 DUP2 MSTORE PUSH1 0xC PUSH1 0x20 MSTORE PUSH1 0x40 SWAP1 KECCAK256 SLOAD SWAP1 JUMP JUMPDEST SWAP1 POP PUSH0 JUMPDEST PUSH3 0x380 DUP3 DUP5 PUSH3 0x1358 JUMP JUMPDEST DUP2 LT ISZERO PUSH3 0x39C JUMPI PUSH3 0x393 DUP5 PUSH3 0x712 JUMP JUMPDEST PUSH1 0x1 ADD PUSH3 0x374 JUMP JUMPDEST POP POP POP POP JUMP JUMPDEST PUSH1 0x1 PUSH1 0x1 PUSH1 0xA0 SHL SUB DUP4 DUP2 AND PUSH0 SWAP1 DUP2 MSTORE PUSH1 0x7 PUSH1 0x20 MSTORE PUSH1 0x40 DUP1 DUP3 KECCAK256 SLOAD SWAP3 DUP6 AND DUP3 MSTORE DUP2 KECCAK256 SLOAD SWAP1 SWAP2 SWAP1 PUSH3 0x3D4 DUP7 DUP7 DUP7 PUSH3 0x806 JUMP JUMPDEST PUSH0 PUSH3 0x3E0 DUP8 PUSH3 0x8B4 JUMP JUMPDEST SWAP1 POP PUSH0 PUSH3 0x3EE DUP8 PUSH3 0x8B4 JUMP JUMPDEST SWAP1 POP DUP2 DUP1 ISZERO PUSH3 0x3FB JUMPI POP DUP1 JUMPDEST PUSH3 0x653 JUMPI DUP2 ISZERO PUSH3 0x474 JUMPI PUSH0 PUSH1 0xA0 MLOAD DUP5 PUSH3 0x418 SWAP2 SWAP1 PUSH3 0x1338 JUMP JUMPDEST PUSH1 0xA0 MLOAD PUSH1 0x1 PUSH1 0x1 PUSH1 0xA0 SHL SUB DUP11 AND PUSH0 SWAP1 DUP2 MSTORE PUSH1 0x7 PUSH1 0x20 MSTORE PUSH1 0x40 SWAP1 KECCAK256 SLOAD PUSH3 0x43F SWAP2 SWAP1 PUSH3 0x1338 JUMP JUMPDEST PUSH3 0x44B SWAP2 SWAP1 PUSH3 0x1358 JUMP JUMPDEST SWAP1 POP PUSH0 JUMPDEST DUP2 DUP2 LT ISZERO PUSH3 0x46C JUMPI PUSH3 0x463 DUP10 PUSH3 0x712 JUMP JUMPDEST PUSH1 0x1 ADD PUSH3 0x44F JUMP JUMPDEST POP POP PUSH3 0x653 JUMP JUMPDEST DUP1 ISZERO PUSH3 0x4DF JUMPI PUSH1 0xA0 MLOAD PUSH1 0x1 PUSH1 0x1 PUSH1 0xA0 SHL SUB DUP10 AND PUSH0 SWAP1 DUP2 MSTORE PUSH1 0x7 PUSH1 0x20 MSTORE PUSH1 0x40 DUP2 KECCAK256 SLOAD SWAP1 SWAP2 PUSH3 0x4A3 SWAP2 PUSH3 0x1338 JUMP JUMPDEST PUSH1 0xA0 MLOAD PUSH3 0x4B2 SWAP1 DUP8 PUSH3 0x1338 JUMP JUMPDEST PUSH3 0x4BE SWAP2 SWAP1 PUSH3 0x1358 JUMP JUMPDEST SWAP1 POP PUSH0 JUMPDEST DUP2 DUP2 LT ISZERO PUSH3 0x46C JUMPI PUSH3 0x4D6 DUP11 PUSH3 0x661 JUMP JUMPDEST PUSH1 0x1 ADD PUSH3 0x4C2 JUMP JUMPDEST PUSH0 PUSH1 0xA0 MLOAD DUP8 PUSH3 0x4F0 SWAP2 SWAP1 PUSH3 0x1338 JUMP JUMPDEST SWAP1 POP PUSH0 JUMPDEST DUP2 DUP2 LT ISZERO PUSH3 0x59D JUMPI PUSH1 0x1 PUSH1 0x1 PUSH1 0xA0 SHL SUB DUP11 AND PUSH0 SWAP1 DUP2 MSTORE PUSH1 0xC PUSH1 0x20 MSTORE PUSH1 0x40 DUP2 KECCAK256 SLOAD PUSH3 0x523 SWAP1 PUSH1 0x1 SWAP1 PUSH3 0x1358 JUMP JUMPDEST PUSH1 0x1 PUSH1 0x1 PUSH1 0xA0 SHL SUB DUP13 AND PUSH0 SWAP1 DUP2 MSTORE PUSH1 0xC PUSH1 0x20 MSTORE PUSH1 0x40 DUP2 KECCAK256 DUP1 SLOAD SWAP3 SWAP4 POP SWAP1 SWAP2 DUP4 SWAP1 DUP2 LT PUSH3 0x554 JUMPI PUSH3 0x554 PUSH3 0x136E JUMP JUMPDEST PUSH0 SWAP2 DUP3 MSTORE PUSH1 0x20 SWAP1 SWAP2 KECCAK256 PUSH1 0x10 DUP3 DIV ADD SLOAD PUSH3 0x583 SWAP2 PUSH1 0xF AND PUSH1 0x2 MUL PUSH2 0x100 EXP SWAP1 DIV PUSH2 0xFFFF AND PUSH1 0x1 PUSH1 0xFF SHL PUSH3 0x1322 JUMP JUMPDEST SWAP1 POP PUSH3 0x592 DUP13 DUP13 DUP4 PUSH3 0x8E9 JUMP JUMPDEST POP POP PUSH1 0x1 ADD PUSH3 0x4F4 JUMP JUMPDEST POP PUSH1 0xA0 MLOAD DUP2 SWAP1 PUSH3 0x5C2 DUP12 PUSH1 0x1 PUSH1 0x1 PUSH1 0xA0 SHL SUB AND PUSH0 SWAP1 DUP2 MSTORE PUSH1 0x7 PUSH1 0x20 MSTORE PUSH1 0x40 SWAP1 KECCAK256 SLOAD SWAP1 JUMP JUMPDEST PUSH3 0x5CE SWAP2 SWAP1 PUSH3 0x1338 JUMP JUMPDEST PUSH1 0xA0 MLOAD PUSH3 0x5DD SWAP1 DUP9 PUSH3 0x1338 JUMP JUMPDEST PUSH3 0x5E9 SWAP2 SWAP1 PUSH3 0x1358 JUMP JUMPDEST GT ISZERO PUSH3 0x5FB JUMPI PUSH3 0x5FB DUP10 PUSH3 0x661 JUMP JUMPDEST DUP1 PUSH1 0xA0 MLOAD DUP6 PUSH3 0x60C SWAP2 SWAP1 PUSH3 0x1338 JUMP JUMPDEST PUSH1 0xA0 MLOAD PUSH1 0x1 PUSH1 0x1 PUSH1 0xA0 SHL SUB DUP12 AND PUSH0 SWAP1 DUP2 MSTORE PUSH1 0x7 PUSH1 0x20 MSTORE PUSH1 0x40 SWAP1 KECCAK256 SLOAD PUSH3 0x633 SWAP2 SWAP1 PUSH3 0x1338 JUMP JUMPDEST PUSH3 0x63F SWAP2 SWAP1 PUSH3 0x1358 JUMP JUMPDEST GT ISZERO PUSH3 0x651 JUMPI PUSH3 0x651 DUP9 PUSH3 0x712 JUMP JUMPDEST POP JUMPDEST POP PUSH1 0x1 SWAP8 SWAP7 POP POP POP POP POP POP POP JUMP JUMPDEST PUSH1 0x1 PUSH1 0x1 PUSH1 0xA0 SHL SUB DUP2 AND PUSH3 0x689 JUMPI PUSH1 0x40 MLOAD PUSH4 0x6EDAEF2F PUSH1 0xE1 SHL DUP2 MSTORE PUSH1 0x4 ADD PUSH1 0x40 MLOAD DUP1 SWAP2 SUB SWAP1 REVERT JUMPDEST PUSH1 0x1 PUSH1 0x1 PUSH1 0xA0 SHL SUB DUP2 AND PUSH0 SWAP1 DUP2 MSTORE PUSH1 0xC PUSH1 0x20 MSTORE PUSH1 0x40 DUP2 KECCAK256 DUP1 SLOAD PUSH3 0x6B0 SWAP1 PUSH1 0x1 SWAP1 PUSH3 0x1358 JUMP JUMPDEST DUP2 SLOAD DUP2 LT PUSH3 0x6C3 JUMPI PUSH3 0x6C3 PUSH3 0x136E JUMP JUMPDEST PUSH0 SWAP2 DUP3 MSTORE PUSH1 0x20 SWAP1 SWAP2 KECCAK256 PUSH1 0x10 DUP3 DIV ADD SLOAD PUSH3 0x6F2 SWAP2 PUSH1 0xF AND PUSH1 0x2 MUL PUSH2 0x100 EXP SWAP1 DIV PUSH2 0xFFFF AND PUSH1 0x1 PUSH1 0xFF SHL PUSH3 0x1322 JUMP JUMPDEST SWAP1 POP PUSH3 0x701 DUP3 PUSH0 DUP4 PUSH3 0x8E9 JUMP JUMPDEST PUSH3 0x70E PUSH1 0x1 DUP3 PUSH3 0xB4B JUMP JUMPDEST POP POP JUMP JUMPDEST PUSH1 0x1 PUSH1 0x1 PUSH1 0xA0 SHL SUB DUP2 AND PUSH3 0x73A JUMPI PUSH1 0x40 MLOAD PUSH4 0x4E469669 PUSH1 0xE1 SHL DUP2 MSTORE PUSH1 0x4 ADD PUSH1 0x40 MLOAD DUP1 SWAP2 SUB SWAP1 REVERT JUMPDEST PUSH0 PUSH3 0x747 PUSH1 0x1 PUSH3 0xC3D JUMP JUMPDEST PUSH3 0x774 JUMPI PUSH3 0x758 PUSH1 0x1 PUSH3 0xC84 JUMP JUMPDEST PUSH3 0x76C SWAP1 PUSH2 0xFFFF AND PUSH1 0x1 PUSH1 0xFF SHL PUSH3 0x1322 JUMP JUMPDEST SWAP1 POP PUSH3 0x7C2 JUMP JUMPDEST PUSH1 0x6 PUSH0 DUP2 SLOAD PUSH3 0x784 SWAP1 PUSH3 0x1382 JUMP JUMPDEST SWAP1 SWAP2 SSTORE POP PUSH1 0x6 SLOAD PUSH1 0x1 ADD PUSH3 0x7AC JUMPI PUSH1 0x40 MLOAD PUSH4 0x303B682F PUSH1 0xE0 SHL DUP2 MSTORE PUSH1 0x4 ADD PUSH1 0x40 MLOAD DUP1 SWAP2 SUB SWAP1 REVERT JUMPDEST PUSH1 0x6 SLOAD PUSH3 0x7BF SWAP1 PUSH1 0x1 PUSH1 0xFF SHL PUSH3 0x1322 JUMP JUMPDEST SWAP1 POP JUMPDEST PUSH0 DUP2 DUP2 MSTORE PUSH1 0xB PUSH1 0x20 MSTORE PUSH1 0x40 SWAP1 KECCAK256 SLOAD PUSH1 0x1 PUSH1 0x1 PUSH1 0xA0 SHL SUB AND DUP1 ISZERO PUSH3 0x7F9 JUMPI PUSH1 0x40 MLOAD PUSH4 0x119B4FD3 PUSH1 0xE1 SHL DUP2 MSTORE PUSH1 0x4 ADD PUSH1 0x40 MLOAD DUP1 SWAP2 SUB SWAP1 REVERT JUMPDEST PUSH3 0x2E2 DUP2 DUP5 DUP5 PUSH3 0x8E9 JUMP JUMPDEST PUSH1 0x1 PUSH1 0x1 PUSH1 0xA0 SHL SUB DUP4 AND PUSH3 0x834 JUMPI DUP1 PUSH1 0x5 PUSH0 DUP3 DUP3 SLOAD PUSH3 0x828 SWAP2 SWAP1 PUSH3 0x1322 JUMP JUMPDEST SWAP1 SWAP2 SSTORE POP PUSH3 0x863 SWAP1 POP JUMP JUMPDEST PUSH1 0x1 PUSH1 0x1 PUSH1 0xA0 SHL SUB DUP4 AND PUSH0 SWAP1 DUP2 MSTORE PUSH1 0x7 PUSH1 0x20 MSTORE PUSH1 0x40 DUP2 KECCAK256 DUP1 SLOAD DUP4 SWAP3 SWAP1 PUSH3 0x85D SWAP1 DUP5 SWAP1 PUSH3 0x1358 JUMP JUMPDEST SWAP1 SWAP2 SSTORE POP POP JUMPDEST PUSH1 0x1 PUSH1 0x1 PUSH1 0xA0 SHL SUB DUP1 DUP4 AND PUSH0 DUP2 DUP2 MSTORE PUSH1 0x7 PUSH1 0x20 MSTORE PUSH1 0x40 SWAP1 DUP2 SWAP1 KECCAK256 DUP1 SLOAD DUP6 ADD SWAP1 SSTORE MLOAD SWAP1 SWAP2 DUP6 AND SWAP1 PUSH0 DUP1 MLOAD PUSH1 0x20 PUSH3 0x3C48 DUP4 CODECOPY DUP2 MLOAD SWAP2 MSTORE SWAP1 PUSH3 0x8A7 SWAP1 DUP6 DUP2 MSTORE PUSH1 0x20 ADD SWAP1 JUMP JUMPDEST PUSH1 0x40 MLOAD DUP1 SWAP2 SUB SWAP1 LOG3 POP POP POP JUMP JUMPDEST PUSH0 PUSH1 0x1 PUSH1 0x1 PUSH1 0xA0 SHL SUB DUP3 AND ISZERO DUP1 PUSH3 0x8E3 JUMPI POP PUSH1 0x1 PUSH1 0x1 PUSH1 0xA0 SHL SUB DUP3 AND PUSH0 SWAP1 DUP2 MSTORE PUSH1 0xD PUSH1 0x20 MSTORE PUSH1 0x40 SWAP1 KECCAK256 SLOAD PUSH1 0xFF AND JUMPDEST SWAP3 SWAP2 POP POP JUMP JUMPDEST PUSH1 0x1 PUSH1 0x1 PUSH1 0xA0 SHL SUB DUP4 AND ISZERO PUSH3 0xA5E JUMPI PUSH0 DUP2 DUP2 MSTORE PUSH1 0x9 PUSH1 0x20 SWAP1 DUP2 MSTORE PUSH1 0x40 DUP1 DUP4 KECCAK256 DUP1 SLOAD PUSH1 0x1 PUSH1 0x1 PUSH1 0xA0 SHL SUB NOT AND SWAP1 SSTORE PUSH1 0x1 PUSH1 0x1 PUSH1 0xA0 SHL SUB DUP7 AND DUP4 MSTORE PUSH1 0xC SWAP1 SWAP2 MSTORE DUP2 KECCAK256 DUP1 SLOAD PUSH3 0x93A SWAP1 PUSH1 0x1 SWAP1 PUSH3 0x1358 JUMP JUMPDEST DUP2 SLOAD DUP2 LT PUSH3 0x94D JUMPI PUSH3 0x94D PUSH3 0x136E JUMP JUMPDEST PUSH0 SWAP2 DUP3 MSTORE PUSH1 0x20 SWAP1 SWAP2 KECCAK256 PUSH1 0x10 DUP3 DIV ADD SLOAD PUSH3 0x97C SWAP2 PUSH1 0xF AND PUSH1 0x2 MUL PUSH2 0x100 EXP SWAP1 DIV PUSH2 0xFFFF AND PUSH1 0x1 PUSH1 0xFF SHL PUSH3 0x1322 JUMP JUMPDEST SWAP1 POP DUP2 DUP2 EQ PUSH3 0xA09 JUMPI PUSH0 DUP3 DUP2 MSTORE PUSH1 0xB PUSH1 0x20 MSTORE PUSH1 0x40 DUP2 KECCAK256 SLOAD PUSH1 0xA0 SHR PUSH1 0x1 PUSH1 0x1 PUSH1 0xA0 SHL SUB DUP7 AND PUSH0 SWAP1 DUP2 MSTORE PUSH1 0xC PUSH1 0x20 MSTORE PUSH1 0x40 SWAP1 KECCAK256 DUP1 SLOAD SWAP2 SWAP3 POP DUP4 SWAP2 DUP4 SWAP1 DUP2 LT PUSH3 0x9C8 JUMPI PUSH3 0x9C8 PUSH3 0x136E JUMP JUMPDEST SWAP1 PUSH0 MSTORE PUSH1 0x20 PUSH0 KECCAK256 SWAP1 PUSH1 0x10 SWAP2 DUP3 DUP3 DIV ADD SWAP2 SWAP1 MOD PUSH1 0x2 MUL PUSH2 0x100 EXP DUP2 SLOAD DUP2 PUSH2 0xFFFF MUL NOT AND SWAP1 DUP4 PUSH2 0xFFFF AND MUL OR SWAP1 SSTORE POP PUSH3 0xA07 DUP3 DUP3 PUSH3 0xD95 PUSH1 0x20 SHL PUSH1 0x20 SHR JUMP JUMPDEST POP JUMPDEST PUSH1 0x1 PUSH1 0x1 PUSH1 0xA0 SHL SUB DUP5 AND PUSH0 SWAP1 DUP2 MSTORE PUSH1 0xC PUSH1 0x20 MSTORE PUSH1 0x40 SWAP1 KECCAK256 DUP1 SLOAD DUP1 PUSH3 0xA32 JUMPI PUSH3 0xA32 PUSH3 0x139D JUMP JUMPDEST PUSH0 DUP3 DUP2 MSTORE PUSH1 0x20 SWAP1 KECCAK256 PUSH1 0x10 PUSH0 NOT SWAP1 SWAP3 ADD SWAP2 DUP3 DIV ADD DUP1 SLOAD PUSH2 0xFFFF PUSH1 0x2 PUSH1 0xF DUP6 AND MUL PUSH2 0x100 EXP MUL NOT AND SWAP1 SSTORE SWAP1 SSTORE POP JUMPDEST PUSH1 0x1 PUSH1 0x1 PUSH1 0xA0 SHL SUB DUP3 AND ISZERO PUSH3 0xB08 JUMPI PUSH0 DUP2 DUP2 MSTORE PUSH1 0xB PUSH1 0x20 MSTORE PUSH1 0x40 SWAP1 KECCAK256 DUP1 SLOAD PUSH1 0x1 PUSH1 0x1 PUSH1 0xA0 SHL SUB NOT AND PUSH1 0x1 PUSH1 0x1 PUSH1 0xA0 SHL SUB DUP5 AND ADD SWAP1 SSTORE PUSH1 0x1 PUSH1 0x1 PUSH1 0xA0 SHL SUB DUP3 AND PUSH0 DUP2 DUP2 MSTORE PUSH1 0xC PUSH1 0x20 SWAP1 DUP2 MSTORE PUSH1 0x40 DUP3 KECCAK256 DUP1 SLOAD PUSH1 0x1 DUP1 DUP3 ADD DUP4 SSTORE DUP3 DUP6 MSTORE SWAP3 DUP5 KECCAK256 PUSH1 0x10 DUP3 DIV ADD DUP1 SLOAD PUSH1 0xF SWAP1 SWAP3 AND PUSH1 0x2 MUL PUSH2 0x100 EXP PUSH2 0xFFFF DUP2 DUP2 MUL NOT SWAP1 SWAP4 AND SWAP3 DUP9 AND MUL SWAP2 SWAP1 SWAP2 OR SWAP1 SSTORE SWAP3 SWAP1 SWAP2 MSTORE SWAP1 SLOAD PUSH3 0xB02 SWAP2 DUP4 SWAP2 PUSH3 0xAFC SWAP2 SWAP1 PUSH3 0x1358 JUMP JUMPDEST PUSH3 0xD95 JUMP JUMPDEST PUSH3 0xB17 JUMP JUMPDEST PUSH0 DUP2 DUP2 MSTORE PUSH1 0xB PUSH1 0x20 MSTORE PUSH1 0x40 DUP2 KECCAK256 SSTORE JUMPDEST DUP1 DUP3 PUSH1 0x1 PUSH1 0x1 PUSH1 0xA0 SHL SUB AND DUP5 PUSH1 0x1 PUSH1 0x1 PUSH1 0xA0 SHL SUB AND PUSH0 DUP1 MLOAD PUSH1 0x20 PUSH3 0x3C48 DUP4 CODECOPY DUP2 MLOAD SWAP2 MSTORE PUSH1 0x40 MLOAD PUSH1 0x40 MLOAD DUP1 SWAP2 SUB SWAP1 LOG4 POP POP POP JUMP JUMPDEST DUP2 SLOAD PUSH1 0x1 PUSH1 0x1 PUSH1 0x40 SHL SUB DUP1 DUP3 AND SWAP2 PUSH9 0x10000000000000000 SWAP1 DIV AND PUSH0 DUP2 SWAP1 SUB PUSH3 0xB7B JUMPI POP PUSH0 NOT ADD PUSH1 0xF PUSH3 0xB7F JUMP JUMPDEST PUSH0 NOT ADD JUMPDEST DUP4 SLOAD PUSH1 0x1 PUSH1 0x1 PUSH1 0x40 SHL SUB DUP4 DUP2 AND PUSH1 0x1 PUSH1 0x80 SHL SWAP1 SWAP3 DIV AND EQ DUP1 ISZERO PUSH3 0xBB6 JUMPI POP DUP4 SLOAD PUSH1 0x1 PUSH1 0x1 PUSH1 0x40 SHL SUB DUP3 DUP2 AND PUSH1 0x1 PUSH1 0xC0 SHL SWAP1 SWAP3 DIV AND EQ JUMPDEST ISZERO PUSH3 0xBD5 JUMPI PUSH1 0x40 MLOAD PUSH4 0x8ACB5F27 PUSH1 0xE0 SHL DUP2 MSTORE PUSH1 0x4 ADD PUSH1 0x40 MLOAD DUP1 SWAP2 SUB SWAP1 REVERT JUMPDEST PUSH1 0x1 PUSH1 0x1 PUSH1 0x40 SHL SUB DUP3 AND PUSH0 SWAP1 DUP2 MSTORE PUSH1 0x1 DUP6 ADD PUSH1 0x20 MSTORE PUSH1 0x40 SWAP1 KECCAK256 SLOAD PUSH3 0xBFC SWAP1 DUP3 DUP6 PUSH3 0xDFB JUMP JUMPDEST PUSH1 0x1 PUSH1 0x1 PUSH1 0x40 SHL SUB SWAP3 DUP4 AND PUSH0 DUP2 DUP2 MSTORE PUSH1 0x1 DUP8 ADD PUSH1 0x20 MSTORE PUSH1 0x40 SWAP1 KECCAK256 SWAP2 SWAP1 SWAP2 SSTORE DUP5 SLOAD PUSH1 0x1 PUSH1 0x1 PUSH1 0x80 SHL SUB NOT AND OR PUSH9 0x10000000000000000 SWAP2 SWAP1 SWAP3 AND MUL OR SWAP1 SWAP2 SSTORE POP JUMP JUMPDEST DUP1 SLOAD PUSH0 SWAP1 PUSH1 0x1 PUSH1 0xC0 SHL DUP2 DIV PUSH1 0x1 PUSH1 0x1 PUSH1 0x40 SHL SUB SWAP1 DUP2 AND PUSH9 0x10000000000000000 SWAP1 SWAP3 DIV AND EQ DUP1 ISZERO PUSH3 0x8E3 JUMPI POP POP SLOAD PUSH1 0x1 PUSH1 0x1 PUSH1 0x40 SHL SUB DUP1 DUP3 AND PUSH1 0x1 PUSH1 0x80 SHL SWAP1 SWAP3 DIV AND EQ SWAP1 JUMP JUMPDEST DUP1 SLOAD PUSH0 SWAP1 PUSH1 0x1 PUSH1 0x1 PUSH1 0x40 SHL SUB PUSH1 0x1 PUSH1 0x80 SHL DUP3 DIV DUP2 AND SWAP2 PUSH1 0x1 PUSH1 0xC0 SHL DUP2 DIV DUP3 AND SWAP2 AND DUP3 EQ DUP1 ISZERO PUSH3 0xCCC JUMPI POP DUP4 SLOAD PUSH1 0x1 PUSH1 0x1 PUSH1 0x40 SHL SUB DUP3 DUP2 AND PUSH9 0x10000000000000000 SWAP1 SWAP3 DIV AND EQ JUMPDEST ISZERO PUSH3 0xCEB JUMPI PUSH1 0x40 MLOAD PUSH4 0x75E52F4F PUSH1 0xE0 SHL DUP2 MSTORE PUSH1 0x4 ADD PUSH1 0x40 MLOAD DUP1 SWAP2 SUB SWAP1 REVERT JUMPDEST DUP1 PUSH1 0x1 PUSH1 0x1 PUSH1 0x40 SHL SUB AND PUSH0 SUB PUSH3 0xD08 JUMPI POP PUSH0 NOT ADD PUSH1 0xF PUSH3 0xD0C JUMP JUMPDEST PUSH0 NOT ADD JUMPDEST PUSH1 0x1 PUSH1 0x1 PUSH1 0x40 SHL SUB DUP3 AND PUSH0 SWAP1 DUP2 MSTORE PUSH1 0x1 DUP6 ADD PUSH1 0x20 MSTORE PUSH1 0x40 SWAP1 KECCAK256 SLOAD PUSH3 0xD32 DUP2 DUP4 PUSH3 0xE41 JUMP JUMPDEST SWAP4 POP PUSH3 0xD41 DUP2 DUP4 PUSH0 PUSH3 0xDFB JUMP JUMPDEST PUSH1 0x1 PUSH1 0x1 PUSH1 0x40 SHL SUB SWAP4 DUP5 AND PUSH0 DUP2 DUP2 MSTORE PUSH1 0x1 DUP9 ADD PUSH1 0x20 MSTORE PUSH1 0x40 SWAP1 KECCAK256 SWAP2 SWAP1 SWAP2 SSTORE DUP6 SLOAD PUSH1 0x1 PUSH1 0x1 PUSH1 0x80 SHL SUB AND PUSH1 0x1 PUSH1 0x80 SHL SWAP1 SWAP2 MUL PUSH1 0x1 PUSH1 0x1 PUSH1 0xC0 SHL SUB AND OR PUSH1 0x1 PUSH1 0xC0 SHL SWAP3 SWAP1 SWAP4 AND SWAP2 SWAP1 SWAP2 MUL SWAP2 SWAP1 SWAP2 OR SWAP1 SWAP3 SSTORE SWAP2 SWAP1 POP JUMP JUMPDEST PUSH0 DUP3 DUP2 MSTORE PUSH1 0xB PUSH1 0x20 MSTORE PUSH1 0x40 SWAP1 KECCAK256 SLOAD PUSH1 0x1 PUSH1 0x1 PUSH1 0x60 SHL SUB DUP3 GT ISZERO PUSH3 0xDCC JUMPI PUSH1 0x40 MLOAD PUSH4 0x3F2CD0E3 PUSH1 0xE2 SHL DUP2 MSTORE PUSH1 0x4 ADD PUSH1 0x40 MLOAD DUP1 SWAP2 SUB SWAP1 REVERT JUMPDEST PUSH0 SWAP3 DUP4 MSTORE PUSH1 0xB PUSH1 0x20 MSTORE PUSH1 0x40 SWAP1 SWAP3 KECCAK256 PUSH1 0x1 PUSH1 0x1 PUSH1 0xA0 SHL SUB SWAP3 SWAP1 SWAP3 AND PUSH1 0xA0 SWAP2 SWAP1 SWAP2 SHL PUSH1 0x1 PUSH1 0x1 PUSH1 0xA0 SHL SUB NOT AND ADD SWAP1 SSTORE JUMP JUMPDEST PUSH0 PUSH3 0xE09 DUP4 PUSH1 0x10 PUSH3 0x13B1 JUMP JUMPDEST PUSH1 0x1 PUSH1 0x1 PUSH1 0x40 SHL SUB AND DUP3 PUSH2 0xFFFF AND SWAP1 SHL PUSH3 0xE2A DUP5 PUSH3 0xE6F PUSH1 0x20 SHL PUSH1 0x20 SHR JUMP JUMPDEST NOT DUP6 AND PUSH3 0xE39 SWAP2 SWAP1 PUSH3 0x1322 JUMP JUMPDEST SWAP5 SWAP4 POP POP POP POP JUMP JUMPDEST PUSH0 PUSH3 0xE4F DUP3 PUSH1 0x10 PUSH3 0x13B1 JUMP JUMPDEST PUSH1 0x1 PUSH1 0x1 PUSH1 0x40 SHL SUB AND PUSH3 0xE63 DUP4 PUSH3 0xE6F JUMP JUMPDEST DUP5 AND SWAP1 SHR SWAP1 POP SWAP3 SWAP2 POP POP JUMP JUMPDEST PUSH0 PUSH3 0xE7D DUP3 PUSH1 0x10 PUSH3 0x13B1 JUMP JUMPDEST PUSH1 0x1 PUSH1 0x1 PUSH1 0x40 SHL SUB AND PUSH2 0xFFFF SWAP1 SHL SWAP1 POP SWAP2 SWAP1 POP JUMP JUMPDEST PUSH4 0x4E487B71 PUSH1 0xE0 SHL PUSH0 MSTORE PUSH1 0x41 PUSH1 0x4 MSTORE PUSH1 0x24 PUSH0 REVERT JUMPDEST PUSH0 DUP3 PUSH1 0x1F DUP4 ADD SLT PUSH3 0xEB6 JUMPI PUSH0 DUP1 REVERT JUMPDEST DUP2 MLOAD PUSH1 0x1 PUSH1 0x1 PUSH1 0x40 SHL SUB DUP1 DUP3 GT ISZERO PUSH3 0xED3 JUMPI PUSH3 0xED3 PUSH3 0xE92 JUMP JUMPDEST PUSH1 0x40 MLOAD PUSH1 0x1F DUP4 ADD PUSH1 0x1F NOT SWAP1 DUP2 AND PUSH1 0x3F ADD AND DUP2 ADD SWAP1 DUP3 DUP3 GT DUP2 DUP4 LT OR ISZERO PUSH3 0xEFE JUMPI PUSH3 0xEFE PUSH3 0xE92 JUMP JUMPDEST DUP2 PUSH1 0x40 MSTORE DUP4 DUP2 MSTORE PUSH1 0x20 SWAP3 POP DUP7 DUP4 DUP6 DUP9 ADD ADD GT ISZERO PUSH3 0xF1A JUMPI PUSH0 DUP1 REVERT JUMPDEST PUSH0 SWAP2 POP JUMPDEST DUP4 DUP3 LT ISZERO PUSH3 0xF3D JUMPI DUP6 DUP3 ADD DUP4 ADD MLOAD DUP2 DUP4 ADD DUP5 ADD MSTORE SWAP1 DUP3 ADD SWAP1 PUSH3 0xF1E JUMP JUMPDEST PUSH0 SWAP4 DUP2 ADD SWAP1 SWAP3 ADD SWAP3 SWAP1 SWAP3 MSTORE SWAP5 SWAP4 POP POP POP POP JUMP JUMPDEST DUP1 MLOAD PUSH1 0x1 PUSH1 0x1 PUSH1 0xA0 SHL SUB DUP2 AND DUP2 EQ PUSH3 0xF67 JUMPI PUSH0 DUP1 REVERT JUMPDEST SWAP2 SWAP1 POP JUMP JUMPDEST PUSH0 DUP1 PUSH0 DUP1 PUSH0 DUP1 PUSH1 0xC0 DUP8 DUP10 SUB SLT ISZERO PUSH3 0xF82 JUMPI PUSH0 DUP1 REVERT JUMPDEST DUP7 MLOAD PUSH1 0x1 PUSH1 0x1 PUSH1 0x40 SHL SUB DUP1 DUP3 GT ISZERO PUSH3 0xF99 JUMPI PUSH0 DUP1 REVERT JUMPDEST PUSH3 0xFA7 DUP11 DUP4 DUP12 ADD PUSH3 0xEA6 JUMP JUMPDEST SWAP8 POP PUSH1 0x20 DUP10 ADD MLOAD SWAP2 POP DUP1 DUP3 GT ISZERO PUSH3 0xFBD JUMPI PUSH0 DUP1 REVERT JUMPDEST POP PUSH3 0xFCC DUP10 DUP3 DUP11 ADD PUSH3 0xEA6 JUMP JUMPDEST SWAP6 POP POP PUSH1 0x40 DUP8 ADD MLOAD PUSH1 0xFF DUP2 AND DUP2 EQ PUSH3 0xFE3 JUMPI PUSH0 DUP1 REVERT JUMPDEST PUSH1 0x60 DUP9 ADD MLOAD SWAP1 SWAP5 POP SWAP3 POP PUSH3 0xFFB PUSH1 0x80 DUP9 ADD PUSH3 0xF50 JUMP JUMPDEST SWAP2 POP PUSH3 0x100B PUSH1 0xA0 DUP9 ADD PUSH3 0xF50 JUMP JUMPDEST SWAP1 POP SWAP3 SWAP6 POP SWAP3 SWAP6 POP SWAP3 SWAP6 JUMP JUMPDEST PUSH1 0x1 DUP2 DUP2 SHR SWAP1 DUP3 AND DUP1 PUSH3 0x102C JUMPI PUSH1 0x7F DUP3 AND SWAP2 POP JUMPDEST PUSH1 0x20 DUP3 LT DUP2 SUB PUSH3 0x104B JUMPI PUSH4 0x4E487B71 PUSH1 0xE0 SHL PUSH0 MSTORE PUSH1 0x22 PUSH1 0x4 MSTORE PUSH1 0x24 PUSH0 REVERT JUMPDEST POP SWAP2 SWAP1 POP JUMP JUMPDEST PUSH1 0x1F DUP3 GT ISZERO PUSH3 0x2E2 JUMPI PUSH0 DUP2 DUP2 MSTORE PUSH1 0x20 DUP2 KECCAK256 PUSH1 0x1F DUP6 ADD PUSH1 0x5 SHR DUP2 ADD PUSH1 0x20 DUP7 LT ISZERO PUSH3 0x1079 JUMPI POP DUP1 JUMPDEST PUSH1 0x1F DUP6 ADD PUSH1 0x5 SHR DUP3 ADD SWAP2 POP JUMPDEST DUP2 DUP2 LT ISZERO PUSH3 0x109A JUMPI DUP3 DUP2 SSTORE PUSH1 0x1 ADD PUSH3 0x1085 JUMP JUMPDEST POP POP POP POP POP POP JUMP JUMPDEST DUP2 MLOAD PUSH1 0x1 PUSH1 0x1 PUSH1 0x40 SHL SUB DUP2 GT ISZERO PUSH3 0x10BE JUMPI PUSH3 0x10BE PUSH3 0xE92 JUMP JUMPDEST PUSH3 0x10D6 DUP2 PUSH3 0x10CF DUP5 SLOAD PUSH3 0x1017 JUMP JUMPDEST DUP5 PUSH3 0x1051 JUMP JUMPDEST PUSH1 0x20 DUP1 PUSH1 0x1F DUP4 GT PUSH1 0x1 DUP2 EQ PUSH3 0x110C JUMPI PUSH0 DUP5 ISZERO PUSH3 0x10F4 JUMPI POP DUP6 DUP4 ADD MLOAD JUMPDEST PUSH0 NOT PUSH1 0x3 DUP7 SWAP1 SHL SHR NOT AND PUSH1 0x1 DUP6 SWAP1 SHL OR DUP6 SSTORE PUSH3 0x109A JUMP JUMPDEST PUSH0 DUP6 DUP2 MSTORE PUSH1 0x20 DUP2 KECCAK256 PUSH1 0x1F NOT DUP7 AND SWAP2 JUMPDEST DUP3 DUP2 LT ISZERO PUSH3 0x113C JUMPI DUP9 DUP7 ADD MLOAD DUP3 SSTORE SWAP5 DUP5 ADD SWAP5 PUSH1 0x1 SWAP1 SWAP2 ADD SWAP1 DUP5 ADD PUSH3 0x111B JUMP JUMPDEST POP DUP6 DUP3 LT ISZERO PUSH3 0x115A JUMPI DUP8 DUP6 ADD MLOAD PUSH0 NOT PUSH1 0x3 DUP9 SWAP1 SHL PUSH1 0xF8 AND SHR NOT AND DUP2 SSTORE JUMPDEST POP POP POP POP POP PUSH1 0x1 SWAP1 DUP2 SHL ADD SWAP1 SSTORE POP JUMP JUMPDEST PUSH4 0x4E487B71 PUSH1 0xE0 SHL PUSH0 MSTORE PUSH1 0x11 PUSH1 0x4 MSTORE PUSH1 0x24 PUSH0 REVERT JUMPDEST PUSH1 0x1 DUP2 DUP2 JUMPDEST DUP1 DUP6 GT ISZERO PUSH3 0x11BE JUMPI DUP2 PUSH0 NOT DIV DUP3 GT ISZERO PUSH3 0x11A2 JUMPI PUSH3 0x11A2 PUSH3 0x116A JUMP JUMPDEST DUP1 DUP6 AND ISZERO PUSH3 0x11B0 JUMPI SWAP2 DUP2 MUL SWAP2 JUMPDEST SWAP4 DUP5 SHR SWAP4 SWAP1 DUP1 MUL SWAP1 PUSH3 0x1183 JUMP JUMPDEST POP SWAP3 POP SWAP3 SWAP1 POP JUMP JUMPDEST PUSH0 DUP3 PUSH3 0x11D6 JUMPI POP PUSH1 0x1 PUSH3 0x8E3 JUMP JUMPDEST DUP2 PUSH3 0x11E4 JUMPI POP PUSH0 PUSH3 0x8E3 JUMP JUMPDEST DUP2 PUSH1 0x1 DUP2 EQ PUSH3 0x11FD JUMPI PUSH1 0x2 DUP2 EQ PUSH3 0x1208 JUMPI PUSH3 0x1228 JUMP JUMPDEST PUSH1 0x1 SWAP2 POP POP PUSH3 0x8E3 JUMP JUMPDEST PUSH1 0xFF DUP5 GT ISZERO PUSH3 0x121C JUMPI PUSH3 0x121C PUSH3 0x116A JUMP JUMPDEST POP POP PUSH1 0x1 DUP3 SHL PUSH3 0x8E3 JUMP JUMPDEST POP PUSH1 0x20 DUP4 LT PUSH2 0x133 DUP4 LT AND PUSH1 0x4E DUP5 LT PUSH1 0xB DUP5 LT AND OR ISZERO PUSH3 0x124D JUMPI POP DUP2 DUP2 EXP PUSH3 0x8E3 JUMP JUMPDEST PUSH3 0x1259 DUP4 DUP4 PUSH3 0x117E JUMP JUMPDEST DUP1 PUSH0 NOT DIV DUP3 GT ISZERO PUSH3 0x126F JUMPI PUSH3 0x126F PUSH3 0x116A JUMP JUMPDEST MUL SWAP4 SWAP3 POP POP POP JUMP JUMPDEST PUSH0 PUSH3 0x1287 PUSH1 0xFF DUP5 AND DUP4 PUSH3 0x11C6 JUMP JUMPDEST SWAP4 SWAP3 POP POP POP JUMP JUMPDEST DUP1 DUP3 MUL DUP2 ISZERO DUP3 DUP3 DIV DUP5 EQ OR PUSH3 0x8E3 JUMPI PUSH3 0x8E3 PUSH3 0x116A JUMP JUMPDEST PUSH0 DUP1 DUP4 SLOAD PUSH3 0x12B7 DUP2 PUSH3 0x1017 JUMP JUMPDEST PUSH1 0x1 DUP3 DUP2 AND DUP1 ISZERO PUSH3 0x12D2 JUMPI PUSH1 0x1 DUP2 EQ PUSH3 0x12E8 JUMPI PUSH3 0x1316 JUMP JUMPDEST PUSH1 0xFF NOT DUP5 AND DUP8 MSTORE DUP3 ISZERO ISZERO DUP4 MUL DUP8 ADD SWAP5 POP PUSH3 0x1316 JUMP JUMPDEST DUP8 PUSH0 MSTORE PUSH1 0x20 DUP1 PUSH0 KECCAK256 PUSH0 JUMPDEST DUP6 DUP2 LT ISZERO PUSH3 0x130D JUMPI DUP2 SLOAD DUP11 DUP3 ADD MSTORE SWAP1 DUP5 ADD SWAP1 DUP3 ADD PUSH3 0x12F2 JUMP JUMPDEST POP POP POP DUP3 DUP8 ADD SWAP5 POP JUMPDEST POP SWAP3 SWAP7 SWAP6 POP POP POP POP POP POP JUMP JUMPDEST DUP1 DUP3 ADD DUP1 DUP3 GT ISZERO PUSH3 0x8E3 JUMPI PUSH3 0x8E3 PUSH3 0x116A JUMP JUMPDEST PUSH0 DUP3 PUSH3 0x1353 JUMPI PUSH4 0x4E487B71 PUSH1 0xE0 SHL PUSH0 MSTORE PUSH1 0x12 PUSH1 0x4 MSTORE PUSH1 0x24 PUSH0 REVERT JUMPDEST POP DIV SWAP1 JUMP JUMPDEST DUP2 DUP2 SUB DUP2 DUP2 GT ISZERO PUSH3 0x8E3 JUMPI PUSH3 0x8E3 PUSH3 0x116A JUMP JUMPDEST PUSH4 0x4E487B71 PUSH1 0xE0 SHL PUSH0 MSTORE PUSH1 0x32 PUSH1 0x4 MSTORE PUSH1 0x24 PUSH0 REVERT JUMPDEST PUSH0 PUSH1 0x1 DUP3 ADD PUSH3 0x1396 JUMPI PUSH3 0x1396 PUSH3 0x116A JUMP JUMPDEST POP PUSH1 0x1 ADD SWAP1 JUMP JUMPDEST PUSH4 0x4E487B71 PUSH1 0xE0 SHL PUSH0 MSTORE PUSH1 0x31 PUSH1 0x4 MSTORE PUSH1 0x24 PUSH0 REVERT JUMPDEST PUSH1 0x1 PUSH1 0x1 PUSH1 0x40 SHL SUB DUP2 DUP2 AND DUP4 DUP3 AND MUL DUP1 DUP3 AND SWAP2 SWAP1 DUP3 DUP2 EQ PUSH3 0x13D7 JUMPI PUSH3 0x13D7 PUSH3 0x116A JUMP JUMPDEST POP POP SWAP3 SWAP2 POP POP JUMP JUMPDEST PUSH1 0x80 MLOAD PUSH1 0xA0 MLOAD PUSH1 0xC0 MLOAD PUSH1 0xE0 MLOAD PUSH2 0x27E8 PUSH3 0x1460 PUSH0 CODECOPY PUSH0 PUSH2 0x791 ADD MSTORE PUSH0 PUSH2 0x761 ADD MSTORE PUSH0 DUP2 DUP2 PUSH2 0x44E ADD MSTORE DUP2 DUP2 PUSH2 0x1014 ADD MSTORE DUP2 DUP2 PUSH2 0x142F ADD MSTORE DUP2 DUP2 PUSH2 0x1472 ADD MSTORE DUP2 DUP2 PUSH2 0x14E9 ADD MSTORE DUP2 DUP2 PUSH2 0x1513 ADD MSTORE DUP2 DUP2 PUSH2 0x1565 ADD MSTORE DUP2 DUP2 PUSH2 0x1630 ADD MSTORE DUP2 DUP2 PUSH2 0x167C ADD MSTORE DUP2 DUP2 PUSH2 0x16C0 ADD MSTORE DUP2 DUP2 PUSH2 0x16E7 ADD MSTORE PUSH2 0x1BF6 ADD MSTORE PUSH0 PUSH2 0x345 ADD MSTORE PUSH2 0x27E8 PUSH0 RETURN INVALID PUSH1 0x80 PUSH1 0x40 MSTORE CALLVALUE DUP1 ISZERO PUSH2 0xF JUMPI PUSH0 DUP1 REVERT JUMPDEST POP PUSH1 0x4 CALLDATASIZE LT PUSH2 0x23F JUMPI PUSH0 CALLDATALOAD PUSH1 0xE0 SHR DUP1 PUSH4 0x8A696E50 GT PUSH2 0x135 JUMPI DUP1 PUSH4 0xC6E672B9 GT PUSH2 0xB4 JUMPI DUP1 PUSH4 0xDD637699 GT PUSH2 0x79 JUMPI DUP1 PUSH4 0xDD637699 EQ PUSH2 0x56F JUMPI DUP1 PUSH4 0xDFABC033 EQ PUSH2 0x582 JUMPI DUP1 PUSH4 0xE985E9C5 EQ PUSH2 0x595 JUMPI DUP1 PUSH4 0xF2FDE38B EQ PUSH2 0x5C2 JUMPI DUP1 PUSH4 0xF780BC1A EQ PUSH2 0x5D5 JUMPI PUSH0 DUP1 REVERT JUMPDEST DUP1 PUSH4 0xC6E672B9 EQ PUSH2 0x4F9 JUMPI DUP1 PUSH4 0xC87B56DD EQ PUSH2 0x50C JUMPI DUP1 PUSH4 0xD505ACCF EQ PUSH2 0x51F JUMPI DUP1 PUSH4 0xD96CA0B9 EQ PUSH2 0x532 JUMPI DUP1 PUSH4 0xDD62ED3E EQ PUSH2 0x545 JUMPI PUSH0 DUP1 REVERT JUMPDEST DUP1 PUSH4 0xA9059CBB GT PUSH2 0xFA JUMPI DUP1 PUSH4 0xA9059CBB EQ PUSH2 0x483 JUMPI DUP1 PUSH4 0xB1AB9317 EQ PUSH2 0x496 JUMPI DUP1 PUSH4 0xB3F9EA34 EQ PUSH2 0x4B6 JUMPI DUP1 PUSH4 0xB88D4FDE EQ PUSH2 0x4DE JUMPI DUP1 PUSH4 0xC5AB3BA6 EQ PUSH2 0x4F1 JUMPI PUSH0 DUP1 REVERT JUMPDEST DUP1 PUSH4 0x8A696E50 EQ PUSH2 0x41E JUMPI DUP1 PUSH4 0x8DA5CB5B EQ PUSH2 0x431 JUMPI DUP1 PUSH4 0x95D89B41 EQ PUSH2 0x441 JUMPI DUP1 PUSH4 0x976A8435 EQ PUSH2 0x449 JUMPI DUP1 PUSH4 0xA22CB465 EQ PUSH2 0x470 JUMPI PUSH0 DUP1 REVERT JUMPDEST DUP1 PUSH4 0x3644E515 GT PUSH2 0x1C1 JUMPI DUP1 PUSH4 0x6E8F624B GT PUSH2 0x186 JUMPI DUP1 PUSH4 0x6E8F624B EQ PUSH2 0x3C5 JUMPI DUP1 PUSH4 0x70A08231 EQ PUSH2 0x3D0 JUMPI DUP1 PUSH4 0x715018A6 EQ PUSH2 0x3EF JUMPI DUP1 PUSH4 0x7ECEBE00 EQ PUSH2 0x3F7 JUMPI DUP1 PUSH4 0x89FB4C66 EQ PUSH2 0x416 JUMPI PUSH0 DUP1 REVERT JUMPDEST DUP1 PUSH4 0x3644E515 EQ PUSH2 0x379 JUMPI DUP1 PUSH4 0x42842E0E EQ PUSH2 0x381 JUMPI DUP1 PUSH4 0x4D966072 EQ PUSH2 0x396 JUMPI DUP1 PUSH4 0x4F02C420 EQ PUSH2 0x3A9 JUMPI DUP1 PUSH4 0x6352211E EQ PUSH2 0x3B2 JUMPI PUSH0 DUP1 REVERT JUMPDEST DUP1 PUSH4 0x9674EB0 GT PUSH2 0x207 JUMPI DUP1 PUSH4 0x9674EB0 EQ PUSH2 0x309 JUMPI DUP1 PUSH4 0x9F0EF65 EQ PUSH2 0x311 JUMPI DUP1 PUSH4 0x18160DDD EQ PUSH2 0x324 JUMPI DUP1 PUSH4 0x23B872DD EQ PUSH2 0x32D JUMPI DUP1 PUSH4 0x313CE567 EQ PUSH2 0x340 JUMPI PUSH0 DUP1 REVERT JUMPDEST DUP1 PUSH4 0x1FFC9A7 EQ PUSH2 0x243 JUMPI DUP1 PUSH4 0x2519DA3 EQ PUSH2 0x26B JUMPI DUP1 PUSH4 0x6FDDE03 EQ PUSH2 0x2A1 JUMPI DUP1 PUSH4 0x81812FC EQ PUSH2 0x2B6 JUMPI DUP1 PUSH4 0x95EA7B3 EQ PUSH2 0x2F6 JUMPI JUMPDEST PUSH0 DUP1 REVERT JUMPDEST PUSH2 0x256 PUSH2 0x251 CALLDATASIZE PUSH1 0x4 PUSH2 0x21FA JUMP JUMPDEST PUSH2 0x5E8 JUMP JUMPDEST PUSH1 0x40 MLOAD SWAP1 ISZERO ISZERO DUP2 MSTORE PUSH1 0x20 ADD JUMPDEST PUSH1 0x40 MLOAD DUP1 SWAP2 SUB SWAP1 RETURN JUMPDEST PUSH2 0x293 PUSH2 0x279 CALLDATASIZE PUSH1 0x4 PUSH2 0x222B JUMP JUMPDEST PUSH1 0x1 PUSH1 0x1 PUSH1 0xA0 SHL SUB AND PUSH0 SWAP1 DUP2 MSTORE PUSH1 0x7 PUSH1 0x20 MSTORE PUSH1 0x40 SWAP1 KECCAK256 SLOAD SWAP1 JUMP JUMPDEST PUSH1 0x40 MLOAD SWAP1 DUP2 MSTORE PUSH1 0x20 ADD PUSH2 0x262 JUMP JUMPDEST PUSH2 0x2A9 PUSH2 0x61E JUMP JUMPDEST PUSH1 0x40 MLOAD PUSH2 0x262 SWAP2 SWAP1 PUSH2 0x2291 JUMP JUMPDEST PUSH2 0x2DE PUSH2 0x2C4 CALLDATASIZE PUSH1 0x4 PUSH2 0x22A3 JUMP JUMPDEST PUSH1 0x9 PUSH1 0x20 MSTORE PUSH0 SWAP1 DUP2 MSTORE PUSH1 0x40 SWAP1 KECCAK256 SLOAD PUSH1 0x1 PUSH1 0x1 PUSH1 0xA0 SHL SUB AND DUP2 JUMP JUMPDEST PUSH1 0x40 MLOAD PUSH1 0x1 PUSH1 0x1 PUSH1 0xA0 SHL SUB SWAP1 SWAP2 AND DUP2 MSTORE PUSH1 0x20 ADD PUSH2 0x262 JUMP JUMPDEST PUSH2 0x256 PUSH2 0x304 CALLDATASIZE PUSH1 0x4 PUSH2 0x22BA JUMP JUMPDEST PUSH2 0x6AA JUMP JUMPDEST PUSH2 0x293 PUSH2 0x6E2 JUMP JUMPDEST PUSH2 0x256 PUSH2 0x31F CALLDATASIZE PUSH1 0x4 PUSH2 0x222B JUMP JUMPDEST PUSH2 0x6F2 JUMP JUMPDEST PUSH2 0x293 PUSH1 0x5 SLOAD DUP2 JUMP JUMPDEST PUSH2 0x256 PUSH2 0x33B CALLDATASIZE PUSH1 0x4 PUSH2 0x22E2 JUMP JUMPDEST PUSH2 0x722 JUMP JUMPDEST PUSH2 0x367 PUSH32 0x0 DUP2 JUMP JUMPDEST PUSH1 0x40 MLOAD PUSH1 0xFF SWAP1 SWAP2 AND DUP2 MSTORE PUSH1 0x20 ADD PUSH2 0x262 JUMP JUMPDEST PUSH2 0x293 PUSH2 0x75E JUMP JUMPDEST PUSH2 0x394 PUSH2 0x38F CALLDATASIZE PUSH1 0x4 PUSH2 0x22E2 JUMP JUMPDEST PUSH2 0x7B3 JUMP JUMPDEST STOP JUMPDEST PUSH2 0x256 PUSH2 0x3A4 CALLDATASIZE PUSH1 0x4 PUSH2 0x22BA JUMP JUMPDEST PUSH2 0x7D2 JUMP JUMPDEST PUSH2 0x293 PUSH1 0x6 SLOAD DUP2 JUMP JUMPDEST PUSH2 0x2DE PUSH2 0x3C0 CALLDATASIZE PUSH1 0x4 PUSH2 0x22A3 JUMP JUMPDEST PUSH2 0x85D JUMP JUMPDEST PUSH2 0x293 PUSH1 0x1 PUSH1 0xFF SHL DUP2 JUMP JUMPDEST PUSH2 0x293 PUSH2 0x3DE CALLDATASIZE PUSH1 0x4 PUSH2 0x222B JUMP JUMPDEST PUSH1 0x7 PUSH1 0x20 MSTORE PUSH0 SWAP1 DUP2 MSTORE PUSH1 0x40 SWAP1 KECCAK256 SLOAD DUP2 JUMP JUMPDEST PUSH2 0x394 PUSH2 0x8C6 JUMP JUMPDEST PUSH2 0x293 PUSH2 0x405 CALLDATASIZE PUSH1 0x4 PUSH2 0x222B JUMP JUMPDEST PUSH1 0xE PUSH1 0x20 MSTORE PUSH0 SWAP1 DUP2 MSTORE PUSH1 0x40 SWAP1 KECCAK256 SLOAD DUP2 JUMP JUMPDEST PUSH1 0x5 SLOAD PUSH2 0x293 JUMP JUMPDEST PUSH2 0x394 PUSH2 0x42C CALLDATASIZE PUSH1 0x4 PUSH2 0x232A JUMP JUMPDEST PUSH2 0x8D9 JUMP JUMPDEST PUSH0 SLOAD PUSH1 0x1 PUSH1 0x1 PUSH1 0xA0 SHL SUB AND PUSH2 0x2DE JUMP JUMPDEST PUSH2 0x2A9 PUSH2 0x8E6 JUMP JUMPDEST PUSH2 0x293 PUSH32 0x0 DUP2 JUMP JUMPDEST PUSH2 0x394 PUSH2 0x47E CALLDATASIZE PUSH1 0x4 PUSH2 0x2343 JUMP JUMPDEST PUSH2 0x8F3 JUMP JUMPDEST PUSH2 0x256 PUSH2 0x491 CALLDATASIZE PUSH1 0x4 PUSH2 0x22BA JUMP JUMPDEST PUSH2 0x985 JUMP JUMPDEST PUSH2 0x4A9 PUSH2 0x4A4 CALLDATASIZE PUSH1 0x4 PUSH2 0x222B JUMP JUMPDEST PUSH2 0x9B8 JUMP JUMPDEST PUSH1 0x40 MLOAD PUSH2 0x262 SWAP2 SWAP1 PUSH2 0x2374 JUMP JUMPDEST PUSH2 0x293 PUSH2 0x4C4 CALLDATASIZE PUSH1 0x4 PUSH2 0x222B JUMP JUMPDEST PUSH1 0x1 PUSH1 0x1 PUSH1 0xA0 SHL SUB AND PUSH0 SWAP1 DUP2 MSTORE PUSH1 0xC PUSH1 0x20 MSTORE PUSH1 0x40 SWAP1 KECCAK256 SLOAD SWAP1 JUMP JUMPDEST PUSH2 0x394 PUSH2 0x4EC CALLDATASIZE PUSH1 0x4 PUSH2 0x23CB JUMP JUMPDEST PUSH2 0xABA JUMP JUMPDEST PUSH1 0x6 SLOAD PUSH2 0x293 JUMP JUMPDEST PUSH2 0x394 PUSH2 0x507 CALLDATASIZE PUSH1 0x4 PUSH2 0x2343 JUMP JUMPDEST PUSH2 0xBA5 JUMP JUMPDEST PUSH2 0x2A9 PUSH2 0x51A CALLDATASIZE PUSH1 0x4 PUSH2 0x22A3 JUMP JUMPDEST PUSH2 0xBBB JUMP JUMPDEST PUSH2 0x394 PUSH2 0x52D CALLDATASIZE PUSH1 0x4 PUSH2 0x249F JUMP JUMPDEST PUSH2 0xBEC JUMP JUMPDEST PUSH2 0x256 PUSH2 0x540 CALLDATASIZE PUSH1 0x4 PUSH2 0x22E2 JUMP JUMPDEST PUSH2 0xE29 JUMP JUMPDEST PUSH2 0x293 PUSH2 0x553 CALLDATASIZE PUSH1 0x4 PUSH2 0x250C JUMP JUMPDEST PUSH1 0x8 PUSH1 0x20 SWAP1 DUP2 MSTORE PUSH0 SWAP3 DUP4 MSTORE PUSH1 0x40 DUP1 DUP5 KECCAK256 SWAP1 SWAP2 MSTORE SWAP1 DUP3 MSTORE SWAP1 KECCAK256 SLOAD DUP2 JUMP JUMPDEST PUSH2 0x394 PUSH2 0x57D CALLDATASIZE PUSH1 0x4 PUSH2 0x22E2 JUMP JUMPDEST PUSH2 0xEE5 JUMP JUMPDEST PUSH2 0x394 PUSH2 0x590 CALLDATASIZE PUSH1 0x4 PUSH2 0x22BA JUMP JUMPDEST PUSH2 0x1043 JUMP JUMPDEST PUSH2 0x256 PUSH2 0x5A3 CALLDATASIZE PUSH1 0x4 PUSH2 0x250C JUMP JUMPDEST PUSH1 0xA PUSH1 0x20 SWAP1 DUP2 MSTORE PUSH0 SWAP3 DUP4 MSTORE PUSH1 0x40 DUP1 DUP5 KECCAK256 SWAP1 SWAP2 MSTORE SWAP1 DUP3 MSTORE SWAP1 KECCAK256 SLOAD PUSH1 0xFF AND DUP2 JUMP JUMPDEST PUSH2 0x394 PUSH2 0x5D0 CALLDATASIZE PUSH1 0x4 PUSH2 0x222B JUMP JUMPDEST PUSH2 0x1105 JUMP JUMPDEST PUSH2 0x4A9 PUSH2 0x5E3 CALLDATASIZE PUSH1 0x4 PUSH2 0x2534 JUMP JUMPDEST PUSH2 0x1144 JUMP JUMPDEST PUSH0 PUSH1 0x1 PUSH1 0x1 PUSH1 0xE0 SHL SUB NOT DUP3 AND PUSH4 0xCAF91FF5 PUSH1 0xE0 SHL EQ DUP1 PUSH2 0x618 JUMPI POP PUSH1 0x1 PUSH1 0x1 PUSH1 0xE0 SHL SUB NOT DUP3 AND PUSH4 0x1FFC9A7 PUSH1 0xE0 SHL EQ JUMPDEST SWAP3 SWAP2 POP POP JUMP JUMPDEST PUSH1 0x3 DUP1 SLOAD PUSH2 0x62B SWAP1 PUSH2 0x2554 JUMP JUMPDEST DUP1 PUSH1 0x1F ADD PUSH1 0x20 DUP1 SWAP2 DIV MUL PUSH1 0x20 ADD PUSH1 0x40 MLOAD SWAP1 DUP2 ADD PUSH1 0x40 MSTORE DUP1 SWAP3 SWAP2 SWAP1 DUP2 DUP2 MSTORE PUSH1 0x20 ADD DUP3 DUP1 SLOAD PUSH2 0x657 SWAP1 PUSH2 0x2554 JUMP JUMPDEST DUP1 ISZERO PUSH2 0x6A2 JUMPI DUP1 PUSH1 0x1F LT PUSH2 0x679 JUMPI PUSH2 0x100 DUP1 DUP4 SLOAD DIV MUL DUP4 MSTORE SWAP2 PUSH1 0x20 ADD SWAP2 PUSH2 0x6A2 JUMP JUMPDEST DUP3 ADD SWAP2 SWAP1 PUSH0 MSTORE PUSH1 0x20 PUSH0 KECCAK256 SWAP1 JUMPDEST DUP2 SLOAD DUP2 MSTORE SWAP1 PUSH1 0x1 ADD SWAP1 PUSH1 0x20 ADD DUP1 DUP4 GT PUSH2 0x685 JUMPI DUP3 SWAP1 SUB PUSH1 0x1F AND DUP3 ADD SWAP2 JUMPDEST POP POP POP POP POP DUP2 JUMP JUMPDEST PUSH0 PUSH2 0x6B4 DUP3 PUSH2 0x11F1 JUMP JUMPDEST ISZERO PUSH2 0x6C8 JUMPI PUSH2 0x6C3 DUP4 DUP4 PUSH2 0x1043 JUMP JUMPDEST PUSH2 0x6D9 JUMP JUMPDEST PUSH2 0x6D2 DUP4 DUP4 PUSH2 0x7D2 JUMP JUMPDEST SWAP1 POP PUSH2 0x618 JUMP JUMPDEST POP PUSH1 0x1 SWAP3 SWAP2 POP POP JUMP JUMPDEST PUSH0 PUSH2 0x6ED PUSH1 0x1 PUSH2 0x1208 JUMP JUMPDEST SWAP1 POP SWAP1 JUMP JUMPDEST PUSH0 PUSH1 0x1 PUSH1 0x1 PUSH1 0xA0 SHL SUB DUP3 AND ISZERO DUP1 PUSH2 0x618 JUMPI POP POP PUSH1 0x1 PUSH1 0x1 PUSH1 0xA0 SHL SUB AND PUSH0 SWAP1 DUP2 MSTORE PUSH1 0xD PUSH1 0x20 MSTORE PUSH1 0x40 SWAP1 KECCAK256 SLOAD PUSH1 0xFF AND SWAP1 JUMP JUMPDEST PUSH0 PUSH2 0x72C DUP3 PUSH2 0x11F1 JUMP JUMPDEST ISZERO PUSH2 0x741 JUMPI PUSH2 0x73C DUP5 DUP5 DUP5 PUSH2 0xEE5 JUMP JUMPDEST PUSH2 0x753 JUMP JUMPDEST PUSH2 0x74C DUP5 DUP5 DUP5 PUSH2 0xE29 JUMP JUMPDEST SWAP1 POP PUSH2 0x757 JUMP JUMPDEST POP PUSH1 0x1 JUMPDEST SWAP4 SWAP3 POP POP POP JUMP JUMPDEST PUSH0 PUSH32 0x0 CHAINID EQ PUSH2 0x78E JUMPI PUSH2 0x6ED PUSH2 0x124B JUMP JUMPDEST POP PUSH32 0x0 SWAP1 JUMP JUMPDEST PUSH2 0x7CD DUP4 DUP4 DUP4 PUSH1 0x40 MLOAD DUP1 PUSH1 0x20 ADD PUSH1 0x40 MSTORE DUP1 PUSH0 DUP2 MSTORE POP PUSH2 0xABA JUMP JUMPDEST POP POP POP JUMP JUMPDEST PUSH0 PUSH1 0x1 PUSH1 0x1 PUSH1 0xA0 SHL SUB DUP4 AND PUSH2 0x7FA JUMPI PUSH1 0x40 MLOAD PUSH4 0x5461585F PUSH1 0xE0 SHL DUP2 MSTORE PUSH1 0x4 ADD PUSH1 0x40 MLOAD DUP1 SWAP2 SUB SWAP1 REVERT JUMPDEST CALLER PUSH0 DUP2 DUP2 MSTORE PUSH1 0x8 PUSH1 0x20 SWAP1 DUP2 MSTORE PUSH1 0x40 DUP1 DUP4 KECCAK256 PUSH1 0x1 PUSH1 0x1 PUSH1 0xA0 SHL SUB DUP9 AND DUP1 DUP6 MSTORE SWAP1 DUP4 MSTORE SWAP3 DUP2 SWAP1 KECCAK256 DUP7 SWAP1 SSTORE MLOAD DUP6 DUP2 MSTORE SWAP2 SWAP3 SWAP2 PUSH32 0x8C5BE1E5EBEC7D5BD14F71427D1E84F3DD0314C0F7B2291E5B200AC8C7C3B925 SWAP2 ADD PUSH1 0x40 MLOAD DUP1 SWAP2 SUB SWAP1 LOG3 POP PUSH1 0x1 SWAP3 SWAP2 POP POP JUMP JUMPDEST PUSH0 DUP2 DUP2 MSTORE PUSH1 0xB PUSH1 0x20 MSTORE PUSH1 0x40 SWAP1 KECCAK256 SLOAD PUSH1 0x1 PUSH1 0x1 PUSH1 0xA0 SHL SUB AND PUSH2 0x87D DUP3 PUSH2 0x11F1 JUMP JUMPDEST PUSH2 0x89A JUMPI PUSH1 0x40 MLOAD PUSH4 0x7ED98ED PUSH1 0xE3 SHL DUP2 MSTORE PUSH1 0x4 ADD PUSH1 0x40 MLOAD DUP1 SWAP2 SUB SWAP1 REVERT JUMPDEST PUSH1 0x1 PUSH1 0x1 PUSH1 0xA0 SHL SUB DUP2 AND PUSH2 0x8C1 JUMPI PUSH1 0x40 MLOAD PUSH4 0xC5723B51 PUSH1 0xE0 SHL DUP2 MSTORE PUSH1 0x4 ADD PUSH1 0x40 MLOAD DUP1 SWAP2 SUB SWAP1 REVERT JUMPDEST SWAP2 SWAP1 POP JUMP JUMPDEST PUSH2 0x8CE PUSH2 0x12E4 JUMP JUMPDEST PUSH2 0x8D7 PUSH0 PUSH2 0x1310 JUMP JUMPDEST JUMP JUMPDEST PUSH2 0x8E3 CALLER DUP3 PUSH2 0x135F JUMP JUMPDEST POP JUMP JUMPDEST PUSH1 0x4 DUP1 SLOAD PUSH2 0x62B SWAP1 PUSH2 0x2554 JUMP JUMPDEST PUSH1 0x1 PUSH1 0x1 PUSH1 0xA0 SHL SUB DUP3 AND PUSH2 0x91A JUMPI PUSH1 0x40 MLOAD PUSH4 0xCCEA9E6F PUSH1 0xE0 SHL DUP2 MSTORE PUSH1 0x4 ADD PUSH1 0x40 MLOAD DUP1 SWAP2 SUB SWAP1 REVERT JUMPDEST CALLER PUSH0 DUP2 DUP2 MSTORE PUSH1 0xA PUSH1 0x20 SWAP1 DUP2 MSTORE PUSH1 0x40 DUP1 DUP4 KECCAK256 PUSH1 0x1 PUSH1 0x1 PUSH1 0xA0 SHL SUB DUP8 AND DUP1 DUP6 MSTORE SWAP1 DUP4 MSTORE SWAP3 DUP2 SWAP1 KECCAK256 DUP1 SLOAD PUSH1 0xFF NOT AND DUP7 ISZERO ISZERO SWAP1 DUP2 OR SWAP1 SWAP2 SSTORE SWAP1 MLOAD SWAP1 DUP2 MSTORE SWAP2 SWAP3 SWAP2 PUSH32 0x17307EAB39AB6107E8899845AD3D59BD9653F200F220920489CA2B5937696C31 SWAP2 ADD PUSH1 0x40 MLOAD DUP1 SWAP2 SUB SWAP1 LOG3 POP POP JUMP JUMPDEST PUSH0 PUSH1 0x1 PUSH1 0x1 PUSH1 0xA0 SHL SUB DUP4 AND PUSH2 0x9AD JUMPI PUSH1 0x40 MLOAD PUSH4 0x4E469669 PUSH1 0xE1 SHL DUP2 MSTORE PUSH1 0x4 ADD PUSH1 0x40 MLOAD DUP1 SWAP2 SUB SWAP1 REVERT JUMPDEST PUSH2 0x757 CALLER DUP5 DUP5 PUSH2 0x13CD JUMP JUMPDEST PUSH1 0x1 PUSH1 0x1 PUSH1 0xA0 SHL SUB DUP2 AND PUSH0 SWAP1 DUP2 MSTORE PUSH1 0xC PUSH1 0x20 MSTORE PUSH1 0x40 DUP2 KECCAK256 SLOAD PUSH1 0x60 SWAP2 SWAP1 PUSH1 0x1 PUSH1 0x1 PUSH1 0x40 SHL SUB DUP2 GT ISZERO PUSH2 0x9EB JUMPI PUSH2 0x9EB PUSH2 0x23B7 JUMP JUMPDEST PUSH1 0x40 MLOAD SWAP1 DUP1 DUP3 MSTORE DUP1 PUSH1 0x20 MUL PUSH1 0x20 ADD DUP3 ADD PUSH1 0x40 MSTORE DUP1 ISZERO PUSH2 0xA14 JUMPI DUP2 PUSH1 0x20 ADD PUSH1 0x20 DUP3 MUL DUP1 CALLDATASIZE DUP4 CALLDATACOPY ADD SWAP1 POP JUMPDEST POP SWAP1 POP PUSH0 JUMPDEST PUSH1 0x1 PUSH1 0x1 PUSH1 0xA0 SHL SUB DUP5 AND PUSH0 SWAP1 DUP2 MSTORE PUSH1 0xC PUSH1 0x20 MSTORE PUSH1 0x40 SWAP1 KECCAK256 SLOAD DUP2 LT ISZERO PUSH2 0xAB3 JUMPI PUSH1 0x1 PUSH1 0x1 PUSH1 0xA0 SHL SUB DUP5 AND PUSH0 SWAP1 DUP2 MSTORE PUSH1 0xC PUSH1 0x20 MSTORE PUSH1 0x40 SWAP1 KECCAK256 DUP1 SLOAD DUP3 SWAP1 DUP2 LT PUSH2 0xA61 JUMPI PUSH2 0xA61 PUSH2 0x258C JUMP JUMPDEST PUSH0 SWAP2 DUP3 MSTORE PUSH1 0x20 SWAP1 SWAP2 KECCAK256 PUSH1 0x10 DUP3 DIV ADD SLOAD PUSH2 0xA8E SWAP2 PUSH1 0xF AND PUSH1 0x2 MUL PUSH2 0x100 EXP SWAP1 DIV PUSH2 0xFFFF AND PUSH1 0x1 PUSH1 0xFF SHL PUSH2 0x25B4 JUMP JUMPDEST DUP3 DUP3 DUP2 MLOAD DUP2 LT PUSH2 0xAA0 JUMPI PUSH2 0xAA0 PUSH2 0x258C JUMP JUMPDEST PUSH1 0x20 SWAP1 DUP2 MUL SWAP2 SWAP1 SWAP2 ADD ADD MSTORE PUSH1 0x1 ADD PUSH2 0xA19 JUMP JUMPDEST POP SWAP3 SWAP2 POP POP JUMP JUMPDEST PUSH2 0xAC3 DUP3 PUSH2 0x11F1 JUMP JUMPDEST PUSH2 0xAE0 JUMPI PUSH1 0x40 MLOAD PUSH4 0x7ED98ED PUSH1 0xE3 SHL DUP2 MSTORE PUSH1 0x4 ADD PUSH1 0x40 MLOAD DUP1 SWAP2 SUB SWAP1 REVERT JUMPDEST PUSH2 0xAEB DUP5 DUP5 DUP5 PUSH2 0x722 JUMP JUMPDEST POP PUSH1 0x1 PUSH1 0x1 PUSH1 0xA0 SHL SUB DUP4 AND EXTCODESIZE ISZERO DUP1 ISZERO SWAP1 PUSH2 0xB81 JUMPI POP PUSH1 0x40 MLOAD PUSH4 0xA85BD01 PUSH1 0xE1 SHL DUP1 DUP3 MSTORE SWAP1 PUSH1 0x1 PUSH1 0x1 PUSH1 0xA0 SHL SUB DUP6 AND SWAP1 PUSH4 0x150B7A02 SWAP1 PUSH2 0xB34 SWAP1 CALLER SWAP1 DUP10 SWAP1 DUP9 SWAP1 DUP9 SWAP1 PUSH1 0x4 ADD PUSH2 0x25C7 JUMP JUMPDEST PUSH1 0x20 PUSH1 0x40 MLOAD DUP1 DUP4 SUB DUP2 PUSH0 DUP8 GAS CALL ISZERO DUP1 ISZERO PUSH2 0xB50 JUMPI RETURNDATASIZE PUSH0 DUP1 RETURNDATACOPY RETURNDATASIZE PUSH0 REVERT JUMPDEST POP POP POP POP PUSH1 0x40 MLOAD RETURNDATASIZE PUSH1 0x1F NOT PUSH1 0x1F DUP3 ADD AND DUP3 ADD DUP1 PUSH1 0x40 MSTORE POP DUP2 ADD SWAP1 PUSH2 0xB74 SWAP2 SWAP1 PUSH2 0x2603 JUMP JUMPDEST PUSH1 0x1 PUSH1 0x1 PUSH1 0xE0 SHL SUB NOT AND EQ ISZERO JUMPDEST ISZERO PUSH2 0xB9F JUMPI PUSH1 0x40 MLOAD PUSH4 0x3DA63931 PUSH1 0xE0 SHL DUP2 MSTORE PUSH1 0x4 ADD PUSH1 0x40 MLOAD DUP1 SWAP2 SUB SWAP1 REVERT JUMPDEST POP POP POP POP JUMP JUMPDEST PUSH2 0xBAD PUSH2 0x12E4 JUMP JUMPDEST PUSH2 0xBB7 DUP3 DUP3 PUSH2 0x135F JUMP JUMPDEST POP POP JUMP JUMPDEST PUSH1 0x60 PUSH2 0xBC6 DUP3 PUSH2 0x1757 JUMP JUMPDEST PUSH1 0x40 MLOAD PUSH1 0x20 ADD PUSH2 0xBD6 SWAP2 SWAP1 PUSH2 0x261E JUMP JUMPDEST PUSH1 0x40 MLOAD PUSH1 0x20 DUP2 DUP4 SUB SUB DUP2 MSTORE SWAP1 PUSH1 0x40 MSTORE SWAP1 POP SWAP2 SWAP1 POP JUMP JUMPDEST TIMESTAMP DUP5 LT ISZERO PUSH2 0xC0D JUMPI PUSH1 0x40 MLOAD PUSH4 0x5787BDF PUSH1 0xE0 SHL DUP2 MSTORE PUSH1 0x4 ADD PUSH1 0x40 MLOAD DUP1 SWAP2 SUB SWAP1 REVERT JUMPDEST PUSH2 0xC16 DUP6 PUSH2 0x11F1 JUMP JUMPDEST ISZERO PUSH2 0xC34 JUMPI PUSH1 0x40 MLOAD PUSH4 0x3E7C1BD PUSH1 0xE3 SHL DUP2 MSTORE PUSH1 0x4 ADD PUSH1 0x40 MLOAD DUP1 SWAP2 SUB SWAP1 REVERT JUMPDEST PUSH1 0x1 PUSH1 0x1 PUSH1 0xA0 SHL SUB DUP7 AND PUSH2 0xC5B JUMPI PUSH1 0x40 MLOAD PUSH4 0x5461585F PUSH1 0xE0 SHL DUP2 MSTORE PUSH1 0x4 ADD PUSH1 0x40 MLOAD DUP1 SWAP2 SUB SWAP1 REVERT JUMPDEST PUSH0 PUSH1 0x1 PUSH2 0xC66 PUSH2 0x75E JUMP JUMPDEST PUSH1 0x1 PUSH1 0x1 PUSH1 0xA0 SHL SUB DUP11 DUP2 AND PUSH0 DUP2 DUP2 MSTORE PUSH1 0xE PUSH1 0x20 SWAP1 DUP2 MSTORE PUSH1 0x40 SWAP2 DUP3 SWAP1 KECCAK256 DUP1 SLOAD PUSH1 0x1 DUP2 ADD SWAP1 SWAP2 SSTORE DUP3 MLOAD PUSH32 0x6E71EDAE12B1B97F4D1F60370FEF10105FA2FAAE0126114A169C64845D6126C9 DUP2 DUP5 ADD MSTORE DUP1 DUP5 ADD SWAP5 SWAP1 SWAP5 MSTORE SWAP4 DUP14 AND PUSH1 0x60 DUP5 ADD MSTORE PUSH1 0x80 DUP4 ADD DUP13 SWAP1 MSTORE PUSH1 0xA0 DUP4 ADD SWAP4 SWAP1 SWAP4 MSTORE PUSH1 0xC0 DUP1 DUP4 ADD DUP12 SWAP1 MSTORE DUP2 MLOAD DUP1 DUP5 SUB SWAP1 SWAP2 ADD DUP2 MSTORE PUSH1 0xE0 DUP4 ADD SWAP1 SWAP2 MSTORE DUP1 MLOAD SWAP3 ADD SWAP2 SWAP1 SWAP2 KECCAK256 PUSH2 0x1901 PUSH1 0xF0 SHL PUSH2 0x100 DUP4 ADD MSTORE PUSH2 0x102 DUP3 ADD SWAP3 SWAP1 SWAP3 MSTORE PUSH2 0x122 DUP2 ADD SWAP2 SWAP1 SWAP2 MSTORE PUSH2 0x142 ADD PUSH1 0x40 DUP1 MLOAD PUSH1 0x1F NOT DUP2 DUP5 SUB ADD DUP2 MSTORE DUP3 DUP3 MSTORE DUP1 MLOAD PUSH1 0x20 SWAP2 DUP3 ADD KECCAK256 PUSH0 DUP5 MSTORE SWAP1 DUP4 ADD DUP1 DUP4 MSTORE MSTORE PUSH1 0xFF DUP8 AND SWAP1 DUP3 ADD MSTORE PUSH1 0x60 DUP2 ADD DUP6 SWAP1 MSTORE PUSH1 0x80 DUP2 ADD DUP5 SWAP1 MSTORE PUSH1 0xA0 ADD PUSH1 0x20 PUSH1 0x40 MLOAD PUSH1 0x20 DUP2 SUB SWAP1 DUP1 DUP5 SUB SWAP1 DUP6 GAS STATICCALL ISZERO DUP1 ISZERO PUSH2 0xD6E JUMPI RETURNDATASIZE PUSH0 DUP1 RETURNDATACOPY RETURNDATASIZE PUSH0 REVERT JUMPDEST POP POP PUSH1 0x40 MLOAD PUSH1 0x1F NOT ADD MLOAD SWAP2 POP POP PUSH1 0x1 PUSH1 0x1 PUSH1 0xA0 SHL SUB DUP2 AND ISZERO DUP1 PUSH2 0xDA3 JUMPI POP DUP8 PUSH1 0x1 PUSH1 0x1 PUSH1 0xA0 SHL SUB AND DUP2 PUSH1 0x1 PUSH1 0x1 PUSH1 0xA0 SHL SUB AND EQ ISZERO JUMPDEST ISZERO PUSH2 0xDC1 JUMPI PUSH1 0x40 MLOAD PUSH4 0x20578759 PUSH1 0xE2 SHL DUP2 MSTORE PUSH1 0x4 ADD PUSH1 0x40 MLOAD DUP1 SWAP2 SUB SWAP1 REVERT JUMPDEST PUSH1 0x1 PUSH1 0x1 PUSH1 0xA0 SHL SUB SWAP1 DUP2 AND PUSH0 SWAP1 DUP2 MSTORE PUSH1 0x8 PUSH1 0x20 SWAP1 DUP2 MSTORE PUSH1 0x40 DUP1 DUP4 KECCAK256 DUP11 DUP6 AND DUP1 DUP6 MSTORE SWAP1 DUP4 MSTORE SWAP3 DUP2 SWAP1 KECCAK256 DUP10 SWAP1 SSTORE MLOAD DUP9 DUP2 MSTORE SWAP2 SWAP3 DUP11 AND SWAP2 PUSH32 0x8C5BE1E5EBEC7D5BD14F71427D1E84F3DD0314C0F7B2291E5B200AC8C7C3B925 SWAP2 ADD PUSH1 0x40 MLOAD DUP1 SWAP2 SUB SWAP1 LOG3 POP POP POP POP POP POP POP JUMP JUMPDEST PUSH0 PUSH1 0x1 PUSH1 0x1 PUSH1 0xA0 SHL SUB DUP5 AND PUSH2 0xE51 JUMPI PUSH1 0x40 MLOAD PUSH4 0x6EDAEF2F PUSH1 0xE1 SHL DUP2 MSTORE PUSH1 0x4 ADD PUSH1 0x40 MLOAD DUP1 SWAP2 SUB SWAP1 REVERT JUMPDEST PUSH1 0x1 PUSH1 0x1 PUSH1 0xA0 SHL SUB DUP4 AND PUSH2 0xE78 JUMPI PUSH1 0x40 MLOAD PUSH4 0x4E469669 PUSH1 0xE1 SHL DUP2 MSTORE PUSH1 0x4 ADD PUSH1 0x40 MLOAD DUP1 SWAP2 SUB SWAP1 REVERT JUMPDEST PUSH1 0x1 PUSH1 0x1 PUSH1 0xA0 SHL SUB DUP5 AND PUSH0 SWAP1 DUP2 MSTORE PUSH1 0x8 PUSH1 0x20 SWAP1 DUP2 MSTORE PUSH1 0x40 DUP1 DUP4 KECCAK256 CALLER DUP5 MSTORE SWAP1 SWAP2 MSTORE SWAP1 KECCAK256 SLOAD PUSH0 NOT DUP2 EQ PUSH2 0xED1 JUMPI PUSH2 0xEAD DUP4 DUP3 PUSH2 0x2662 JUMP JUMPDEST PUSH1 0x1 PUSH1 0x1 PUSH1 0xA0 SHL SUB DUP7 AND PUSH0 SWAP1 DUP2 MSTORE PUSH1 0x8 PUSH1 0x20 SWAP1 DUP2 MSTORE PUSH1 0x40 DUP1 DUP4 KECCAK256 CALLER DUP5 MSTORE SWAP1 SWAP2 MSTORE SWAP1 KECCAK256 SSTORE JUMPDEST PUSH2 0xEDC DUP6 DUP6 DUP6 PUSH2 0x13CD JUMP JUMPDEST SWAP6 SWAP5 POP POP POP POP POP JUMP JUMPDEST PUSH1 0x1 PUSH1 0x1 PUSH1 0xA0 SHL SUB DUP4 AND PUSH2 0xF0C JUMPI PUSH1 0x40 MLOAD PUSH4 0x6EDAEF2F PUSH1 0xE1 SHL DUP2 MSTORE PUSH1 0x4 ADD PUSH1 0x40 MLOAD DUP1 SWAP2 SUB SWAP1 REVERT JUMPDEST PUSH1 0x1 PUSH1 0x1 PUSH1 0xA0 SHL SUB DUP3 AND PUSH2 0xF33 JUMPI PUSH1 0x40 MLOAD PUSH4 0x4E469669 PUSH1 0xE1 SHL DUP2 MSTORE PUSH1 0x4 ADD PUSH1 0x40 MLOAD DUP1 SWAP2 SUB SWAP1 REVERT JUMPDEST PUSH0 DUP2 DUP2 MSTORE PUSH1 0xB PUSH1 0x20 MSTORE PUSH1 0x40 SWAP1 KECCAK256 SLOAD PUSH1 0x1 PUSH1 0x1 PUSH1 0xA0 SHL SUB DUP5 DUP2 AND SWAP2 AND EQ PUSH2 0xF6B JUMPI PUSH1 0x40 MLOAD PUSH3 0x82B429 PUSH1 0xE8 SHL DUP2 MSTORE PUSH1 0x4 ADD PUSH1 0x40 MLOAD DUP1 SWAP2 SUB SWAP1 REVERT JUMPDEST CALLER PUSH1 0x1 PUSH1 0x1 PUSH1 0xA0 SHL SUB DUP5 AND EQ DUP1 ISZERO SWAP1 PUSH2 0xFA7 JUMPI POP PUSH1 0x1 PUSH1 0x1 PUSH1 0xA0 SHL SUB DUP4 AND PUSH0 SWAP1 DUP2 MSTORE PUSH1 0xA PUSH1 0x20 SWAP1 DUP2 MSTORE PUSH1 0x40 DUP1 DUP4 KECCAK256 CALLER DUP5 MSTORE SWAP1 SWAP2 MSTORE SWAP1 KECCAK256 SLOAD PUSH1 0xFF AND ISZERO JUMPDEST DUP1 ISZERO PUSH2 0xFC9 JUMPI POP PUSH0 DUP2 DUP2 MSTORE PUSH1 0x9 PUSH1 0x20 MSTORE PUSH1 0x40 SWAP1 KECCAK256 SLOAD PUSH1 0x1 PUSH1 0x1 PUSH1 0xA0 SHL SUB AND CALLER EQ ISZERO JUMPDEST ISZERO PUSH2 0xFE6 JUMPI PUSH1 0x40 MLOAD PUSH3 0x82B429 PUSH1 0xE8 SHL DUP2 MSTORE PUSH1 0x4 ADD PUSH1 0x40 MLOAD DUP1 SWAP2 SUB SWAP1 REVERT JUMPDEST PUSH2 0xFEF DUP3 PUSH2 0x6F2 JUMP JUMPDEST ISZERO PUSH2 0x100D JUMPI PUSH1 0x40 MLOAD PUSH4 0x5CE75397 PUSH1 0xE0 SHL DUP2 MSTORE PUSH1 0x4 ADD PUSH1 0x40 MLOAD DUP1 SWAP2 SUB SWAP1 REVERT JUMPDEST PUSH2 0x1038 DUP4 DUP4 PUSH32 0x0 PUSH2 0x17E6 JUMP JUMPDEST PUSH2 0x7CD DUP4 DUP4 DUP4 PUSH2 0x189F JUMP JUMPDEST PUSH0 DUP2 DUP2 MSTORE PUSH1 0xB PUSH1 0x20 MSTORE PUSH1 0x40 SWAP1 KECCAK256 SLOAD PUSH1 0x1 PUSH1 0x1 PUSH1 0xA0 SHL SUB AND CALLER DUP2 EQ DUP1 ISZERO SWAP1 PUSH2 0x108D JUMPI POP PUSH1 0x1 PUSH1 0x1 PUSH1 0xA0 SHL SUB DUP2 AND PUSH0 SWAP1 DUP2 MSTORE PUSH1 0xA PUSH1 0x20 SWAP1 DUP2 MSTORE PUSH1 0x40 DUP1 DUP4 KECCAK256 CALLER DUP5 MSTORE SWAP1 SWAP2 MSTORE SWAP1 KECCAK256 SLOAD PUSH1 0xFF AND ISZERO JUMPDEST ISZERO PUSH2 0x10AA JUMPI PUSH1 0x40 MLOAD PUSH3 0x82B429 PUSH1 0xE8 SHL DUP2 MSTORE PUSH1 0x4 ADD PUSH1 0x40 MLOAD DUP1 SWAP2 SUB SWAP1 REVERT JUMPDEST PUSH0 DUP3 DUP2 MSTORE PUSH1 0x9 PUSH1 0x20 MSTORE PUSH1 0x40 DUP1 DUP3 KECCAK256 DUP1 SLOAD PUSH1 0x1 PUSH1 0x1 PUSH1 0xA0 SHL SUB NOT AND PUSH1 0x1 PUSH1 0x1 PUSH1 0xA0 SHL SUB DUP8 DUP2 AND SWAP2 DUP3 OR SWAP1 SWAP3 SSTORE SWAP2 MLOAD DUP6 SWAP4 SWAP2 DUP6 AND SWAP2 PUSH32 0x8C5BE1E5EBEC7D5BD14F71427D1E84F3DD0314C0F7B2291E5B200AC8C7C3B925 SWAP2 LOG4 POP POP POP JUMP JUMPDEST PUSH2 0x110D PUSH2 0x12E4 JUMP JUMPDEST PUSH1 0x1 PUSH1 0x1 PUSH1 0xA0 SHL SUB DUP2 AND PUSH2 0x113B JUMPI PUSH1 0x40 MLOAD PUSH4 0x1E4FBDF7 PUSH1 0xE0 SHL DUP2 MSTORE PUSH0 PUSH1 0x4 DUP3 ADD MSTORE PUSH1 0x24 ADD JUMPDEST PUSH1 0x40 MLOAD DUP1 SWAP2 SUB SWAP1 REVERT JUMPDEST PUSH2 0x8E3 DUP2 PUSH2 0x1310 JUMP JUMPDEST PUSH1 0x60 PUSH0 DUP3 PUSH1 0x1 PUSH1 0x1 PUSH1 0x40 SHL SUB DUP2 GT ISZERO PUSH2 0x115F JUMPI PUSH2 0x115F PUSH2 0x23B7 JUMP JUMPDEST PUSH1 0x40 MLOAD SWAP1 DUP1 DUP3 MSTORE DUP1 PUSH1 0x20 MUL PUSH1 0x20 ADD DUP3 ADD PUSH1 0x40 MSTORE DUP1 ISZERO PUSH2 0x1188 JUMPI DUP2 PUSH1 0x20 ADD PUSH1 0x20 DUP3 MUL DUP1 CALLDATASIZE DUP4 CALLDATACOPY ADD SWAP1 POP JUMPDEST POP SWAP1 POP DUP4 JUMPDEST PUSH2 0x1197 DUP5 DUP7 PUSH2 0x25B4 JUMP JUMPDEST DUP2 LT ISZERO PUSH2 0x11E9 JUMPI PUSH2 0x11A9 PUSH1 0x1 DUP3 PUSH2 0x1AF6 JUMP JUMPDEST PUSH2 0x11BB SWAP1 PUSH2 0xFFFF AND PUSH1 0x1 PUSH1 0xFF SHL PUSH2 0x25B4 JUMP JUMPDEST DUP3 PUSH2 0x11C6 DUP8 DUP5 PUSH2 0x2662 JUMP JUMPDEST DUP2 MLOAD DUP2 LT PUSH2 0x11D6 JUMPI PUSH2 0x11D6 PUSH2 0x258C JUMP JUMPDEST PUSH1 0x20 SWAP1 DUP2 MUL SWAP2 SWAP1 SWAP2 ADD ADD MSTORE PUSH1 0x1 ADD PUSH2 0x118D JUMP JUMPDEST POP SWAP4 SWAP3 POP POP POP JUMP JUMPDEST PUSH0 PUSH1 0x1 PUSH1 0xFF SHL DUP3 GT DUP1 ISZERO PUSH2 0x618 JUMPI POP POP PUSH0 NOT EQ ISZERO SWAP1 JUMP JUMPDEST SLOAD PUSH1 0xF NOT PUSH1 0x1 PUSH1 0x1 PUSH1 0x40 SHL SUB DUP1 DUP4 AND PUSH1 0x10 SWAP1 DUP2 MUL PUSH1 0x1 PUSH1 0x40 SHL DUP6 DIV DUP4 AND DUP3 SUB PUSH1 0x1 PUSH1 0xC0 SHL DUP7 DIV DUP5 AND ADD PUSH1 0x1 PUSH1 0x80 SHL SWAP1 SWAP6 DIV DUP4 AND SWAP1 SWAP2 MUL SWAP4 SWAP1 SWAP4 ADD SWAP3 SWAP1 SWAP3 SUB ADD AND SWAP1 JUMP JUMPDEST PUSH0 PUSH32 0x8B73C3C69BB8FE3D512ECC4CF759CC79239F7B179B0FFACAA9A75D522B39400F PUSH1 0x3 PUSH1 0x40 MLOAD PUSH2 0x127C SWAP2 SWAP1 PUSH2 0x2675 JUMP JUMPDEST PUSH1 0x40 DUP1 MLOAD SWAP2 DUP3 SWAP1 SUB DUP3 KECCAK256 PUSH1 0x20 DUP4 ADD SWAP4 SWAP1 SWAP4 MSTORE DUP2 ADD SWAP2 SWAP1 SWAP2 MSTORE PUSH32 0xC89EFDAA54C0F20C7ADF612882DF0950F5A951637E0307CDCB4C672F298B8BC6 PUSH1 0x60 DUP3 ADD MSTORE CHAINID PUSH1 0x80 DUP3 ADD MSTORE ADDRESS PUSH1 0xA0 DUP3 ADD MSTORE PUSH1 0xC0 ADD PUSH1 0x40 MLOAD PUSH1 0x20 DUP2 DUP4 SUB SUB DUP2 MSTORE SWAP1 PUSH1 0x40 MSTORE DUP1 MLOAD SWAP1 PUSH1 0x20 ADD KECCAK256 SWAP1 POP SWAP1 JUMP JUMPDEST PUSH0 SLOAD PUSH1 0x1 PUSH1 0x1 PUSH1 0xA0 SHL SUB AND CALLER EQ PUSH2 0x8D7 JUMPI PUSH1 0x40 MLOAD PUSH4 0x118CDAA7 PUSH1 0xE0 SHL DUP2 MSTORE CALLER PUSH1 0x4 DUP3 ADD MSTORE PUSH1 0x24 ADD PUSH2 0x1132 JUMP JUMPDEST PUSH0 DUP1 SLOAD PUSH1 0x1 PUSH1 0x1 PUSH1 0xA0 SHL SUB DUP4 DUP2 AND PUSH1 0x1 PUSH1 0x1 PUSH1 0xA0 SHL SUB NOT DUP4 AND DUP2 OR DUP5 SSTORE PUSH1 0x40 MLOAD SWAP2 SWAP1 SWAP3 AND SWAP3 DUP4 SWAP2 PUSH32 0x8BE0079C531659141344CD1FD0A4F28419497F9722A3DAAFE3B4186F6B6457E0 SWAP2 SWAP1 LOG3 POP POP JUMP JUMPDEST PUSH1 0x1 PUSH1 0x1 PUSH1 0xA0 SHL SUB DUP3 AND PUSH2 0x1386 JUMPI PUSH1 0x40 MLOAD PUSH4 0xA41E3D3F PUSH1 0xE0 SHL DUP2 MSTORE PUSH1 0x4 ADD PUSH1 0x40 MLOAD DUP1 SWAP2 SUB SWAP1 REVERT JUMPDEST DUP1 ISZERO PUSH2 0x139A JUMPI PUSH2 0x1395 DUP3 PUSH2 0x1BA5 JUMP JUMPDEST PUSH2 0x13A3 JUMP JUMPDEST PUSH2 0x13A3 DUP3 PUSH2 0x1BD8 JUMP JUMPDEST PUSH1 0x1 PUSH1 0x1 PUSH1 0xA0 SHL SUB SWAP2 SWAP1 SWAP2 AND PUSH0 SWAP1 DUP2 MSTORE PUSH1 0xD PUSH1 0x20 MSTORE PUSH1 0x40 SWAP1 KECCAK256 DUP1 SLOAD PUSH1 0xFF NOT AND SWAP2 ISZERO ISZERO SWAP2 SWAP1 SWAP2 OR SWAP1 SSTORE JUMP JUMPDEST PUSH1 0x1 PUSH1 0x1 PUSH1 0xA0 SHL SUB DUP4 DUP2 AND PUSH0 SWAP1 DUP2 MSTORE PUSH1 0x7 PUSH1 0x20 MSTORE PUSH1 0x40 DUP1 DUP3 KECCAK256 SLOAD SWAP3 DUP6 AND DUP3 MSTORE DUP2 KECCAK256 SLOAD SWAP1 SWAP2 SWAP1 PUSH2 0x13FD DUP7 DUP7 DUP7 PUSH2 0x17E6 JUMP JUMPDEST PUSH0 PUSH2 0x1407 DUP8 PUSH2 0x6F2 JUMP JUMPDEST SWAP1 POP PUSH0 PUSH2 0x1413 DUP8 PUSH2 0x6F2 JUMP JUMPDEST SWAP1 POP DUP2 DUP1 ISZERO PUSH2 0x141F JUMPI POP DUP1 JUMPDEST PUSH2 0x1749 JUMPI DUP2 ISZERO PUSH2 0x14C5 JUMPI PUSH0 PUSH2 0x1454 PUSH32 0x0 DUP6 PUSH2 0x2725 JUMP JUMPDEST PUSH1 0x1 PUSH1 0x1 PUSH1 0xA0 SHL SUB DUP10 AND PUSH0 SWAP1 DUP2 MSTORE PUSH1 0x7 PUSH1 0x20 MSTORE PUSH1 0x40 SWAP1 KECCAK256 SLOAD PUSH2 0x1497 SWAP1 PUSH32 0x0 SWAP1 PUSH2 0x2725 JUMP JUMPDEST PUSH2 0x14A1 SWAP2 SWAP1 PUSH2 0x2662 JUMP JUMPDEST SWAP1 POP PUSH0 JUMPDEST DUP2 DUP2 LT ISZERO PUSH2 0x14BE JUMPI PUSH2 0x14B6 DUP10 PUSH2 0x1C62 JUMP JUMPDEST PUSH1 0x1 ADD PUSH2 0x14A5 JUMP JUMPDEST POP POP PUSH2 0x1749 JUMP JUMPDEST DUP1 ISZERO PUSH2 0x155F JUMPI PUSH1 0x1 PUSH1 0x1 PUSH1 0xA0 SHL SUB DUP9 AND PUSH0 SWAP1 DUP2 MSTORE PUSH1 0x7 PUSH1 0x20 MSTORE PUSH1 0x40 DUP2 KECCAK256 SLOAD PUSH2 0x150E SWAP1 PUSH32 0x0 SWAP1 PUSH2 0x2725 JUMP JUMPDEST PUSH2 0x1538 PUSH32 0x0 DUP8 PUSH2 0x2725 JUMP JUMPDEST PUSH2 0x1542 SWAP2 SWAP1 PUSH2 0x2662 JUMP JUMPDEST SWAP1 POP PUSH0 JUMPDEST DUP2 DUP2 LT ISZERO PUSH2 0x14BE JUMPI PUSH2 0x1557 DUP11 PUSH2 0x1D45 JUMP JUMPDEST PUSH1 0x1 ADD PUSH2 0x1546 JUMP JUMPDEST PUSH0 PUSH2 0x158A PUSH32 0x0 DUP9 PUSH2 0x2725 JUMP JUMPDEST SWAP1 POP PUSH0 JUMPDEST DUP2 DUP2 LT ISZERO PUSH2 0x162C JUMPI PUSH1 0x1 PUSH1 0x1 PUSH1 0xA0 SHL SUB DUP11 AND PUSH0 SWAP1 DUP2 MSTORE PUSH1 0xC PUSH1 0x20 MSTORE PUSH1 0x40 DUP2 KECCAK256 SLOAD PUSH2 0x15BA SWAP1 PUSH1 0x1 SWAP1 PUSH2 0x2662 JUMP JUMPDEST PUSH1 0x1 PUSH1 0x1 PUSH1 0xA0 SHL SUB DUP13 AND PUSH0 SWAP1 DUP2 MSTORE PUSH1 0xC PUSH1 0x20 MSTORE PUSH1 0x40 DUP2 KECCAK256 DUP1 SLOAD SWAP3 SWAP4 POP SWAP1 SWAP2 DUP4 SWAP1 DUP2 LT PUSH2 0x15E8 JUMPI PUSH2 0x15E8 PUSH2 0x258C JUMP JUMPDEST PUSH0 SWAP2 DUP3 MSTORE PUSH1 0x20 SWAP1 SWAP2 KECCAK256 PUSH1 0x10 DUP3 DIV ADD SLOAD PUSH2 0x1615 SWAP2 PUSH1 0xF AND PUSH1 0x2 MUL PUSH2 0x100 EXP SWAP1 DIV PUSH2 0xFFFF AND PUSH1 0x1 PUSH1 0xFF SHL PUSH2 0x25B4 JUMP JUMPDEST SWAP1 POP PUSH2 0x1622 DUP13 DUP13 DUP4 PUSH2 0x189F JUMP JUMPDEST POP POP PUSH1 0x1 ADD PUSH2 0x158E JUMP JUMPDEST POP DUP1 PUSH32 0x0 PUSH2 0x166D DUP12 PUSH1 0x1 PUSH1 0x1 PUSH1 0xA0 SHL SUB AND PUSH0 SWAP1 DUP2 MSTORE PUSH1 0x7 PUSH1 0x20 MSTORE PUSH1 0x40 SWAP1 KECCAK256 SLOAD SWAP1 JUMP JUMPDEST PUSH2 0x1677 SWAP2 SWAP1 PUSH2 0x2725 JUMP JUMPDEST PUSH2 0x16A1 PUSH32 0x0 DUP9 PUSH2 0x2725 JUMP JUMPDEST PUSH2 0x16AB SWAP2 SWAP1 PUSH2 0x2662 JUMP JUMPDEST GT ISZERO PUSH2 0x16BA JUMPI PUSH2 0x16BA DUP10 PUSH2 0x1D45 JUMP JUMPDEST DUP1 PUSH2 0x16E5 PUSH32 0x0 DUP7 PUSH2 0x2725 JUMP JUMPDEST PUSH32 0x0 PUSH2 0x1724 DUP12 PUSH1 0x1 PUSH1 0x1 PUSH1 0xA0 SHL SUB AND PUSH0 SWAP1 DUP2 MSTORE PUSH1 0x7 PUSH1 0x20 MSTORE PUSH1 0x40 SWAP1 KECCAK256 SLOAD SWAP1 JUMP JUMPDEST PUSH2 0x172E SWAP2 SWAP1 PUSH2 0x2725 JUMP JUMPDEST PUSH2 0x1738 SWAP2 SWAP1 PUSH2 0x2662 JUMP JUMPDEST GT ISZERO PUSH2 0x1747 JUMPI PUSH2 0x1747 DUP9 PUSH2 0x1C62 JUMP JUMPDEST POP JUMPDEST POP PUSH1 0x1 SWAP8 SWAP7 POP POP POP POP POP POP POP JUMP JUMPDEST PUSH1 0x60 PUSH0 PUSH2 0x1763 DUP4 PUSH2 0x1DE6 JUMP JUMPDEST PUSH1 0x1 ADD SWAP1 POP PUSH0 DUP2 PUSH1 0x1 PUSH1 0x1 PUSH1 0x40 SHL SUB DUP2 GT ISZERO PUSH2 0x1781 JUMPI PUSH2 0x1781 PUSH2 0x23B7 JUMP JUMPDEST PUSH1 0x40 MLOAD SWAP1 DUP1 DUP3 MSTORE DUP1 PUSH1 0x1F ADD PUSH1 0x1F NOT AND PUSH1 0x20 ADD DUP3 ADD PUSH1 0x40 MSTORE DUP1 ISZERO PUSH2 0x17AB JUMPI PUSH1 0x20 DUP3 ADD DUP2 DUP1 CALLDATASIZE DUP4 CALLDATACOPY ADD SWAP1 POP JUMPDEST POP SWAP1 POP DUP2 DUP2 ADD PUSH1 0x20 ADD JUMPDEST PUSH0 NOT ADD PUSH16 0x181899199A1A9B1B9C1CB0B131B232B3 PUSH1 0x81 SHL PUSH1 0xA DUP7 MOD BYTE DUP2 MSTORE8 PUSH1 0xA DUP6 DIV SWAP5 POP DUP5 PUSH2 0x17B5 JUMPI POP SWAP4 SWAP3 POP POP POP JUMP JUMPDEST PUSH1 0x1 PUSH1 0x1 PUSH1 0xA0 SHL SUB DUP4 AND PUSH2 0x1810 JUMPI DUP1 PUSH1 0x5 PUSH0 DUP3 DUP3 SLOAD PUSH2 0x1805 SWAP2 SWAP1 PUSH2 0x25B4 JUMP JUMPDEST SWAP1 SWAP2 SSTORE POP PUSH2 0x183D SWAP1 POP JUMP JUMPDEST PUSH1 0x1 PUSH1 0x1 PUSH1 0xA0 SHL SUB DUP4 AND PUSH0 SWAP1 DUP2 MSTORE PUSH1 0x7 PUSH1 0x20 MSTORE PUSH1 0x40 DUP2 KECCAK256 DUP1 SLOAD DUP4 SWAP3 SWAP1 PUSH2 0x1837 SWAP1 DUP5 SWAP1 PUSH2 0x2662 JUMP JUMPDEST SWAP1 SWAP2 SSTORE POP POP JUMPDEST PUSH1 0x1 PUSH1 0x1 PUSH1 0xA0 SHL SUB DUP1 DUP4 AND PUSH0 DUP2 DUP2 MSTORE PUSH1 0x7 PUSH1 0x20 MSTORE PUSH1 0x40 SWAP1 DUP2 SWAP1 KECCAK256 DUP1 SLOAD DUP6 ADD SWAP1 SSTORE MLOAD SWAP1 SWAP2 DUP6 AND SWAP1 PUSH32 0xDDF252AD1BE2C89B69C2B068FC378DAA952BA7F163C4A11628F55A4DF523B3EF SWAP1 PUSH2 0x1892 SWAP1 DUP6 DUP2 MSTORE PUSH1 0x20 ADD SWAP1 JUMP JUMPDEST PUSH1 0x40 MLOAD DUP1 SWAP2 SUB SWAP1 LOG3 POP POP POP JUMP JUMPDEST PUSH1 0x1 PUSH1 0x1 PUSH1 0xA0 SHL SUB DUP4 AND ISZERO PUSH2 0x19FD JUMPI PUSH0 DUP2 DUP2 MSTORE PUSH1 0x9 PUSH1 0x20 SWAP1 DUP2 MSTORE PUSH1 0x40 DUP1 DUP4 KECCAK256 DUP1 SLOAD PUSH1 0x1 PUSH1 0x1 PUSH1 0xA0 SHL SUB NOT AND SWAP1 SSTORE PUSH1 0x1 PUSH1 0x1 PUSH1 0xA0 SHL SUB DUP7 AND DUP4 MSTORE PUSH1 0xC SWAP1 SWAP2 MSTORE DUP2 KECCAK256 DUP1 SLOAD PUSH2 0x18ED SWAP1 PUSH1 0x1 SWAP1 PUSH2 0x2662 JUMP JUMPDEST DUP2 SLOAD DUP2 LT PUSH2 0x18FD JUMPI PUSH2 0x18FD PUSH2 0x258C JUMP JUMPDEST PUSH0 SWAP2 DUP3 MSTORE PUSH1 0x20 SWAP1 SWAP2 KECCAK256 PUSH1 0x10 DUP3 DIV ADD SLOAD PUSH2 0x192A SWAP2 PUSH1 0xF AND PUSH1 0x2 MUL PUSH2 0x100 EXP SWAP1 DIV PUSH2 0xFFFF AND PUSH1 0x1 PUSH1 0xFF SHL PUSH2 0x25B4 JUMP JUMPDEST SWAP1 POP DUP2 DUP2 EQ PUSH2 0x19AB JUMPI PUSH0 DUP3 DUP2 MSTORE PUSH1 0xB PUSH1 0x20 MSTORE PUSH1 0x40 DUP2 KECCAK256 SLOAD PUSH1 0xA0 SHR PUSH1 0x1 PUSH1 0x1 PUSH1 0xA0 SHL SUB DUP7 AND PUSH0 SWAP1 DUP2 MSTORE PUSH1 0xC PUSH1 0x20 MSTORE PUSH1 0x40 SWAP1 KECCAK256 DUP1 SLOAD SWAP2 SWAP3 POP DUP4 SWAP2 DUP4 SWAP1 DUP2 LT PUSH2 0x1972 JUMPI PUSH2 0x1972 PUSH2 0x258C JUMP JUMPDEST SWAP1 PUSH0 MSTORE PUSH1 0x20 PUSH0 KECCAK256 SWAP1 PUSH1 0x10 SWAP2 DUP3 DUP3 DIV ADD SWAP2 SWAP1 MOD PUSH1 0x2 MUL PUSH2 0x100 EXP DUP2 SLOAD DUP2 PUSH2 0xFFFF MUL NOT AND SWAP1 DUP4 PUSH2 0xFFFF AND MUL OR SWAP1 SSTORE POP PUSH2 0x19A9 DUP3 DUP3 PUSH2 0x1EBD JUMP JUMPDEST POP JUMPDEST PUSH1 0x1 PUSH1 0x1 PUSH1 0xA0 SHL SUB DUP5 AND PUSH0 SWAP1 DUP2 MSTORE PUSH1 0xC PUSH1 0x20 MSTORE PUSH1 0x40 SWAP1 KECCAK256 DUP1 SLOAD DUP1 PUSH2 0x19D1 JUMPI PUSH2 0x19D1 PUSH2 0x2744 JUMP JUMPDEST PUSH0 DUP3 DUP2 MSTORE PUSH1 0x20 SWAP1 KECCAK256 PUSH1 0x10 PUSH0 NOT SWAP1 SWAP3 ADD SWAP2 DUP3 DIV ADD DUP1 SLOAD PUSH2 0xFFFF PUSH1 0x2 PUSH1 0xF DUP6 AND MUL PUSH2 0x100 EXP MUL NOT AND SWAP1 SSTORE SWAP1 SSTORE POP JUMPDEST PUSH1 0x1 PUSH1 0x1 PUSH1 0xA0 SHL SUB DUP3 AND ISZERO PUSH2 0x1AA1 JUMPI PUSH0 DUP2 DUP2 MSTORE PUSH1 0xB PUSH1 0x20 MSTORE PUSH1 0x40 SWAP1 KECCAK256 DUP1 SLOAD PUSH1 0x1 PUSH1 0x1 PUSH1 0xA0 SHL SUB NOT AND PUSH1 0x1 PUSH1 0x1 PUSH1 0xA0 SHL SUB DUP5 AND ADD SWAP1 SSTORE PUSH1 0x1 PUSH1 0x1 PUSH1 0xA0 SHL SUB DUP3 AND PUSH0 DUP2 DUP2 MSTORE PUSH1 0xC PUSH1 0x20 SWAP1 DUP2 MSTORE PUSH1 0x40 DUP3 KECCAK256 DUP1 SLOAD PUSH1 0x1 DUP1 DUP3 ADD DUP4 SSTORE DUP3 DUP6 MSTORE SWAP3 DUP5 KECCAK256 PUSH1 0x10 DUP3 DIV ADD DUP1 SLOAD PUSH1 0xF SWAP1 SWAP3 AND PUSH1 0x2 MUL PUSH2 0x100 EXP PUSH2 0xFFFF DUP2 DUP2 MUL NOT SWAP1 SWAP4 AND SWAP3 DUP9 AND MUL SWAP2 SWAP1 SWAP2 OR SWAP1 SSTORE SWAP3 SWAP1 SWAP2 MSTORE SWAP1 SLOAD PUSH2 0x1A9C SWAP2 DUP4 SWAP2 PUSH2 0x1A97 SWAP2 SWAP1 PUSH2 0x2662 JUMP JUMPDEST PUSH2 0x1EBD JUMP JUMPDEST PUSH2 0x1AB0 JUMP JUMPDEST PUSH0 DUP2 DUP2 MSTORE PUSH1 0xB PUSH1 0x20 MSTORE PUSH1 0x40 DUP2 KECCAK256 SSTORE JUMPDEST DUP1 DUP3 PUSH1 0x1 PUSH1 0x1 PUSH1 0xA0 SHL SUB AND DUP5 PUSH1 0x1 PUSH1 0x1 PUSH1 0xA0 SHL SUB AND PUSH32 0xDDF252AD1BE2C89B69C2B068FC378DAA952BA7F163C4A11628F55A4DF523B3EF PUSH1 0x40 MLOAD PUSH1 0x40 MLOAD DUP1 SWAP2 SUB SWAP1 LOG4 POP POP POP JUMP JUMPDEST PUSH0 PUSH2 0x1B00 DUP4 PUSH2 0x1208 JUMP JUMPDEST PUSH2 0x1B0B SWAP1 PUSH1 0x10 PUSH2 0x2758 JUMP JUMPDEST DUP3 LT PUSH2 0x1B2A JUMPI PUSH1 0x40 MLOAD PUSH4 0x580821E7 PUSH1 0xE0 SHL DUP2 MSTORE PUSH1 0x4 ADD PUSH1 0x40 MLOAD DUP1 SWAP2 SUB SWAP1 REVERT JUMPDEST PUSH2 0x757 PUSH1 0x1 DUP5 ADD PUSH0 PUSH1 0x10 DUP6 DIV PUSH1 0x10 DUP1 DUP8 DUP10 SLOAD PUSH1 0x1 PUSH1 0x1 PUSH1 0x40 SHL SUB PUSH1 0x1 PUSH1 0x40 SHL SWAP1 SWAP2 DIV DUP2 AND SWAP3 SWAP1 SWAP2 MOD SWAP2 SWAP1 SWAP2 ADD AND DUP2 PUSH2 0x1B64 JUMPI PUSH2 0x1B64 PUSH2 0x2711 JUMP JUMPDEST DUP9 SLOAD SWAP2 SWAP1 DIV PUSH1 0x1 PUSH1 0x1 PUSH1 0x40 SHL SUB DUP1 DUP4 AND SWAP2 SWAP1 SWAP2 ADD SWAP3 SWAP1 SWAP3 ADD DUP3 AND DUP4 MSTORE PUSH1 0x20 DUP4 ADD SWAP4 SWAP1 SWAP4 MSTORE PUSH1 0x40 SWAP1 SWAP2 ADD PUSH0 KECCAK256 SLOAD SWAP2 PUSH1 0x10 SWAP2 PUSH1 0x1 PUSH1 0x40 SHL SWAP1 SWAP2 DIV AND DUP6 ADD MOD PUSH2 0x1F27 JUMP JUMPDEST PUSH1 0x1 PUSH1 0x1 PUSH1 0xA0 SHL SUB DUP2 AND PUSH0 SWAP1 DUP2 MSTORE PUSH1 0xC PUSH1 0x20 MSTORE PUSH1 0x40 DUP2 KECCAK256 SLOAD SWAP1 JUMPDEST DUP2 DUP2 LT ISZERO PUSH2 0x7CD JUMPI PUSH2 0x1BD0 DUP4 PUSH2 0x1D45 JUMP JUMPDEST PUSH1 0x1 ADD PUSH2 0x1BBF JUMP JUMPDEST PUSH1 0x1 PUSH1 0x1 PUSH1 0xA0 SHL SUB DUP2 AND PUSH0 SWAP1 DUP2 MSTORE PUSH1 0x7 PUSH1 0x20 MSTORE PUSH1 0x40 DUP2 KECCAK256 SLOAD PUSH2 0x1C1B SWAP1 PUSH32 0x0 SWAP1 PUSH2 0x2725 JUMP JUMPDEST SWAP1 POP PUSH0 PUSH2 0x1C3C DUP4 PUSH1 0x1 PUSH1 0x1 PUSH1 0xA0 SHL SUB AND PUSH0 SWAP1 DUP2 MSTORE PUSH1 0xC PUSH1 0x20 MSTORE PUSH1 0x40 SWAP1 KECCAK256 SLOAD SWAP1 JUMP JUMPDEST SWAP1 POP PUSH0 JUMPDEST PUSH2 0x1C4A DUP3 DUP5 PUSH2 0x2662 JUMP JUMPDEST DUP2 LT ISZERO PUSH2 0xB9F JUMPI PUSH2 0x1C5A DUP5 PUSH2 0x1C62 JUMP JUMPDEST PUSH1 0x1 ADD PUSH2 0x1C40 JUMP JUMPDEST PUSH1 0x1 PUSH1 0x1 PUSH1 0xA0 SHL SUB DUP2 AND PUSH2 0x1C89 JUMPI PUSH1 0x40 MLOAD PUSH4 0x4E469669 PUSH1 0xE1 SHL DUP2 MSTORE PUSH1 0x4 ADD PUSH1 0x40 MLOAD DUP1 SWAP2 SUB SWAP1 REVERT JUMPDEST PUSH0 PUSH2 0x1C94 PUSH1 0x1 PUSH2 0x1F51 JUMP JUMPDEST PUSH2 0x1CBB JUMPI PUSH2 0x1CA2 PUSH1 0x1 PUSH2 0x1F92 JUMP JUMPDEST PUSH2 0x1CB4 SWAP1 PUSH2 0xFFFF AND PUSH1 0x1 PUSH1 0xFF SHL PUSH2 0x25B4 JUMP JUMPDEST SWAP1 POP PUSH2 0x1D04 JUMP JUMPDEST PUSH1 0x6 PUSH0 DUP2 SLOAD PUSH2 0x1CC9 SWAP1 PUSH2 0x276F JUMP JUMPDEST SWAP1 SWAP2 SSTORE POP PUSH1 0x6 SLOAD PUSH1 0x1 ADD PUSH2 0x1CF0 JUMPI PUSH1 0x40 MLOAD PUSH4 0x303B682F PUSH1 0xE0 SHL DUP2 MSTORE PUSH1 0x4 ADD PUSH1 0x40 MLOAD DUP1 SWAP2 SUB SWAP1 REVERT JUMPDEST PUSH1 0x6 SLOAD PUSH2 0x1D01 SWAP1 PUSH1 0x1 PUSH1 0xFF SHL PUSH2 0x25B4 JUMP JUMPDEST SWAP1 POP JUMPDEST PUSH0 DUP2 DUP2 MSTORE PUSH1 0xB PUSH1 0x20 MSTORE PUSH1 0x40 SWAP1 KECCAK256 SLOAD PUSH1 0x1 PUSH1 0x1 PUSH1 0xA0 SHL SUB AND DUP1 ISZERO PUSH2 0x1D3A JUMPI PUSH1 0x40 MLOAD PUSH4 0x119B4FD3 PUSH1 0xE1 SHL DUP2 MSTORE PUSH1 0x4 ADD PUSH1 0x40 MLOAD DUP1 SWAP2 SUB SWAP1 REVERT JUMPDEST PUSH2 0x7CD DUP2 DUP5 DUP5 PUSH2 0x189F JUMP JUMPDEST PUSH1 0x1 PUSH1 0x1 PUSH1 0xA0 SHL SUB DUP2 AND PUSH2 0x1D6C JUMPI PUSH1 0x40 MLOAD PUSH4 0x6EDAEF2F PUSH1 0xE1 SHL DUP2 MSTORE PUSH1 0x4 ADD PUSH1 0x40 MLOAD DUP1 SWAP2 SUB SWAP1 REVERT JUMPDEST PUSH1 0x1 PUSH1 0x1 PUSH1 0xA0 SHL SUB DUP2 AND PUSH0 SWAP1 DUP2 MSTORE PUSH1 0xC PUSH1 0x20 MSTORE PUSH1 0x40 DUP2 KECCAK256 DUP1 SLOAD PUSH2 0x1D91 SWAP1 PUSH1 0x1 SWAP1 PUSH2 0x2662 JUMP JUMPDEST DUP2 SLOAD DUP2 LT PUSH2 0x1DA1 JUMPI PUSH2 0x1DA1 PUSH2 0x258C JUMP JUMPDEST PUSH0 SWAP2 DUP3 MSTORE PUSH1 0x20 SWAP1 SWAP2 KECCAK256 PUSH1 0x10 DUP3 DIV ADD SLOAD PUSH2 0x1DCE SWAP2 PUSH1 0xF AND PUSH1 0x2 MUL PUSH2 0x100 EXP SWAP1 DIV PUSH2 0xFFFF AND PUSH1 0x1 PUSH1 0xFF SHL PUSH2 0x25B4 JUMP JUMPDEST SWAP1 POP PUSH2 0x1DDB DUP3 PUSH0 DUP4 PUSH2 0x189F JUMP JUMPDEST PUSH2 0xBB7 PUSH1 0x1 DUP3 PUSH2 0x209F JUMP JUMPDEST PUSH0 DUP1 PUSH19 0x184F03E93FF9F4DAA797ED6E38ED64BF6A1F01 PUSH1 0x40 SHL DUP4 LT PUSH2 0x1E24 JUMPI PUSH19 0x184F03E93FF9F4DAA797ED6E38ED64BF6A1F01 PUSH1 0x40 SHL DUP4 DIV SWAP3 POP PUSH1 0x40 ADD JUMPDEST PUSH14 0x4EE2D6D415B85ACEF8100000000 DUP4 LT PUSH2 0x1E50 JUMPI PUSH14 0x4EE2D6D415B85ACEF8100000000 DUP4 DIV SWAP3 POP PUSH1 0x20 ADD JUMPDEST PUSH7 0x2386F26FC10000 DUP4 LT PUSH2 0x1E6E JUMPI PUSH7 0x2386F26FC10000 DUP4 DIV SWAP3 POP PUSH1 0x10 ADD JUMPDEST PUSH4 0x5F5E100 DUP4 LT PUSH2 0x1E86 JUMPI PUSH4 0x5F5E100 DUP4 DIV SWAP3 POP PUSH1 0x8 ADD JUMPDEST PUSH2 0x2710 DUP4 LT PUSH2 0x1E9A JUMPI PUSH2 0x2710 DUP4 DIV SWAP3 POP PUSH1 0x4 ADD JUMPDEST PUSH1 0x64 DUP4 LT PUSH2 0x1EAC JUMPI PUSH1 0x64 DUP4 DIV SWAP3 POP PUSH1 0x2 ADD JUMPDEST PUSH1 0xA DUP4 LT PUSH2 0x618 JUMPI PUSH1 0x1 ADD SWAP3 SWAP2 POP POP JUMP JUMPDEST PUSH0 DUP3 DUP2 MSTORE PUSH1 0xB PUSH1 0x20 MSTORE PUSH1 0x40 SWAP1 KECCAK256 SLOAD PUSH12 0xFFFFFFFFFFFFFFFFFFFFFFFF DUP3 GT ISZERO PUSH2 0x1EF8 JUMPI PUSH1 0x40 MLOAD PUSH4 0x3F2CD0E3 PUSH1 0xE2 SHL DUP2 MSTORE PUSH1 0x4 ADD PUSH1 0x40 MLOAD DUP1 SWAP2 SUB SWAP1 REVERT JUMPDEST PUSH0 SWAP3 DUP4 MSTORE PUSH1 0xB PUSH1 0x20 MSTORE PUSH1 0x40 SWAP1 SWAP3 KECCAK256 PUSH1 0x1 PUSH1 0x1 PUSH1 0xA0 SHL SUB SWAP3 SWAP1 SWAP3 AND PUSH1 0xA0 SWAP2 SWAP1 SWAP2 SHL PUSH1 0x1 PUSH1 0x1 PUSH1 0xA0 SHL SUB NOT AND ADD SWAP1 SSTORE JUMP JUMPDEST PUSH0 PUSH2 0x1F33 DUP3 PUSH1 0x10 PUSH2 0x2787 JUMP JUMPDEST PUSH1 0x1 PUSH1 0x1 PUSH1 0x40 SHL SUB AND PUSH2 0x1F45 DUP4 PUSH2 0x218A JUMP JUMPDEST DUP5 AND SWAP1 SHR SWAP1 POP SWAP3 SWAP2 POP POP JUMP JUMPDEST DUP1 SLOAD PUSH0 SWAP1 PUSH1 0x1 PUSH1 0xC0 SHL DUP2 DIV PUSH1 0x1 PUSH1 0x1 PUSH1 0x40 SHL SUB SWAP1 DUP2 AND PUSH1 0x1 PUSH1 0x40 SHL SWAP1 SWAP3 DIV AND EQ DUP1 ISZERO PUSH2 0x618 JUMPI POP POP SLOAD PUSH1 0x1 PUSH1 0x1 PUSH1 0x40 SHL SUB DUP1 DUP3 AND PUSH1 0x1 PUSH1 0x80 SHL SWAP1 SWAP3 DIV AND EQ SWAP1 JUMP JUMPDEST DUP1 SLOAD PUSH0 SWAP1 PUSH1 0x1 PUSH1 0x1 PUSH1 0x40 SHL SUB PUSH1 0x1 PUSH1 0x80 SHL DUP3 DIV DUP2 AND SWAP2 PUSH1 0x1 PUSH1 0xC0 SHL DUP2 DIV DUP3 AND SWAP2 AND DUP3 EQ DUP1 ISZERO PUSH2 0x1FD4 JUMPI POP DUP4 SLOAD PUSH1 0x1 PUSH1 0x1 PUSH1 0x40 SHL SUB DUP3 DUP2 AND PUSH1 0x1 PUSH1 0x40 SHL SWAP1 SWAP3 DIV AND EQ JUMPDEST ISZERO PUSH2 0x1FF2 JUMPI PUSH1 0x40 MLOAD PUSH4 0x75E52F4F PUSH1 0xE0 SHL DUP2 MSTORE PUSH1 0x4 ADD PUSH1 0x40 MLOAD DUP1 SWAP2 SUB SWAP1 REVERT JUMPDEST DUP1 PUSH1 0x1 PUSH1 0x1 PUSH1 0x40 SHL SUB AND PUSH0 SUB PUSH2 0x200D JUMPI POP PUSH0 NOT ADD PUSH1 0xF PUSH2 0x2011 JUMP JUMPDEST PUSH0 NOT ADD JUMPDEST PUSH1 0x1 PUSH1 0x1 PUSH1 0x40 SHL SUB DUP3 AND PUSH0 SWAP1 DUP2 MSTORE PUSH1 0x1 DUP6 ADD PUSH1 0x20 MSTORE PUSH1 0x40 SWAP1 KECCAK256 SLOAD PUSH2 0x2035 DUP2 DUP4 PUSH2 0x1F27 JUMP JUMPDEST SWAP4 POP PUSH2 0x2042 DUP2 DUP4 PUSH0 PUSH2 0x21AB JUMP JUMPDEST PUSH1 0x1 PUSH1 0x1 PUSH1 0x40 SHL SUB SWAP4 DUP5 AND PUSH0 DUP2 DUP2 MSTORE PUSH1 0x1 DUP9 ADD PUSH1 0x20 MSTORE PUSH1 0x40 SWAP1 KECCAK256 SWAP2 SWAP1 SWAP2 SSTORE DUP6 SLOAD PUSH16 0xFFFFFFFFFFFFFFFFFFFFFFFFFFFFFFFF AND PUSH1 0x1 PUSH1 0x80 SHL SWAP1 SWAP2 MUL PUSH1 0x1 PUSH1 0x1 PUSH1 0xC0 SHL SUB AND OR PUSH1 0x1 PUSH1 0xC0 SHL SWAP3 SWAP1 SWAP4 AND SWAP2 SWAP1 SWAP2 MUL SWAP2 SWAP1 SWAP2 OR SWAP1 SWAP3 SSTORE SWAP2 SWAP1 POP JUMP JUMPDEST DUP2 SLOAD PUSH1 0x1 PUSH1 0x1 PUSH1 0x40 SHL SUB DUP1 DUP3 AND SWAP2 PUSH1 0x1 PUSH1 0x40 SHL SWAP1 DIV AND PUSH0 DUP2 SWAP1 SUB PUSH2 0x20C8 JUMPI POP PUSH0 NOT ADD PUSH1 0xF PUSH2 0x20CC JUMP JUMPDEST PUSH0 NOT ADD JUMPDEST DUP4 SLOAD PUSH1 0x1 PUSH1 0x1 PUSH1 0x40 SHL SUB DUP4 DUP2 AND PUSH1 0x1 PUSH1 0x80 SHL SWAP1 SWAP3 DIV AND EQ DUP1 ISZERO PUSH2 0x2102 JUMPI POP DUP4 SLOAD PUSH1 0x1 PUSH1 0x1 PUSH1 0x40 SHL SUB DUP3 DUP2 AND PUSH1 0x1 PUSH1 0xC0 SHL SWAP1 SWAP3 DIV AND EQ JUMPDEST ISZERO PUSH2 0x2120 JUMPI PUSH1 0x40 MLOAD PUSH4 0x8ACB5F27 PUSH1 0xE0 SHL DUP2 MSTORE PUSH1 0x4 ADD PUSH1 0x40 MLOAD DUP1 SWAP2 SUB SWAP1 REVERT JUMPDEST PUSH1 0x1 PUSH1 0x1 PUSH1 0x40 SHL SUB DUP3 AND PUSH0 SWAP1 DUP2 MSTORE PUSH1 0x1 DUP6 ADD PUSH1 0x20 MSTORE PUSH1 0x40 SWAP1 KECCAK256 SLOAD PUSH2 0x2145 SWAP1 DUP3 DUP6 PUSH2 0x21AB JUMP JUMPDEST PUSH1 0x1 PUSH1 0x1 PUSH1 0x40 SHL SUB SWAP3 DUP4 AND PUSH0 DUP2 DUP2 MSTORE PUSH1 0x1 DUP8 ADD PUSH1 0x20 MSTORE PUSH1 0x40 SWAP1 KECCAK256 SWAP2 SWAP1 SWAP2 SSTORE DUP5 SLOAD PUSH16 0xFFFFFFFFFFFFFFFFFFFFFFFFFFFFFFFF NOT AND OR PUSH1 0x1 PUSH1 0x40 SHL SWAP2 SWAP1 SWAP3 AND MUL OR SWAP1 SWAP2 SSTORE POP JUMP JUMPDEST PUSH0 PUSH2 0x2196 DUP3 PUSH1 0x10 PUSH2 0x2787 JUMP JUMPDEST PUSH1 0x1 PUSH1 0x1 PUSH1 0x40 SHL SUB AND PUSH2 0xFFFF SWAP1 SHL SWAP1 POP SWAP2 SWAP1 POP JUMP JUMPDEST PUSH0 PUSH2 0x21B7 DUP4 PUSH1 0x10 PUSH2 0x2787 JUMP JUMPDEST PUSH1 0x1 PUSH1 0x1 PUSH1 0x40 SHL SUB AND DUP3 PUSH2 0xFFFF AND SWAP1 SHL PUSH2 0x21D0 DUP5 PUSH2 0x218A JUMP JUMPDEST NOT DUP6 AND PUSH2 0x21DD SWAP2 SWAP1 PUSH2 0x25B4 JUMP JUMPDEST SWAP5 SWAP4 POP POP POP POP JUMP JUMPDEST PUSH1 0x1 PUSH1 0x1 PUSH1 0xE0 SHL SUB NOT DUP2 AND DUP2 EQ PUSH2 0x8E3 JUMPI PUSH0 DUP1 REVERT JUMPDEST PUSH0 PUSH1 0x20 DUP3 DUP5 SUB SLT ISZERO PUSH2 0x220A JUMPI PUSH0 DUP1 REVERT JUMPDEST DUP2 CALLDATALOAD PUSH2 0x757 DUP2 PUSH2 0x21E5 JUMP JUMPDEST DUP1 CALLDATALOAD PUSH1 0x1 PUSH1 0x1 PUSH1 0xA0 SHL SUB DUP2 AND DUP2 EQ PUSH2 0x8C1 JUMPI PUSH0 DUP1 REVERT JUMPDEST PUSH0 PUSH1 0x20 DUP3 DUP5 SUB SLT ISZERO PUSH2 0x223B JUMPI PUSH0 DUP1 REVERT JUMPDEST PUSH2 0x757 DUP3 PUSH2 0x2215 JUMP JUMPDEST PUSH0 JUMPDEST DUP4 DUP2 LT ISZERO PUSH2 0x225E JUMPI DUP2 DUP2 ADD MLOAD DUP4 DUP3 ADD MSTORE PUSH1 0x20 ADD PUSH2 0x2246 JUMP JUMPDEST POP POP PUSH0 SWAP2 ADD MSTORE JUMP JUMPDEST PUSH0 DUP2 MLOAD DUP1 DUP5 MSTORE PUSH2 0x227D DUP2 PUSH1 0x20 DUP7 ADD PUSH1 0x20 DUP7 ADD PUSH2 0x2244 JUMP JUMPDEST PUSH1 0x1F ADD PUSH1 0x1F NOT AND SWAP3 SWAP1 SWAP3 ADD PUSH1 0x20 ADD SWAP3 SWAP2 POP POP JUMP JUMPDEST PUSH1 0x20 DUP2 MSTORE PUSH0 PUSH2 0x757 PUSH1 0x20 DUP4 ADD DUP5 PUSH2 0x2266 JUMP JUMPDEST PUSH0 PUSH1 0x20 DUP3 DUP5 SUB SLT ISZERO PUSH2 0x22B3 JUMPI PUSH0 DUP1 REVERT JUMPDEST POP CALLDATALOAD SWAP2 SWAP1 POP JUMP JUMPDEST PUSH0 DUP1 PUSH1 0x40 DUP4 DUP6 SUB SLT ISZERO PUSH2 0x22CB JUMPI PUSH0 DUP1 REVERT JUMPDEST PUSH2 0x22D4 DUP4 PUSH2 0x2215 JUMP JUMPDEST SWAP5 PUSH1 0x20 SWAP4 SWAP1 SWAP4 ADD CALLDATALOAD SWAP4 POP POP POP JUMP JUMPDEST PUSH0 DUP1 PUSH0 PUSH1 0x60 DUP5 DUP7 SUB SLT ISZERO PUSH2 0x22F4 JUMPI PUSH0 DUP1 REVERT JUMPDEST PUSH2 0x22FD DUP5 PUSH2 0x2215 JUMP JUMPDEST SWAP3 POP PUSH2 0x230B PUSH1 0x20 DUP6 ADD PUSH2 0x2215 JUMP JUMPDEST SWAP2 POP PUSH1 0x40 DUP5 ADD CALLDATALOAD SWAP1 POP SWAP3 POP SWAP3 POP SWAP3 JUMP JUMPDEST DUP1 CALLDATALOAD DUP1 ISZERO ISZERO DUP2 EQ PUSH2 0x8C1 JUMPI PUSH0 DUP1 REVERT JUMPDEST PUSH0 PUSH1 0x20 DUP3 DUP5 SUB SLT ISZERO PUSH2 0x233A JUMPI PUSH0 DUP1 REVERT JUMPDEST PUSH2 0x757 DUP3 PUSH2 0x231B JUMP JUMPDEST PUSH0 DUP1 PUSH1 0x40 DUP4 DUP6 SUB SLT ISZERO PUSH2 0x2354 JUMPI PUSH0 DUP1 REVERT JUMPDEST PUSH2 0x235D DUP4 PUSH2 0x2215 JUMP JUMPDEST SWAP2 POP PUSH2 0x236B PUSH1 0x20 DUP5 ADD PUSH2 0x231B JUMP JUMPDEST SWAP1 POP SWAP3 POP SWAP3 SWAP1 POP JUMP JUMPDEST PUSH1 0x20 DUP1 DUP3 MSTORE DUP3 MLOAD DUP3 DUP3 ADD DUP2 SWAP1 MSTORE PUSH0 SWAP2 SWAP1 DUP5 DUP3 ADD SWAP1 PUSH1 0x40 DUP6 ADD SWAP1 DUP5 JUMPDEST DUP2 DUP2 LT ISZERO PUSH2 0x23AB JUMPI DUP4 MLOAD DUP4 MSTORE SWAP3 DUP5 ADD SWAP3 SWAP2 DUP5 ADD SWAP2 PUSH1 0x1 ADD PUSH2 0x238F JUMP JUMPDEST POP SWAP1 SWAP7 SWAP6 POP POP POP POP POP POP JUMP JUMPDEST PUSH4 0x4E487B71 PUSH1 0xE0 SHL PUSH0 MSTORE PUSH1 0x41 PUSH1 0x4 MSTORE PUSH1 0x24 PUSH0 REVERT JUMPDEST PUSH0 DUP1 PUSH0 DUP1 PUSH1 0x80 DUP6 DUP8 SUB SLT ISZERO PUSH2 0x23DE JUMPI PUSH0 DUP1 REVERT JUMPDEST PUSH2 0x23E7 DUP6 PUSH2 0x2215 JUMP JUMPDEST SWAP4 POP PUSH2 0x23F5 PUSH1 0x20 DUP7 ADD PUSH2 0x2215 JUMP JUMPDEST SWAP3 POP PUSH1 0x40 DUP6 ADD CALLDATALOAD SWAP2 POP PUSH1 0x60 DUP6 ADD CALLDATALOAD PUSH1 0x1 PUSH1 0x1 PUSH1 0x40 SHL SUB DUP1 DUP3 GT ISZERO PUSH2 0x2417 JUMPI PUSH0 DUP1 REVERT JUMPDEST DUP2 DUP8 ADD SWAP2 POP DUP8 PUSH1 0x1F DUP4 ADD SLT PUSH2 0x242A JUMPI PUSH0 DUP1 REVERT JUMPDEST DUP2 CALLDATALOAD DUP2 DUP2 GT ISZERO PUSH2 0x243C JUMPI PUSH2 0x243C PUSH2 0x23B7 JUMP JUMPDEST PUSH1 0x40 MLOAD PUSH1 0x1F DUP3 ADD PUSH1 0x1F NOT SWAP1 DUP2 AND PUSH1 0x3F ADD AND DUP2 ADD SWAP1 DUP4 DUP3 GT DUP2 DUP4 LT OR ISZERO PUSH2 0x2464 JUMPI PUSH2 0x2464 PUSH2 0x23B7 JUMP JUMPDEST DUP2 PUSH1 0x40 MSTORE DUP3 DUP2 MSTORE DUP11 PUSH1 0x20 DUP5 DUP8 ADD ADD GT ISZERO PUSH2 0x247C JUMPI PUSH0 DUP1 REVERT JUMPDEST DUP3 PUSH1 0x20 DUP7 ADD PUSH1 0x20 DUP4 ADD CALLDATACOPY PUSH0 PUSH1 0x20 DUP5 DUP4 ADD ADD MSTORE DUP1 SWAP6 POP POP POP POP POP POP SWAP3 SWAP6 SWAP2 SWAP5 POP SWAP3 POP JUMP JUMPDEST PUSH0 DUP1 PUSH0 DUP1 PUSH0 DUP1 PUSH0 PUSH1 0xE0 DUP9 DUP11 SUB SLT ISZERO PUSH2 0x24B5 JUMPI PUSH0 DUP1 REVERT JUMPDEST PUSH2 0x24BE DUP9 PUSH2 0x2215 JUMP JUMPDEST SWAP7 POP PUSH2 0x24CC PUSH1 0x20 DUP10 ADD PUSH2 0x2215 JUMP JUMPDEST SWAP6 POP PUSH1 0x40 DUP9 ADD CALLDATALOAD SWAP5 POP PUSH1 0x60 DUP9 ADD CALLDATALOAD SWAP4 POP PUSH1 0x80 DUP9 ADD CALLDATALOAD PUSH1 0xFF DUP2 AND DUP2 EQ PUSH2 0x24EF JUMPI PUSH0 DUP1 REVERT JUMPDEST SWAP7 SWAP10 SWAP6 SWAP9 POP SWAP4 SWAP7 SWAP3 SWAP6 SWAP5 PUSH1 0xA0 DUP5 ADD CALLDATALOAD SWAP5 POP PUSH1 0xC0 SWAP1 SWAP4 ADD CALLDATALOAD SWAP3 SWAP2 POP POP JUMP JUMPDEST PUSH0 DUP1 PUSH1 0x40 DUP4 DUP6 SUB SLT ISZERO PUSH2 0x251D JUMPI PUSH0 DUP1 REVERT JUMPDEST PUSH2 0x2526 DUP4 PUSH2 0x2215 JUMP JUMPDEST SWAP2 POP PUSH2 0x236B PUSH1 0x20 DUP5 ADD PUSH2 0x2215 JUMP JUMPDEST PUSH0 DUP1 PUSH1 0x40 DUP4 DUP6 SUB SLT ISZERO PUSH2 0x2545 JUMPI PUSH0 DUP1 REVERT JUMPDEST POP POP DUP1 CALLDATALOAD SWAP3 PUSH1 0x20 SWAP1 SWAP2 ADD CALLDATALOAD SWAP2 POP JUMP JUMPDEST PUSH1 0x1 DUP2 DUP2 SHR SWAP1 DUP3 AND DUP1 PUSH2 0x2568 JUMPI PUSH1 0x7F DUP3 AND SWAP2 POP JUMPDEST PUSH1 0x20 DUP3 LT DUP2 SUB PUSH2 0x2586 JUMPI PUSH4 0x4E487B71 PUSH1 0xE0 SHL PUSH0 MSTORE PUSH1 0x22 PUSH1 0x4 MSTORE PUSH1 0x24 PUSH0 REVERT JUMPDEST POP SWAP2 SWAP1 POP JUMP JUMPDEST PUSH4 0x4E487B71 PUSH1 0xE0 SHL PUSH0 MSTORE PUSH1 0x32 PUSH1 0x4 MSTORE PUSH1 0x24 PUSH0 REVERT JUMPDEST PUSH4 0x4E487B71 PUSH1 0xE0 SHL PUSH0 MSTORE PUSH1 0x11 PUSH1 0x4 MSTORE PUSH1 0x24 PUSH0 REVERT JUMPDEST DUP1 DUP3 ADD DUP1 DUP3 GT ISZERO PUSH2 0x618 JUMPI PUSH2 0x618 PUSH2 0x25A0 JUMP JUMPDEST PUSH1 0x1 PUSH1 0x1 PUSH1 0xA0 SHL SUB DUP6 DUP2 AND DUP3 MSTORE DUP5 AND PUSH1 0x20 DUP3 ADD MSTORE PUSH1 0x40 DUP2 ADD DUP4 SWAP1 MSTORE PUSH1 0x80 PUSH1 0x60 DUP3 ADD DUP2 SWAP1 MSTORE PUSH0 SWAP1 PUSH2 0x25F9 SWAP1 DUP4 ADD DUP5 PUSH2 0x2266 JUMP JUMPDEST SWAP7 SWAP6 POP POP POP POP POP POP JUMP JUMPDEST PUSH0 PUSH1 0x20 DUP3 DUP5 SUB SLT ISZERO PUSH2 0x2613 JUMPI PUSH0 DUP1 REVERT JUMPDEST DUP2 MLOAD PUSH2 0x757 DUP2 PUSH2 0x21E5 JUMP JUMPDEST PUSH32 0x68747470733A2F2F6578616D706C652E636F6D2F746F6B656E2F000000000000 DUP2 MSTORE PUSH0 DUP3 MLOAD PUSH2 0x2655 DUP2 PUSH1 0x1A DUP6 ADD PUSH1 0x20 DUP8 ADD PUSH2 0x2244 JUMP JUMPDEST SWAP2 SWAP1 SWAP2 ADD PUSH1 0x1A ADD SWAP3 SWAP2 POP POP JUMP JUMPDEST DUP2 DUP2 SUB DUP2 DUP2 GT ISZERO PUSH2 0x618 JUMPI PUSH2 0x618 PUSH2 0x25A0 JUMP JUMPDEST PUSH0 DUP1 DUP4 SLOAD DUP2 PUSH1 0x1 DUP3 DUP2 SHR SWAP2 POP DUP1 DUP4 AND DUP1 PUSH2 0x2690 JUMPI PUSH1 0x7F DUP4 AND SWAP3 POP JUMPDEST PUSH1 0x20 DUP1 DUP5 LT DUP3 SUB PUSH2 0x26AF JUMPI PUSH4 0x4E487B71 PUSH1 0xE0 SHL DUP7 MSTORE PUSH1 0x22 PUSH1 0x4 MSTORE PUSH1 0x24 DUP7 REVERT JUMPDEST DUP2 DUP1 ISZERO PUSH2 0x26C3 JUMPI PUSH1 0x1 DUP2 EQ PUSH2 0x26D8 JUMPI PUSH2 0x2703 JUMP JUMPDEST PUSH1 0xFF NOT DUP7 AND DUP10 MSTORE DUP5 ISZERO ISZERO DUP6 MUL DUP10 ADD SWAP7 POP PUSH2 0x2703 JUMP JUMPDEST PUSH0 DUP11 DUP2 MSTORE PUSH1 0x20 SWAP1 KECCAK256 PUSH0 JUMPDEST DUP7 DUP2 LT ISZERO PUSH2 0x26FB JUMPI DUP2 SLOAD DUP12 DUP3 ADD MSTORE SWAP1 DUP6 ADD SWAP1 DUP4 ADD PUSH2 0x26E2 JUMP JUMPDEST POP POP DUP5 DUP10 ADD SWAP7 POP JUMPDEST POP SWAP5 SWAP9 SWAP8 POP POP POP POP POP POP POP POP JUMP JUMPDEST PUSH4 0x4E487B71 PUSH1 0xE0 SHL PUSH0 MSTORE PUSH1 0x12 PUSH1 0x4 MSTORE PUSH1 0x24 PUSH0 REVERT JUMPDEST PUSH0 DUP3 PUSH2 0x273F JUMPI PUSH4 0x4E487B71 PUSH1 0xE0 SHL PUSH0 MSTORE PUSH1 0x12 PUSH1 0x4 MSTORE PUSH1 0x24 PUSH0 REVERT JUMPDEST POP DIV SWAP1 JUMP JUMPDEST PUSH4 0x4E487B71 PUSH1 0xE0 SHL PUSH0 MSTORE PUSH1 0x31 PUSH1 0x4 MSTORE PUSH1 0x24 PUSH0 REVERT JUMPDEST DUP1 DUP3 MUL DUP2 ISZERO DUP3 DUP3 DIV DUP5 EQ OR PUSH2 0x618 JUMPI PUSH2 0x618 PUSH2 0x25A0 JUMP JUMPDEST PUSH0 PUSH1 0x1 DUP3 ADD PUSH2 0x2780 JUMPI PUSH2 0x2780 PUSH2 0x25A0 JUMP JUMPDEST POP PUSH1 0x1 ADD SWAP1 JUMP JUMPDEST PUSH1 0x1 PUSH1 0x1 PUSH1 0x40 SHL SUB DUP2 DUP2 AND DUP4 DUP3 AND MUL DUP1 DUP3 AND SWAP2 SWAP1 DUP3 DUP2 EQ PUSH2 0x27AA JUMPI PUSH2 0x27AA PUSH2 0x25A0 JUMP JUMPDEST POP POP SWAP3 SWAP2 POP POP JUMP INVALID LOG2 PUSH5 0x6970667358 0x22 SLT KECCAK256 SWAP10 ADDMOD SWAP11 0xAB 0xC SELFDESTRUCT CODECOPY DUP2 0xC9 0x28 EXP DUP6 0x4B 0xE6 0xB7 0xB6 STOP 0x49 CALLCODE 0x5D PUSH30 0x13A8691A448B7C03E6203764736F6C63430008140033DDF252AD1BE2C89B PUSH10 0xC2B068FC378DAA952BA7 CALL PUSH4 0xC4A11628 CREATE2 GAS 0x4D CREATE2 0x23 0xB3 0xEF "
		},
		"gasEstimates": {
			"creation": {
				"codeDepositCost": "2043200",
				"executionCost": "infinite",
				"totalCost": "infinite"
			},
			"external": {
				"DOMAIN_SEPARATOR()": "infinite",
				"ID_ENCODING_PREFIX()": "245",
				"allowance(address,address)": "infinite",
				"approve(address,uint256)": "31414",
				"balanceOf(address)": "2583",
				"decimals()": "infinite",
				"erc20Approve(address,uint256)": "24594",
				"erc20BalanceOf(address)": "2603",
				"erc20TotalSupply()": "2424",
				"erc20TransferFrom(address,address,uint256)": "infinite",
				"erc721Approve(address,uint256)": "31137",
				"erc721BalanceOf(address)": "2623",
				"erc721TotalSupply()": "2424",
				"erc721TransferExempt(address)": "2661",
				"erc721TransferFrom(address,address,uint256)": "infinite",
				"getApproved(uint256)": "2587",
				"getERC721QueueLength()": "2552",
				"getERC721TokensInQueue(uint256,uint256)": "infinite",
				"isApprovedForAll(address,address)": "infinite",
				"minted()": "2406",
				"name()": "infinite",
				"nonces(address)": "2627",
				"owned(address)": "infinite",
				"owner()": "2397",
				"ownerOf(uint256)": "2755",
				"permit(address,address,uint256,uint256,uint8,bytes32,bytes32)": "infinite",
				"renounceOwnership()": "infinite",
				"safeTransferFrom(address,address,uint256)": "infinite",
				"safeTransferFrom(address,address,uint256,bytes)": "infinite",
				"setApprovalForAll(address,bool)": "infinite",
				"setERC721TransferExempt(address,bool)": "infinite",
				"setSelfERC721TransferExempt(bool)": "infinite",
				"supportsInterface(bytes4)": "499",
				"symbol()": "infinite",
				"tokenURI(uint256)": "infinite",
				"totalSupply()": "2384",
				"transfer(address,uint256)": "infinite",
				"transferFrom(address,address,uint256)": "infinite",
				"transferOwnership(address)": "28439",
				"units()": "infinite"
			}
		},
		"methodIdentifiers": {
			"DOMAIN_SEPARATOR()": "3644e515",
			"ID_ENCODING_PREFIX()": "6e8f624b",
			"allowance(address,address)": "dd62ed3e",
			"approve(address,uint256)": "095ea7b3",
			"balanceOf(address)": "70a08231",
			"decimals()": "313ce567",
			"erc20Approve(address,uint256)": "4d966072",
			"erc20BalanceOf(address)": "02519da3",
			"erc20TotalSupply()": "89fb4c66",
			"erc20TransferFrom(address,address,uint256)": "d96ca0b9",
			"erc721Approve(address,uint256)": "dfabc033",
			"erc721BalanceOf(address)": "b3f9ea34",
			"erc721TotalSupply()": "c5ab3ba6",
			"erc721TransferExempt(address)": "09f0ef65",
			"erc721TransferFrom(address,address,uint256)": "dd637699",
			"getApproved(uint256)": "081812fc",
			"getERC721QueueLength()": "09674eb0",
			"getERC721TokensInQueue(uint256,uint256)": "f780bc1a",
			"isApprovedForAll(address,address)": "e985e9c5",
			"minted()": "4f02c420",
			"name()": "06fdde03",
			"nonces(address)": "7ecebe00",
			"owned(address)": "b1ab9317",
			"owner()": "8da5cb5b",
			"ownerOf(uint256)": "6352211e",
			"permit(address,address,uint256,uint256,uint8,bytes32,bytes32)": "d505accf",
			"renounceOwnership()": "715018a6",
			"safeTransferFrom(address,address,uint256)": "42842e0e",
			"safeTransferFrom(address,address,uint256,bytes)": "b88d4fde",
			"setApprovalForAll(address,bool)": "a22cb465",
			"setERC721TransferExempt(address,bool)": "c6e672b9",
			"setSelfERC721TransferExempt(bool)": "8a696e50",
			"supportsInterface(bytes4)": "01ffc9a7",
			"symbol()": "95d89b41",
			"tokenURI(uint256)": "c87b56dd",
			"totalSupply()": "18160ddd",
			"transfer(address,uint256)": "a9059cbb",
			"transferFrom(address,address,uint256)": "23b872dd",
			"transferOwnership(address)": "f2fde38b",
			"units()": "976a8435"
		}
	},
	"abi": [
		{
			"inputs": [
				{
					"internalType": "string",
					"name": "name_",
					"type": "string"
				},
				{
					"internalType": "string",
					"name": "symbol_",
					"type": "string"
				},
				{
					"internalType": "uint8",
					"name": "decimals_",
					"type": "uint8"
				},
				{
					"internalType": "uint256",
					"name": "maxTotalSupplyERC721_",
					"type": "uint256"
				},
				{
					"internalType": "address",
					"name": "initialOwner_",
					"type": "address"
				},
				{
					"internalType": "address",
					"name": "initialMintRecipient_",
					"type": "address"
				}
			],
			"stateMutability": "nonpayable",
			"type": "constructor"
		},
		{
			"inputs": [],
			"name": "AlreadyExists",
			"type": "error"
		},
		{
			"inputs": [],
			"name": "DecimalsTooLow",
			"type": "error"
		},
		{
			"inputs": [],
			"name": "InsufficientAllowance",
			"type": "error"
		},
		{
			"inputs": [],
			"name": "InvalidApproval",
			"type": "error"
		},
		{
			"inputs": [],
			"name": "InvalidExemption",
			"type": "error"
		},
		{
			"inputs": [],
			"name": "InvalidOperator",
			"type": "error"
		},
		{
			"inputs": [],
			"name": "InvalidRecipient",
			"type": "error"
		},
		{
			"inputs": [],
			"name": "InvalidSender",
			"type": "error"
		},
		{
			"inputs": [],
			"name": "InvalidSigner",
			"type": "error"
		},
		{
			"inputs": [],
			"name": "InvalidSpender",
			"type": "error"
		},
		{
			"inputs": [],
			"name": "InvalidTokenId",
			"type": "error"
		},
		{
			"inputs": [],
			"name": "MintLimitReached",
			"type": "error"
		},
		{
			"inputs": [],
			"name": "NotFound",
			"type": "error"
		},
		{
			"inputs": [
				{
					"internalType": "address",
					"name": "owner",
					"type": "address"
				}
			],
			"name": "OwnableInvalidOwner",
			"type": "error"
		},
		{
			"inputs": [
				{
					"internalType": "address",
					"name": "account",
					"type": "address"
				}
			],
			"name": "OwnableUnauthorizedAccount",
			"type": "error"
		},
		{
			"inputs": [],
			"name": "OwnedIndexOverflow",
			"type": "error"
		},
		{
			"inputs": [],
			"name": "PermitDeadlineExpired",
			"type": "error"
		},
		{
			"inputs": [],
			"name": "QueueEmpty",
			"type": "error"
		},
		{
			"inputs": [],
			"name": "QueueFull",
			"type": "error"
		},
		{
			"inputs": [],
			"name": "QueueOutOfBounds",
			"type": "error"
		},
		{
			"inputs": [],
			"name": "RecipientIsERC721TransferExempt",
			"type": "error"
		},
		{
			"inputs": [],
			"name": "Unauthorized",
			"type": "error"
		},
		{
			"inputs": [],
			"name": "UnsafeRecipient",
			"type": "error"
		},
		{
			"anonymous": false,
			"inputs": [
				{
					"indexed": true,
					"internalType": "address",
					"name": "owner",
					"type": "address"
				},
				{
					"indexed": true,
					"internalType": "address",
					"name": "spender",
					"type": "address"
				},
				{
					"indexed": false,
					"internalType": "uint256",
					"name": "value",
					"type": "uint256"
				}
			],
			"name": "Approval",
			"type": "event"
		},
		{
			"anonymous": false,
			"inputs": [
				{
					"indexed": true,
					"internalType": "address",
					"name": "owner",
					"type": "address"
				},
				{
					"indexed": true,
					"internalType": "address",
					"name": "spender",
					"type": "address"
				},
				{
					"indexed": true,
					"internalType": "uint256",
					"name": "id",
					"type": "uint256"
				}
			],
			"name": "Approval",
			"type": "event"
		},
		{
			"anonymous": false,
			"inputs": [
				{
					"indexed": true,
					"internalType": "address",
					"name": "owner",
					"type": "address"
				},
				{
					"indexed": true,
					"internalType": "address",
					"name": "operator",
					"type": "address"
				},
				{
					"indexed": false,
					"internalType": "bool",
					"name": "approved",
					"type": "bool"
				}
			],
			"name": "ApprovalForAll",
			"type": "event"
		},
		{
			"anonymous": false,
			"inputs": [
				{
					"indexed": true,
					"internalType": "address",
					"name": "previousOwner",
					"type": "address"
				},
				{
					"indexed": true,
					"internalType": "address",
					"name": "newOwner",
					"type": "address"
				}
			],
			"name": "OwnershipTransferred",
			"type": "event"
		},
		{
			"anonymous": false,
			"inputs": [
				{
					"indexed": true,
					"internalType": "address",
					"name": "from",
					"type": "address"
				},
				{
					"indexed": true,
					"internalType": "address",
					"name": "to",
					"type": "address"
				},
				{
					"indexed": false,
					"internalType": "uint256",
					"name": "amount",
					"type": "uint256"
				}
			],
			"name": "Transfer",
			"type": "event"
		},
		{
			"anonymous": false,
			"inputs": [
				{
					"indexed": true,
					"internalType": "address",
					"name": "from",
					"type": "address"
				},
				{
					"indexed": true,
					"internalType": "address",
					"name": "to",
					"type": "address"
				},
				{
					"indexed": true,
					"internalType": "uint256",
					"name": "id",
					"type": "uint256"
				}
			],
			"name": "Transfer",
			"type": "event"
		},
		{
			"inputs": [],
			"name": "DOMAIN_SEPARATOR",
			"outputs": [
				{
					"internalType": "bytes32",
					"name": "",
					"type": "bytes32"
				}
			],
			"stateMutability": "view",
			"type": "function"
		},
		{
			"inputs": [],
			"name": "ID_ENCODING_PREFIX",
			"outputs": [
				{
					"internalType": "uint256",
					"name": "",
					"type": "uint256"
				}
			],
			"stateMutability": "view",
			"type": "function"
		},
		{
			"inputs": [
				{
					"internalType": "address",
					"name": "",
					"type": "address"
				},
				{
					"internalType": "address",
					"name": "",
					"type": "address"
				}
			],
			"name": "allowance",
			"outputs": [
				{
					"internalType": "uint256",
					"name": "",
					"type": "uint256"
				}
			],
			"stateMutability": "view",
			"type": "function"
		},
		{
			"inputs": [
				{
					"internalType": "address",
					"name": "spender_",
					"type": "address"
				},
				{
					"internalType": "uint256",
					"name": "valueOrId_",
					"type": "uint256"
				}
			],
			"name": "approve",
			"outputs": [
				{
					"internalType": "bool",
					"name": "",
					"type": "bool"
				}
			],
			"stateMutability": "nonpayable",
			"type": "function"
		},
		{
			"inputs": [
				{
					"internalType": "address",
					"name": "",
					"type": "address"
				}
			],
			"name": "balanceOf",
			"outputs": [
				{
					"internalType": "uint256",
					"name": "",
					"type": "uint256"
				}
			],
			"stateMutability": "view",
			"type": "function"
		},
		{
			"inputs": [],
			"name": "decimals",
			"outputs": [
				{
					"internalType": "uint8",
					"name": "",
					"type": "uint8"
				}
			],
			"stateMutability": "view",
			"type": "function"
		},
		{
			"inputs": [
				{
					"internalType": "address",
					"name": "spender_",
					"type": "address"
				},
				{
					"internalType": "uint256",
					"name": "value_",
					"type": "uint256"
				}
			],
			"name": "erc20Approve",
			"outputs": [
				{
					"internalType": "bool",
					"name": "",
					"type": "bool"
				}
			],
			"stateMutability": "nonpayable",
			"type": "function"
		},
		{
			"inputs": [
				{
					"internalType": "address",
					"name": "owner_",
					"type": "address"
				}
			],
			"name": "erc20BalanceOf",
			"outputs": [
				{
					"internalType": "uint256",
					"name": "",
					"type": "uint256"
				}
			],
			"stateMutability": "view",
			"type": "function"
		},
		{
			"inputs": [],
			"name": "erc20TotalSupply",
			"outputs": [
				{
					"internalType": "uint256",
					"name": "",
					"type": "uint256"
				}
			],
			"stateMutability": "view",
			"type": "function"
		},
		{
			"inputs": [
				{
					"internalType": "address",
					"name": "from_",
					"type": "address"
				},
				{
					"internalType": "address",
					"name": "to_",
					"type": "address"
				},
				{
					"internalType": "uint256",
					"name": "value_",
					"type": "uint256"
				}
			],
			"name": "erc20TransferFrom",
			"outputs": [
				{
					"internalType": "bool",
					"name": "",
					"type": "bool"
				}
			],
			"stateMutability": "nonpayable",
			"type": "function"
		},
		{
			"inputs": [
				{
					"internalType": "address",
					"name": "spender_",
					"type": "address"
				},
				{
					"internalType": "uint256",
					"name": "id_",
					"type": "uint256"
				}
			],
			"name": "erc721Approve",
			"outputs": [],
			"stateMutability": "nonpayable",
			"type": "function"
		},
		{
			"inputs": [
				{
					"internalType": "address",
					"name": "owner_",
					"type": "address"
				}
			],
			"name": "erc721BalanceOf",
			"outputs": [
				{
					"internalType": "uint256",
					"name": "",
					"type": "uint256"
				}
			],
			"stateMutability": "view",
			"type": "function"
		},
		{
			"inputs": [],
			"name": "erc721TotalSupply",
			"outputs": [
				{
					"internalType": "uint256",
					"name": "",
					"type": "uint256"
				}
			],
			"stateMutability": "view",
			"type": "function"
		},
		{
			"inputs": [
				{
					"internalType": "address",
					"name": "target_",
					"type": "address"
				}
			],
			"name": "erc721TransferExempt",
			"outputs": [
				{
					"internalType": "bool",
					"name": "",
					"type": "bool"
				}
			],
			"stateMutability": "view",
			"type": "function"
		},
		{
			"inputs": [
				{
					"internalType": "address",
					"name": "from_",
					"type": "address"
				},
				{
					"internalType": "address",
					"name": "to_",
					"type": "address"
				},
				{
					"internalType": "uint256",
					"name": "id_",
					"type": "uint256"
				}
			],
			"name": "erc721TransferFrom",
			"outputs": [],
			"stateMutability": "nonpayable",
			"type": "function"
		},
		{
			"inputs": [
				{
					"internalType": "uint256",
					"name": "",
					"type": "uint256"
				}
			],
			"name": "getApproved",
			"outputs": [
				{
					"internalType": "address",
					"name": "",
					"type": "address"
				}
			],
			"stateMutability": "view",
			"type": "function"
		},
		{
			"inputs": [],
			"name": "getERC721QueueLength",
			"outputs": [
				{
					"internalType": "uint256",
					"name": "",
					"type": "uint256"
				}
			],
			"stateMutability": "view",
			"type": "function"
		},
		{
			"inputs": [
				{
					"internalType": "uint256",
					"name": "start_",
					"type": "uint256"
				},
				{
					"internalType": "uint256",
					"name": "count_",
					"type": "uint256"
				}
			],
			"name": "getERC721TokensInQueue",
			"outputs": [
				{
					"internalType": "uint256[]",
					"name": "",
					"type": "uint256[]"
				}
			],
			"stateMutability": "view",
			"type": "function"
		},
		{
			"inputs": [
				{
					"internalType": "address",
					"name": "",
					"type": "address"
				},
				{
					"internalType": "address",
					"name": "",
					"type": "address"
				}
			],
			"name": "isApprovedForAll",
			"outputs": [
				{
					"internalType": "bool",
					"name": "",
					"type": "bool"
				}
			],
			"stateMutability": "view",
			"type": "function"
		},
		{
			"inputs": [],
			"name": "minted",
			"outputs": [
				{
					"internalType": "uint256",
					"name": "",
					"type": "uint256"
				}
			],
			"stateMutability": "view",
			"type": "function"
		},
		{
			"inputs": [],
			"name": "name",
			"outputs": [
				{
					"internalType": "string",
					"name": "",
					"type": "string"
				}
			],
			"stateMutability": "view",
			"type": "function"
		},
		{
			"inputs": [
				{
					"internalType": "address",
					"name": "",
					"type": "address"
				}
			],
			"name": "nonces",
			"outputs": [
				{
					"internalType": "uint256",
					"name": "",
					"type": "uint256"
				}
			],
			"stateMutability": "view",
			"type": "function"
		},
		{
			"inputs": [
				{
					"internalType": "address",
					"name": "owner_",
					"type": "address"
				}
			],
			"name": "owned",
			"outputs": [
				{
					"internalType": "uint256[]",
					"name": "",
					"type": "uint256[]"
				}
			],
			"stateMutability": "view",
			"type": "function"
		},
		{
			"inputs": [],
			"name": "owner",
			"outputs": [
				{
					"internalType": "address",
					"name": "",
					"type": "address"
				}
			],
			"stateMutability": "view",
			"type": "function"
		},
		{
			"inputs": [
				{
					"internalType": "uint256",
					"name": "id_",
					"type": "uint256"
				}
			],
			"name": "ownerOf",
			"outputs": [
				{
					"internalType": "address",
					"name": "erc721Owner",
					"type": "address"
				}
			],
			"stateMutability": "view",
			"type": "function"
		},
		{
			"inputs": [
				{
					"internalType": "address",
					"name": "owner_",
					"type": "address"
				},
				{
					"internalType": "address",
					"name": "spender_",
					"type": "address"
				},
				{
					"internalType": "uint256",
					"name": "value_",
					"type": "uint256"
				},
				{
					"internalType": "uint256",
					"name": "deadline_",
					"type": "uint256"
				},
				{
					"internalType": "uint8",
					"name": "v_",
					"type": "uint8"
				},
				{
					"internalType": "bytes32",
					"name": "r_",
					"type": "bytes32"
				},
				{
					"internalType": "bytes32",
					"name": "s_",
					"type": "bytes32"
				}
			],
			"name": "permit",
			"outputs": [],
			"stateMutability": "nonpayable",
			"type": "function"
		},
		{
			"inputs": [],
			"name": "renounceOwnership",
			"outputs": [],
			"stateMutability": "nonpayable",
			"type": "function"
		},
		{
			"inputs": [
				{
					"internalType": "address",
					"name": "from_",
					"type": "address"
				},
				{
					"internalType": "address",
					"name": "to_",
					"type": "address"
				},
				{
					"internalType": "uint256",
					"name": "id_",
					"type": "uint256"
				}
			],
			"name": "safeTransferFrom",
			"outputs": [],
			"stateMutability": "nonpayable",
			"type": "function"
		},
		{
			"inputs": [
				{
					"internalType": "address",
					"name": "from_",
					"type": "address"
				},
				{
					"internalType": "address",
					"name": "to_",
					"type": "address"
				},
				{
					"internalType": "uint256",
					"name": "id_",
					"type": "uint256"
				},
				{
					"internalType": "bytes",
					"name": "data_",
					"type": "bytes"
				}
			],
			"name": "safeTransferFrom",
			"outputs": [],
			"stateMutability": "nonpayable",
			"type": "function"
		},
		{
			"inputs": [
				{
					"internalType": "address",
					"name": "operator_",
					"type": "address"
				},
				{
					"internalType": "bool",
					"name": "approved_",
					"type": "bool"
				}
			],
			"name": "setApprovalForAll",
			"outputs": [],
			"stateMutability": "nonpayable",
			"type": "function"
		},
		{
			"inputs": [
				{
					"internalType": "address",
					"name": "account_",
					"type": "address"
				},
				{
					"internalType": "bool",
					"name": "value_",
					"type": "bool"
				}
			],
			"name": "setERC721TransferExempt",
			"outputs": [],
			"stateMutability": "nonpayable",
			"type": "function"
		},
		{
			"inputs": [
				{
					"internalType": "bool",
					"name": "state_",
					"type": "bool"
				}
			],
			"name": "setSelfERC721TransferExempt",
			"outputs": [],
			"stateMutability": "nonpayable",
			"type": "function"
		},
		{
			"inputs": [
				{
					"internalType": "bytes4",
					"name": "interfaceId",
					"type": "bytes4"
				}
			],
			"name": "supportsInterface",
			"outputs": [
				{
					"internalType": "bool",
					"name": "",
					"type": "bool"
				}
			],
			"stateMutability": "view",
			"type": "function"
		},
		{
			"inputs": [],
			"name": "symbol",
			"outputs": [
				{
					"internalType": "string",
					"name": "",
					"type": "string"
				}
			],
			"stateMutability": "view",
			"type": "function"
		},
		{
			"inputs": [
				{
					"internalType": "uint256",
					"name": "id_",
					"type": "uint256"
				}
			],
			"name": "tokenURI",
			"outputs": [
				{
					"internalType": "string",
					"name": "",
					"type": "string"
				}
			],
			"stateMutability": "pure",
			"type": "function"
		},
		{
			"inputs": [],
			"name": "totalSupply",
			"outputs": [
				{
					"internalType": "uint256",
					"name": "",
					"type": "uint256"
				}
			],
			"stateMutability": "view",
			"type": "function"
		},
		{
			"inputs": [
				{
					"internalType": "address",
					"name": "to_",
					"type": "address"
				},
				{
					"internalType": "uint256",
					"name": "value_",
					"type": "uint256"
				}
			],
			"name": "transfer",
			"outputs": [
				{
					"internalType": "bool",
					"name": "",
					"type": "bool"
				}
			],
			"stateMutability": "nonpayable",
			"type": "function"
		},
		{
			"inputs": [
				{
					"internalType": "address",
					"name": "from_",
					"type": "address"
				},
				{
					"internalType": "address",
					"name": "to_",
					"type": "address"
				},
				{
					"internalType": "uint256",
					"name": "valueOrId_",
					"type": "uint256"
				}
			],
			"name": "transferFrom",
			"outputs": [
				{
					"internalType": "bool",
					"name": "",
					"type": "bool"
				}
			],
			"stateMutability": "nonpayable",
			"type": "function"
		},
		{
			"inputs": [
				{
					"internalType": "address",
					"name": "newOwner",
					"type": "address"
				}
			],
			"name": "transferOwnership",
			"outputs": [],
			"stateMutability": "nonpayable",
			"type": "function"
		},
		{
			"inputs": [],
			"name": "units",
			"outputs": [
				{
					"internalType": "uint256",
					"name": "",
					"type": "uint256"
				}
			],
			"stateMutability": "view",
			"type": "function"
		}
	]
}